{"contracts/DexV1Pair.sol":{"DexV1Pair":{"abi":[{"inputs":[],"stateMutability":"nonpayable","type":"constructor"},{"anonymous":false,"inputs":[{"indexed":true,"internalType":"address","name":"owner","type":"address"},{"indexed":true,"internalType":"address","name":"spender","type":"address"},{"indexed":false,"internalType":"uint256","name":"value","type":"uint256"}],"name":"Approval","type":"event"},{"anonymous":false,"inputs":[{"indexed":true,"internalType":"address","name":"owner","type":"address"},{"indexed":true,"internalType":"address","name":"spender","type":"address"},{"indexed":false,"internalType":"uint256","name":"value","type":"uint256"}],"name":"Approval1","type":"event"},{"anonymous":false,"inputs":[{"indexed":true,"internalType":"address","name":"sender","type":"address"},{"indexed":false,"internalType":"uint256","name":"amount0","type":"uint256"},{"indexed":false,"internalType":"uint256","name":"amount1","type":"uint256"},{"indexed":true,"internalType":"address","name":"to","type":"address"}],"name":"Burn","type":"event"},{"anonymous":false,"inputs":[{"indexed":true,"internalType":"address","name":"sender","type":"address"},{"indexed":false,"internalType":"uint256","name":"amount0","type":"uint256"},{"indexed":false,"internalType":"uint256","name":"amount1","type":"uint256"}],"name":"Mint","type":"event"},{"anonymous":false,"inputs":[{"indexed":true,"internalType":"address","name":"sender","type":"address"},{"indexed":false,"internalType":"uint256","name":"amount0In","type":"uint256"},{"indexed":false,"internalType":"uint256","name":"amount1In","type":"uint256"},{"indexed":false,"internalType":"uint256","name":"amount0Out","type":"uint256"},{"indexed":false,"internalType":"uint256","name":"amount1Out","type":"uint256"},{"indexed":true,"internalType":"address","name":"to","type":"address"}],"name":"Swap","type":"event"},{"anonymous":false,"inputs":[{"indexed":false,"internalType":"uint112","name":"reserve0","type":"uint112"},{"indexed":false,"internalType":"uint112","name":"reserve1","type":"uint112"}],"name":"Sync","type":"event"},{"anonymous":false,"inputs":[{"indexed":true,"internalType":"address","name":"from","type":"address"},{"indexed":true,"internalType":"address","name":"to","type":"address"},{"indexed":false,"internalType":"uint256","name":"value","type":"uint256"}],"name":"Transfer1","type":"event"},{"inputs":[],"name":"DOMAIN_SEPARATOR","outputs":[{"internalType":"bytes32","name":"","type":"bytes32"}],"stateMutability":"view","type":"function"},{"inputs":[],"name":"MINIMUM_LIQUIDITY","outputs":[{"internalType":"uint256","name":"","type":"uint256"}],"stateMutability":"view","type":"function"},{"inputs":[],"name":"PERMIT_TYPEHASH","outputs":[{"internalType":"bytes32","name":"","type":"bytes32"}],"stateMutability":"view","type":"function"},{"inputs":[{"internalType":"address","name":"","type":"address"},{"internalType":"address","name":"","type":"address"}],"name":"allowance","outputs":[{"internalType":"uint256","name":"","type":"uint256"}],"stateMutability":"view","type":"function"},{"inputs":[{"internalType":"address","name":"spender","type":"address"},{"internalType":"uint256","name":"value","type":"uint256"}],"name":"approve","outputs":[{"internalType":"bool","name":"","type":"bool"}],"stateMutability":"nonpayable","type":"function"},{"inputs":[{"internalType":"address","name":"","type":"address"}],"name":"balanceOf","outputs":[{"internalType":"uint256","name":"","type":"uint256"}],"stateMutability":"view","type":"function"},{"inputs":[{"internalType":"address","name":"to","type":"address"}],"name":"burn","outputs":[{"internalType":"uint256","name":"amount0","type":"uint256"},{"internalType":"uint256","name":"amount1","type":"uint256"}],"stateMutability":"nonpayable","type":"function"},{"inputs":[],"name":"decimals","outputs":[{"internalType":"uint8","name":"","type":"uint8"}],"stateMutability":"view","type":"function"},{"inputs":[],"name":"factory","outputs":[{"internalType":"address","name":"","type":"address"}],"stateMutability":"view","type":"function"},{"inputs":[],"name":"getReserves","outputs":[{"internalType":"uint112","name":"_reserve0","type":"uint112"},{"internalType":"uint112","name":"_reserve1","type":"uint112"},{"internalType":"uint32","name":"_blockTimestampLast","type":"uint32"}],"stateMutability":"view","type":"function"},{"inputs":[{"internalType":"address","name":"_token0","type":"address"},{"internalType":"address","name":"_token1","type":"address"}],"name":"initialize","outputs":[],"stateMutability":"nonpayable","type":"function"},{"inputs":[],"name":"kLast","outputs":[{"internalType":"uint256","name":"","type":"uint256"}],"stateMutability":"view","type":"function"},{"inputs":[{"internalType":"address","name":"to","type":"address"}],"name":"mint","outputs":[{"internalType":"uint256","name":"liquidity","type":"uint256"}],"stateMutability":"nonpayable","type":"function"},{"inputs":[{"internalType":"uint256","name":"value","type":"uint256"}],"name":"mints","outputs":[],"stateMutability":"nonpayable","type":"function"},{"inputs":[],"name":"name","outputs":[{"internalType":"string","name":"","type":"string"}],"stateMutability":"view","type":"function"},{"inputs":[{"internalType":"address","name":"","type":"address"}],"name":"nonces","outputs":[{"internalType":"uint256","name":"","type":"uint256"}],"stateMutability":"view","type":"function"},{"inputs":[],"name":"owner_","outputs":[{"internalType":"address","name":"","type":"address"}],"stateMutability":"view","type":"function"},{"inputs":[{"internalType":"address","name":"owner","type":"address"},{"internalType":"address","name":"spender","type":"address"},{"internalType":"uint256","name":"value","type":"uint256"},{"internalType":"uint256","name":"deadline","type":"uint256"},{"internalType":"uint8","name":"v","type":"uint8"},{"internalType":"bytes32","name":"r","type":"bytes32"},{"internalType":"bytes32","name":"s","type":"bytes32"}],"name":"permit","outputs":[],"stateMutability":"nonpayable","type":"function"},{"inputs":[],"name":"price0CumulativeLast","outputs":[{"internalType":"uint256","name":"","type":"uint256"}],"stateMutability":"view","type":"function"},{"inputs":[],"name":"price1CumulativeLast","outputs":[{"internalType":"uint256","name":"","type":"uint256"}],"stateMutability":"view","type":"function"},{"inputs":[{"internalType":"address","name":"to","type":"address"}],"name":"skim","outputs":[],"stateMutability":"nonpayable","type":"function"},{"inputs":[{"internalType":"uint256","name":"amount0Out","type":"uint256"},{"internalType":"uint256","name":"amount1Out","type":"uint256"},{"internalType":"address","name":"to","type":"address"},{"internalType":"bytes","name":"data","type":"bytes"}],"name":"swap","outputs":[],"stateMutability":"nonpayable","type":"function"},{"inputs":[],"name":"symbol","outputs":[{"internalType":"string","name":"","type":"string"}],"stateMutability":"view","type":"function"},{"inputs":[],"name":"sync","outputs":[],"stateMutability":"nonpayable","type":"function"},{"inputs":[],"name":"token0","outputs":[{"internalType":"address","name":"","type":"address"}],"stateMutability":"view","type":"function"},{"inputs":[],"name":"token1","outputs":[{"internalType":"address","name":"","type":"address"}],"stateMutability":"view","type":"function"},{"inputs":[],"name":"totalSupply","outputs":[{"internalType":"uint256","name":"","type":"uint256"}],"stateMutability":"view","type":"function"},{"inputs":[{"internalType":"address","name":"to","type":"address"},{"internalType":"uint256","name":"value","type":"uint256"}],"name":"transfer","outputs":[{"internalType":"bool","name":"","type":"bool"}],"stateMutability":"nonpayable","type":"function"},{"inputs":[{"internalType":"address","name":"from","type":"address"},{"internalType":"address","name":"to","type":"address"},{"internalType":"uint256","name":"value","type":"uint256"}],"name":"transferFrom","outputs":[{"internalType":"bool","name":"","type":"bool"}],"stateMutability":"nonpayable","type":"function"}],"evm":{"bytecode":{"linkReferences":{},"object":"60806040526001600d5534801561001557600080fd5b50600380546001600160a01b03191633179055604080518082018252600681526544455820563160d01b6020918201528151808301835260018152603160f81b9082015281517f8b73c3c69bb8fe3d512ecc4cf759cc79239f7b179b0ffacaa9a75d522b39400f918101919091527f763ef677f244741a13e3fb4cba28fbcd1fe43592d1e8a4e327e45635f621c57c918101919091527fc89efdaa54c0f20c7adf612882df0950f5a951637e0307cdcb4c672f298b8bc6606082015246608082018190523060a08301529060c00160408051601f19818403018152919052805160209091012060045550600680546001600160a01b03191633179055612166806101206000396000f3fe608060405234801561001057600080fd5b50600436106101cf5760003560e01c80636a62784211610104578063ba9a7a56116100a2578063d505accf11610071578063d505accf14610450578063dd62ed3e14610463578063e76630791461048e578063fff6cae9146104a157600080fd5b8063ba9a7a561461040e578063bc25cf7714610417578063c45a01551461042a578063d21220a71461043d57600080fd5b80637ecebe00116100de5780637ecebe001461038e57806389afcb44146103ae57806395d89b41146103d6578063a9059cbb146103fb57600080fd5b80636a6278421461035257806370a08231146103655780637464fc3d1461038557600080fd5b806330adf81f11610171578063485cc9551161014b578063485cc9551461031a5780635909c0d51461032d5780635a3d5493146103365780636350b2c21461033f57600080fd5b806330adf81f146102d0578063313ce567146102f75780633644e5151461031157600080fd5b8063095ea7b3116101ad578063095ea7b3146102585780630dfe16811461027b57806318160ddd146102a657806323b872dd146102bd57600080fd5b8063022c0d9f146101d457806306fdde03146101e95780630902f1ac14610224575b600080fd5b6101e76101e2366004611d2f565b6104a9565b005b61020e6040518060400160405280600681526020016544455820563160d01b81525081565b60405161021b9190611de9565b60405180910390f35b61022c61093e565b604080516001600160701b03948516815293909216602084015263ffffffff169082015260600161021b565b61026b610266366004611e1c565b610968565b604051901515815260200161021b565b60075461028e906001600160a01b031681565b6040516001600160a01b03909116815260200161021b565b6102af60005481565b60405190815260200161021b565b61026b6102cb366004611e48565b6109ba565b6102af7f6e71edae12b1b97f4d1f60370fef10105fa2faae0126114a169c64845d6126c981565b6102ff601281565b60405160ff909116815260200161021b565b6102af60045481565b6101e7610328366004611e89565b610a34565b6102af600a5481565b6102af600b5481565b6101e761034d366004611ec2565b610aaf565b6102af610360366004611edb565b610b02565b6102af610373366004611edb565b60016020526000908152604090205481565b6102af600c5481565b6102af61039c366004611edb565b60056020526000908152604090205481565b6103c16103bc366004611edb565b610dcb565b6040805192835260208301919091520161021b565b61020e6040518060400160405280600681526020016542525820563160d01b81525081565b61026b610409366004611e1c565b61112b565b6102af6103e881565b6101e7610425366004611edb565b611138565b60065461028e906001600160a01b031681565b60085461028e906001600160a01b031681565b6101e761045e366004611ef8565b61124b565b6102af610471366004611e89565b600260209081526000928352604080842090915290825290205481565b60035461028e906001600160a01b031681565b6101e761145b565b600d546001146104d45760405162461bcd60e51b81526004016104cb90611f6f565b60405180910390fd5b6000600d55841515806104e75750600084115b61053d5760405162461bcd60e51b815260206004820152602160248201527f44657856313a20494e53554646494349454e545f4f55545055545f414d4f554e6044820152601560fa1b60648201526084016104cb565b60008061054861093e565b5091509150816001600160701b03168710801561056d5750806001600160701b031686105b6105b95760405162461bcd60e51b815260206004820152601d60248201527f44657856313a20494e53554646494349454e545f4c495155494449545900000060448201526064016104cb565b60075460085460009182916001600160a01b039182169190811690891682148015906105f75750806001600160a01b0316896001600160a01b031614155b61063b5760405162461bcd60e51b8152602060048201526015602482015274556e697377617056323a20494e56414c49445f544f60581b60448201526064016104cb565b8a1561064c5761064c828a8d61157f565b891561065d5761065d818a8c61157f565b86156106ce576040516370a0823160e01b81523060048201526001600160a01b038316906370a0823190602401602060405180830381865afa1580156106a7573d6000803e3d6000fd5b505050506040513d601f19601f820116820180604052508101906106cb9190611f96565b93505b6040516370a0823160e01b81523060048201526001600160a01b038216906370a0823190602401602060405180830381865afa158015610712573d6000803e3d6000fd5b505050506040513d601f19601f820116820180604052508101906107369190611f96565b92505050600089856001600160701b03166107519190611fc5565b831161075e57600061077b565b6107718a6001600160701b038716611fc5565b61077b9084611fc5565b905060006107928a6001600160701b038716611fc5565b831161079f5760006107bc565b6107b28a6001600160701b038716611fc5565b6107bc9084611fc5565b905060008211806107cd5750600081115b6108195760405162461bcd60e51b815260206004820181905260248201527f44657856313a20494e53554646494349454e545f494e5055545f414d4f554e5460448201526064016104cb565b6000610826836003611fd8565b610832866103e8611fd8565b61083c9190611fc5565b9050600061084b836003611fd8565b610857866103e8611fd8565b6108619190611fc5565b90506108796001600160701b03808916908a16611fd8565b61088690620f4240611fd8565b6108908284611fd8565b10156108c95760405162461bcd60e51b815260206004820152600860248201526744657856313a204b60c01b60448201526064016104cb565b50506108d7848488886116c3565b60408051838152602081018390529081018c9052606081018b90526001600160a01b038a169033907fd78ad95fa46c994b6551d0da85fc275fe613ce37657fb8d5e3d130840159d8229060800160405180910390a350506001600d55505050505050505050565b6009546001600160701b0380821692600160701b830490911691600160e01b900463ffffffff1690565b60008082116109a55760405162461bcd60e51b81526020600482015260096024820152684d696e696d756d203160b81b60448201526064016104cb565b6109b03384846118ab565b5060015b92915050565b6001600160a01b038316600090815260026020908152604080832033845290915281205460001914610a1f576001600160a01b038416600090815260026020908152604080832033845290915281208054849290610a19908490611fc5565b90915550505b610a2a84848461190d565b5060019392505050565b6006546001600160a01b03163314610a815760405162461bcd60e51b815260206004820152601060248201526f2232bc2b189d102327a92124a22222a760811b60448201526064016104cb565b600780546001600160a01b039384166001600160a01b03199182161790915560088054929093169116179055565b6003546001600160a01b03163314610af55760405162461bcd60e51b81526020600482015260096024820152682737ba1027bbb732b960b91b60448201526064016104cb565b610aff33826119ae565b50565b6000600d54600114610b265760405162461bcd60e51b81526004016104cb90611f6f565b6000600d81905580610b3661093e565b506007546040516370a0823160e01b81523060048201529294509092506000916001600160a01b03909116906370a0823190602401602060405180830381865afa158015610b88573d6000803e3d6000fd5b505050506040513d601f19601f82011682018060405250810190610bac9190611f96565b6008546040516370a0823160e01b81523060048201529192506000916001600160a01b03909116906370a0823190602401602060405180830381865afa158015610bfa573d6000803e3d6000fd5b505050506040513d601f19601f82011682018060405250810190610c1e9190611f96565b90506000610c356001600160701b03861684611fc5565b90506000610c4c6001600160701b03861684611fc5565b90506000610c5a8787611a37565b60008054919250819003610c9b576103e8610c7d610c788587611fd8565b611b76565b610c879190611fc5565b9850610c9660006103e86119ae565b610ce2565b610cdf6001600160701b038916610cb28387611fd8565b610cbc9190612005565b6001600160701b038916610cd08487611fd8565b610cda9190612005565b611be6565b98505b60008911610d3e5760405162461bcd60e51b8152602060048201526024808201527f44657856313a20494e53554646494349454e545f4c49515549444954595f4d496044820152631395115160e21b60648201526084016104cb565b610d488a8a6119ae565b610d5486868a8a6116c3565b8115610d7d57600954610d79906001600160701b03600160701b820481169116611fd8565b600c555b604080518581526020810185905233917f4c209b5fc8ad50758f13e2e1088ba56a560dff690a1c6fef26394f4c03821c4f910160405180910390a250506001600d5550949695505050505050565b600080600d54600114610df05760405162461bcd60e51b81526004016104cb90611f6f565b6000600d81905580610e0061093e565b506007546008546040516370a0823160e01b81523060048201529395509193506001600160a01b039081169291169060009083906370a0823190602401602060405180830381865afa158015610e5a573d6000803e3d6000fd5b505050506040513d601f19601f82011682018060405250810190610e7e9190611f96565b6040516370a0823160e01b81523060048201529091506000906001600160a01b038416906370a0823190602401602060405180830381865afa158015610ec8573d6000803e3d6000fd5b505050506040513d601f19601f82011682018060405250810190610eec9190611f96565b30600090815260016020526040812054919250610f098888611a37565b60005490915080610f1a8685611fd8565b610f249190612005565b9a5080610f318585611fd8565b610f3b9190612005565b995060008b118015610f4d575060008a115b610fa55760405162461bcd60e51b8152602060048201526024808201527f44657856313a20494e53554646494349454e545f4c49515549444954595f42556044820152631493915160e21b60648201526084016104cb565b610faf3084611bfe565b610fba878d8d61157f565b610fc5868d8c61157f565b6040516370a0823160e01b81523060048201526001600160a01b038816906370a0823190602401602060405180830381865afa158015611009573d6000803e3d6000fd5b505050506040513d601f19601f8201168201806040525081019061102d9190611f96565b6040516370a0823160e01b81523060048201529095506001600160a01b038716906370a0823190602401602060405180830381865afa158015611074573d6000803e3d6000fd5b505050506040513d601f19601f820116820180604052508101906110989190611f96565b93506110a685858b8b6116c3565b81156110cf576009546110cb906001600160701b03600160701b820481169116611fd8565b600c555b604080518c8152602081018c90526001600160a01b038e169133917fdccd412f0b1252819cb1fd330b93224ca42612892bb3f4f789976e6d81936496910160405180910390a35050505050505050506001600d81905550915091565b60006109b033848461190d565b600d5460011461115a5760405162461bcd60e51b81526004016104cb90611f6f565b6000600d556007546008546009546040516370a0823160e01b81523060048201526001600160a01b0393841693909216916111f991849186916001600160701b03169083906370a08231906024015b602060405180830381865afa1580156111c6573d6000803e3d6000fd5b505050506040513d601f19601f820116820180604052508101906111ea9190611f96565b6111f49190611fc5565b61157f565b6009546040516370a0823160e01b81523060048201526112419183918691600160701b90046001600160701b0316906001600160a01b038416906370a08231906024016111a9565b50506001600d5550565b4284101561128c5760405162461bcd60e51b815260206004820152600e60248201526d11195e158c4e881156141254915160921b60448201526064016104cb565b6004546001600160a01b038816600090815260056020526040812080549192917f6e71edae12b1b97f4d1f60370fef10105fa2faae0126114a169c64845d6126c9918b918b918b9190876112df83612019565b909155506040805160208101969096526001600160a01b0394851690860152929091166060840152608083015260a082015260c0810187905260e0016040516020818303038152906040528051906020012060405160200161135892919061190160f01b81526002810192909252602282015260420190565b60408051601f198184030181528282528051602091820120600080855291840180845281905260ff88169284019290925260608301869052608083018590529092509060019060a0016020604051602081039080840390855afa1580156113c3573d6000803e3d6000fd5b5050604051601f1901519150506001600160a01b038116158015906113f95750886001600160a01b0316816001600160a01b0316145b6114455760405162461bcd60e51b815260206004820152601860248201527f44657856313a20494e56414c49445f5349474e4154555245000000000000000060448201526064016104cb565b611450898989611c93565b505050505050505050565b600d5460011461147d5760405162461bcd60e51b81526004016104cb90611f6f565b6000600d556007546040516370a0823160e01b8152306004820152611578916001600160a01b0316906370a0823190602401602060405180830381865afa1580156114cc573d6000803e3d6000fd5b505050506040513d601f19601f820116820180604052508101906114f09190611f96565b6008546040516370a0823160e01b81523060048201526001600160a01b03909116906370a0823190602401602060405180830381865afa158015611538573d6000803e3d6000fd5b505050506040513d601f19601f8201168201806040525081019061155c9190611f96565b6009546001600160701b0380821691600160701b9004166116c3565b6001600d55565b604080518082018252601981527f7472616e7366657228616464726573732c75696e74323536290000000000000060209182015281516001600160a01b0385811660248301526044808301869052845180840390910181526064909201845291810180516001600160e01b031663a9059cbb60e01b1790529151600092839287169161160b9190612032565b6000604051808303816000865af19150503d8060008114611648576040519150601f19603f3d011682016040523d82523d6000602084013e61164d565b606091505b5091509150818015611677575080511580611677575080806020019051810190611677919061204e565b6116bc5760405162461bcd60e51b815260206004820152601660248201527511195e158c4e881514905394d1915497d1905253115160521b60448201526064016104cb565b5050505050565b6001600160701b0384118015906116e157506001600160701b038311155b61171f5760405162461bcd60e51b815260206004820152600f60248201526e44657856313a204f564552464c4f5760881b60448201526064016104cb565b600061173064010000000042612070565b60095490915060009061175090600160e01b900463ffffffff1683612084565b905060008163ffffffff1611801561177057506001600160701b03841615155b801561178457506001600160701b03831615155b15611813578063ffffffff166117ac8561179d86611cec565b6001600160e01b031690611d05565b6001600160e01b03166117bf9190611fd8565b600a60008282546117d091906120a8565b909155505063ffffffff81166117e98461179d87611cec565b6001600160e01b03166117fc9190611fd8565b600b600082825461180d91906120a8565b90915550505b6009805463ffffffff8416600160e01b026001600160e01b036001600160701b03898116600160701b9081026001600160e01b03199095168c83161794909417918216831794859055604080519382169282169290921783529290930490911660208201527f1c411e9a96e071241c2f21f7726b17ae89e3cab4c78be50e062b03a9fffbbad1910160405180910390a1505050505050565b6001600160a01b0383811660008181526002602090815260408083209487168084529482529182902085905590518481527f9bbed94d365edf12a87b581ea935cfdee7c048fd4e609e0ad6321ca2703abb1e91015b60405180910390a3505050565b6001600160a01b03831660009081526001602052604081208054839290611935908490611fc5565b90915550506001600160a01b038216600090815260016020526040812080548392906119629084906120a8565b92505081905550816001600160a01b0316836001600160a01b03167f45d0465cda3936ccc7ee223b12be71e3f5da003b041626b6faf29ad2c62eb9ae8360405161190091815260200190565b806000808282546119bf91906120a8565b90915550506001600160a01b038216600090815260016020526040812080548392906119ec9084906120a8565b90915550506040518181526001600160a01b038316906000907f45d0465cda3936ccc7ee223b12be71e3f5da003b041626b6faf29ad2c62eb9ae906020015b60405180910390a35050565b600080600660009054906101000a90046001600160a01b03166001600160a01b031663017e7e586040518163ffffffff1660e01b8152600401602060405180830381865afa158015611a8d573d6000803e3d6000fd5b505050506040513d601f19601f82011682018060405250810190611ab191906120bb565b600c546001600160a01b038216158015945091925090611b62578015611b5d576000611aec610c786001600160701b03808816908916611fd8565b90506000611af983611b76565b905080821115611b5a576000611b0f8284611fc5565b600054611b1c9190611fd8565b9050600082611b2c856005611fd8565b611b3691906120a8565b90506000611b448284612005565b90508015611b5657611b5687826119ae565b5050505b50505b611b6e565b8015611b6e576000600c555b505092915050565b60006003821115611bd75750806000611b90600283612005565b611b9b9060016120a8565b90505b81811015611bd157905080600281611bb68186612005565b611bc091906120a8565b611bca9190612005565b9050611b9e565b50919050565b8115611be1575060015b919050565b6000818310611bf55781611bf7565b825b9392505050565b6001600160a01b038216600090815260016020526040902054611c22908290611fc5565b6001600160a01b03831660009081526001602052604081209190915580548291908190611c50908490611fc5565b90915550506040518181526000906001600160a01b038416907f45d0465cda3936ccc7ee223b12be71e3f5da003b041626b6faf29ad2c62eb9ae90602001611a2b565b6001600160a01b0383811660008181526002602090815260408083209487168084529482529182902085905590518481527f8c5be1e5ebec7d5bd14f71427d1e84f3dd0314c0f7b2291e5b200ac8c7c3b9259101611900565b60006109b4600160701b6001600160701b0384166120d8565b6000611bf76001600160701b0383168461210a565b6001600160a01b0381168114610aff57600080fd5b600080600080600060808688031215611d4757600080fd5b85359450602086013593506040860135611d6081611d1a565b9250606086013567ffffffffffffffff80821115611d7d57600080fd5b818801915088601f830112611d9157600080fd5b813581811115611da057600080fd5b896020828501011115611db257600080fd5b9699959850939650602001949392505050565b60005b83811015611de0578181015183820152602001611dc8565b50506000910152565b6020815260008251806020840152611e08816040850160208701611dc5565b601f01601f19169190910160400192915050565b60008060408385031215611e2f57600080fd5b8235611e3a81611d1a565b946020939093013593505050565b600080600060608486031215611e5d57600080fd5b8335611e6881611d1a565b92506020840135611e7881611d1a565b929592945050506040919091013590565b60008060408385031215611e9c57600080fd5b8235611ea781611d1a565b91506020830135611eb781611d1a565b809150509250929050565b600060208284031215611ed457600080fd5b5035919050565b600060208284031215611eed57600080fd5b8135611bf781611d1a565b600080600080600080600060e0888a031215611f1357600080fd5b8735611f1e81611d1a565b96506020880135611f2e81611d1a565b95506040880135945060608801359350608088013560ff81168114611f5257600080fd5b9699959850939692959460a0840135945060c09093013592915050565b6020808252600d908201526c11195e158c4e881313d0d2d151609a1b604082015260600190565b600060208284031215611fa857600080fd5b5051919050565b634e487b7160e01b600052601160045260246000fd5b818103818111156109b4576109b4611faf565b80820281158282048414176109b4576109b4611faf565b634e487b7160e01b600052601260045260246000fd5b60008261201457612014611fef565b500490565b60006001820161202b5761202b611faf565b5060010190565b60008251612044818460208701611dc5565b9190910192915050565b60006020828403121561206057600080fd5b81518015158114611bf757600080fd5b60008261207f5761207f611fef565b500690565b63ffffffff8281168282160390808211156120a1576120a1611faf565b5092915050565b808201808211156109b4576109b4611faf565b6000602082840312156120cd57600080fd5b8151611bf781611d1a565b6001600160e01b0382811682821681810283169291811582850482141761210157612101611faf565b50505092915050565b60006001600160e01b038381168061212457612124611fef565b9216919091049291505056fea2646970667358221220d5c2106527160ad20199eedbe2be13be5d6254824a49e46b7c071f21eedb271f64736f6c63430008120033","opcodes":"PUSH1 0x80 PUSH1 0x40 MSTORE PUSH1 0x1 PUSH1 0xD SSTORE CALLVALUE DUP1 ISZERO PUSH2 0x15 JUMPI PUSH1 0x0 DUP1 REVERT JUMPDEST POP PUSH1 0x3 DUP1 SLOAD PUSH1 0x1 PUSH1 0x1 PUSH1 0xA0 SHL SUB NOT AND CALLER OR SWAP1 SSTORE PUSH1 0x40 DUP1 MLOAD DUP1 DUP3 ADD DUP3 MSTORE PUSH1 0x6 DUP2 MSTORE PUSH6 0x444558205631 PUSH1 0xD0 SHL PUSH1 0x20 SWAP2 DUP3 ADD MSTORE DUP2 MLOAD DUP1 DUP4 ADD DUP4 MSTORE PUSH1 0x1 DUP2 MSTORE PUSH1 0x31 PUSH1 0xF8 SHL SWAP1 DUP3 ADD MSTORE DUP2 MLOAD PUSH32 0x8B73C3C69BB8FE3D512ECC4CF759CC79239F7B179B0FFACAA9A75D522B39400F SWAP2 DUP2 ADD SWAP2 SWAP1 SWAP2 MSTORE PUSH32 0x763EF677F244741A13E3FB4CBA28FBCD1FE43592D1E8A4E327E45635F621C57C SWAP2 DUP2 ADD SWAP2 SWAP1 SWAP2 MSTORE PUSH32 0xC89EFDAA54C0F20C7ADF612882DF0950F5A951637E0307CDCB4C672F298B8BC6 PUSH1 0x60 DUP3 ADD MSTORE CHAINID PUSH1 0x80 DUP3 ADD DUP2 SWAP1 MSTORE ADDRESS PUSH1 0xA0 DUP4 ADD MSTORE SWAP1 PUSH1 0xC0 ADD PUSH1 0x40 DUP1 MLOAD PUSH1 0x1F NOT DUP2 DUP5 SUB ADD DUP2 MSTORE SWAP2 SWAP1 MSTORE DUP1 MLOAD PUSH1 0x20 SWAP1 SWAP2 ADD KECCAK256 PUSH1 0x4 SSTORE POP PUSH1 0x6 DUP1 SLOAD PUSH1 0x1 PUSH1 0x1 PUSH1 0xA0 SHL SUB NOT AND CALLER OR SWAP1 SSTORE PUSH2 0x2166 DUP1 PUSH2 0x120 PUSH1 0x0 CODECOPY PUSH1 0x0 RETURN INVALID PUSH1 0x80 PUSH1 0x40 MSTORE CALLVALUE DUP1 ISZERO PUSH2 0x10 JUMPI PUSH1 0x0 DUP1 REVERT JUMPDEST POP PUSH1 0x4 CALLDATASIZE LT PUSH2 0x1CF JUMPI PUSH1 0x0 CALLDATALOAD PUSH1 0xE0 SHR DUP1 PUSH4 0x6A627842 GT PUSH2 0x104 JUMPI DUP1 PUSH4 0xBA9A7A56 GT PUSH2 0xA2 JUMPI DUP1 PUSH4 0xD505ACCF GT PUSH2 0x71 JUMPI DUP1 PUSH4 0xD505ACCF EQ PUSH2 0x450 JUMPI DUP1 PUSH4 0xDD62ED3E EQ PUSH2 0x463 JUMPI DUP1 PUSH4 0xE7663079 EQ PUSH2 0x48E JUMPI DUP1 PUSH4 0xFFF6CAE9 EQ PUSH2 0x4A1 JUMPI PUSH1 0x0 DUP1 REVERT JUMPDEST DUP1 PUSH4 0xBA9A7A56 EQ PUSH2 0x40E JUMPI DUP1 PUSH4 0xBC25CF77 EQ PUSH2 0x417 JUMPI DUP1 PUSH4 0xC45A0155 EQ PUSH2 0x42A JUMPI DUP1 PUSH4 0xD21220A7 EQ PUSH2 0x43D JUMPI PUSH1 0x0 DUP1 REVERT JUMPDEST DUP1 PUSH4 0x7ECEBE00 GT PUSH2 0xDE JUMPI DUP1 PUSH4 0x7ECEBE00 EQ PUSH2 0x38E JUMPI DUP1 PUSH4 0x89AFCB44 EQ PUSH2 0x3AE JUMPI DUP1 PUSH4 0x95D89B41 EQ PUSH2 0x3D6 JUMPI DUP1 PUSH4 0xA9059CBB EQ PUSH2 0x3FB JUMPI PUSH1 0x0 DUP1 REVERT JUMPDEST DUP1 PUSH4 0x6A627842 EQ PUSH2 0x352 JUMPI DUP1 PUSH4 0x70A08231 EQ PUSH2 0x365 JUMPI DUP1 PUSH4 0x7464FC3D EQ PUSH2 0x385 JUMPI PUSH1 0x0 DUP1 REVERT JUMPDEST DUP1 PUSH4 0x30ADF81F GT PUSH2 0x171 JUMPI DUP1 PUSH4 0x485CC955 GT PUSH2 0x14B JUMPI DUP1 PUSH4 0x485CC955 EQ PUSH2 0x31A JUMPI DUP1 PUSH4 0x5909C0D5 EQ PUSH2 0x32D JUMPI DUP1 PUSH4 0x5A3D5493 EQ PUSH2 0x336 JUMPI DUP1 PUSH4 0x6350B2C2 EQ PUSH2 0x33F JUMPI PUSH1 0x0 DUP1 REVERT JUMPDEST DUP1 PUSH4 0x30ADF81F EQ PUSH2 0x2D0 JUMPI DUP1 PUSH4 0x313CE567 EQ PUSH2 0x2F7 JUMPI DUP1 PUSH4 0x3644E515 EQ PUSH2 0x311 JUMPI PUSH1 0x0 DUP1 REVERT JUMPDEST DUP1 PUSH4 0x95EA7B3 GT PUSH2 0x1AD JUMPI DUP1 PUSH4 0x95EA7B3 EQ PUSH2 0x258 JUMPI DUP1 PUSH4 0xDFE1681 EQ PUSH2 0x27B JUMPI DUP1 PUSH4 0x18160DDD EQ PUSH2 0x2A6 JUMPI DUP1 PUSH4 0x23B872DD EQ PUSH2 0x2BD JUMPI PUSH1 0x0 DUP1 REVERT JUMPDEST DUP1 PUSH4 0x22C0D9F EQ PUSH2 0x1D4 JUMPI DUP1 PUSH4 0x6FDDE03 EQ PUSH2 0x1E9 JUMPI DUP1 PUSH4 0x902F1AC EQ PUSH2 0x224 JUMPI JUMPDEST PUSH1 0x0 DUP1 REVERT JUMPDEST PUSH2 0x1E7 PUSH2 0x1E2 CALLDATASIZE PUSH1 0x4 PUSH2 0x1D2F JUMP JUMPDEST PUSH2 0x4A9 JUMP JUMPDEST STOP JUMPDEST PUSH2 0x20E PUSH1 0x40 MLOAD DUP1 PUSH1 0x40 ADD PUSH1 0x40 MSTORE DUP1 PUSH1 0x6 DUP2 MSTORE PUSH1 0x20 ADD PUSH6 0x444558205631 PUSH1 0xD0 SHL DUP2 MSTORE POP DUP2 JUMP JUMPDEST PUSH1 0x40 MLOAD PUSH2 0x21B SWAP2 SWAP1 PUSH2 0x1DE9 JUMP JUMPDEST PUSH1 0x40 MLOAD DUP1 SWAP2 SUB SWAP1 RETURN JUMPDEST PUSH2 0x22C PUSH2 0x93E JUMP JUMPDEST PUSH1 0x40 DUP1 MLOAD PUSH1 0x1 PUSH1 0x1 PUSH1 0x70 SHL SUB SWAP5 DUP6 AND DUP2 MSTORE SWAP4 SWAP1 SWAP3 AND PUSH1 0x20 DUP5 ADD MSTORE PUSH4 0xFFFFFFFF AND SWAP1 DUP3 ADD MSTORE PUSH1 0x60 ADD PUSH2 0x21B JUMP JUMPDEST PUSH2 0x26B PUSH2 0x266 CALLDATASIZE PUSH1 0x4 PUSH2 0x1E1C JUMP JUMPDEST PUSH2 0x968 JUMP JUMPDEST PUSH1 0x40 MLOAD SWAP1 ISZERO ISZERO DUP2 MSTORE PUSH1 0x20 ADD PUSH2 0x21B JUMP JUMPDEST PUSH1 0x7 SLOAD PUSH2 0x28E SWAP1 PUSH1 0x1 PUSH1 0x1 PUSH1 0xA0 SHL SUB AND DUP2 JUMP JUMPDEST PUSH1 0x40 MLOAD PUSH1 0x1 PUSH1 0x1 PUSH1 0xA0 SHL SUB SWAP1 SWAP2 AND DUP2 MSTORE PUSH1 0x20 ADD PUSH2 0x21B JUMP JUMPDEST PUSH2 0x2AF PUSH1 0x0 SLOAD DUP2 JUMP JUMPDEST PUSH1 0x40 MLOAD SWAP1 DUP2 MSTORE PUSH1 0x20 ADD PUSH2 0x21B JUMP JUMPDEST PUSH2 0x26B PUSH2 0x2CB CALLDATASIZE PUSH1 0x4 PUSH2 0x1E48 JUMP JUMPDEST PUSH2 0x9BA JUMP JUMPDEST PUSH2 0x2AF PUSH32 0x6E71EDAE12B1B97F4D1F60370FEF10105FA2FAAE0126114A169C64845D6126C9 DUP2 JUMP JUMPDEST PUSH2 0x2FF PUSH1 0x12 DUP2 JUMP JUMPDEST PUSH1 0x40 MLOAD PUSH1 0xFF SWAP1 SWAP2 AND DUP2 MSTORE PUSH1 0x20 ADD PUSH2 0x21B JUMP JUMPDEST PUSH2 0x2AF PUSH1 0x4 SLOAD DUP2 JUMP JUMPDEST PUSH2 0x1E7 PUSH2 0x328 CALLDATASIZE PUSH1 0x4 PUSH2 0x1E89 JUMP JUMPDEST PUSH2 0xA34 JUMP JUMPDEST PUSH2 0x2AF PUSH1 0xA SLOAD DUP2 JUMP JUMPDEST PUSH2 0x2AF PUSH1 0xB SLOAD DUP2 JUMP JUMPDEST PUSH2 0x1E7 PUSH2 0x34D CALLDATASIZE PUSH1 0x4 PUSH2 0x1EC2 JUMP JUMPDEST PUSH2 0xAAF JUMP JUMPDEST PUSH2 0x2AF PUSH2 0x360 CALLDATASIZE PUSH1 0x4 PUSH2 0x1EDB JUMP JUMPDEST PUSH2 0xB02 JUMP JUMPDEST PUSH2 0x2AF PUSH2 0x373 CALLDATASIZE PUSH1 0x4 PUSH2 0x1EDB JUMP JUMPDEST PUSH1 0x1 PUSH1 0x20 MSTORE PUSH1 0x0 SWAP1 DUP2 MSTORE PUSH1 0x40 SWAP1 KECCAK256 SLOAD DUP2 JUMP JUMPDEST PUSH2 0x2AF PUSH1 0xC SLOAD DUP2 JUMP JUMPDEST PUSH2 0x2AF PUSH2 0x39C CALLDATASIZE PUSH1 0x4 PUSH2 0x1EDB JUMP JUMPDEST PUSH1 0x5 PUSH1 0x20 MSTORE PUSH1 0x0 SWAP1 DUP2 MSTORE PUSH1 0x40 SWAP1 KECCAK256 SLOAD DUP2 JUMP JUMPDEST PUSH2 0x3C1 PUSH2 0x3BC CALLDATASIZE PUSH1 0x4 PUSH2 0x1EDB JUMP JUMPDEST PUSH2 0xDCB JUMP JUMPDEST PUSH1 0x40 DUP1 MLOAD SWAP3 DUP4 MSTORE PUSH1 0x20 DUP4 ADD SWAP2 SWAP1 SWAP2 MSTORE ADD PUSH2 0x21B JUMP JUMPDEST PUSH2 0x20E PUSH1 0x40 MLOAD DUP1 PUSH1 0x40 ADD PUSH1 0x40 MSTORE DUP1 PUSH1 0x6 DUP2 MSTORE PUSH1 0x20 ADD PUSH6 0x425258205631 PUSH1 0xD0 SHL DUP2 MSTORE POP DUP2 JUMP JUMPDEST PUSH2 0x26B PUSH2 0x409 CALLDATASIZE PUSH1 0x4 PUSH2 0x1E1C JUMP JUMPDEST PUSH2 0x112B JUMP JUMPDEST PUSH2 0x2AF PUSH2 0x3E8 DUP2 JUMP JUMPDEST PUSH2 0x1E7 PUSH2 0x425 CALLDATASIZE PUSH1 0x4 PUSH2 0x1EDB JUMP JUMPDEST PUSH2 0x1138 JUMP JUMPDEST PUSH1 0x6 SLOAD PUSH2 0x28E SWAP1 PUSH1 0x1 PUSH1 0x1 PUSH1 0xA0 SHL SUB AND DUP2 JUMP JUMPDEST PUSH1 0x8 SLOAD PUSH2 0x28E SWAP1 PUSH1 0x1 PUSH1 0x1 PUSH1 0xA0 SHL SUB AND DUP2 JUMP JUMPDEST PUSH2 0x1E7 PUSH2 0x45E CALLDATASIZE PUSH1 0x4 PUSH2 0x1EF8 JUMP JUMPDEST PUSH2 0x124B JUMP JUMPDEST PUSH2 0x2AF PUSH2 0x471 CALLDATASIZE PUSH1 0x4 PUSH2 0x1E89 JUMP JUMPDEST PUSH1 0x2 PUSH1 0x20 SWAP1 DUP2 MSTORE PUSH1 0x0 SWAP3 DUP4 MSTORE PUSH1 0x40 DUP1 DUP5 KECCAK256 SWAP1 SWAP2 MSTORE SWAP1 DUP3 MSTORE SWAP1 KECCAK256 SLOAD DUP2 JUMP JUMPDEST PUSH1 0x3 SLOAD PUSH2 0x28E SWAP1 PUSH1 0x1 PUSH1 0x1 PUSH1 0xA0 SHL SUB AND DUP2 JUMP JUMPDEST PUSH2 0x1E7 PUSH2 0x145B JUMP JUMPDEST PUSH1 0xD SLOAD PUSH1 0x1 EQ PUSH2 0x4D4 JUMPI PUSH1 0x40 MLOAD PUSH3 0x461BCD PUSH1 0xE5 SHL DUP2 MSTORE PUSH1 0x4 ADD PUSH2 0x4CB SWAP1 PUSH2 0x1F6F JUMP JUMPDEST PUSH1 0x40 MLOAD DUP1 SWAP2 SUB SWAP1 REVERT JUMPDEST PUSH1 0x0 PUSH1 0xD SSTORE DUP5 ISZERO ISZERO DUP1 PUSH2 0x4E7 JUMPI POP PUSH1 0x0 DUP5 GT JUMPDEST PUSH2 0x53D JUMPI PUSH1 0x40 MLOAD PUSH3 0x461BCD PUSH1 0xE5 SHL DUP2 MSTORE PUSH1 0x20 PUSH1 0x4 DUP3 ADD MSTORE PUSH1 0x21 PUSH1 0x24 DUP3 ADD MSTORE PUSH32 0x44657856313A20494E53554646494349454E545F4F55545055545F414D4F554E PUSH1 0x44 DUP3 ADD MSTORE PUSH1 0x15 PUSH1 0xFA SHL PUSH1 0x64 DUP3 ADD MSTORE PUSH1 0x84 ADD PUSH2 0x4CB JUMP JUMPDEST PUSH1 0x0 DUP1 PUSH2 0x548 PUSH2 0x93E JUMP JUMPDEST POP SWAP2 POP SWAP2 POP DUP2 PUSH1 0x1 PUSH1 0x1 PUSH1 0x70 SHL SUB AND DUP8 LT DUP1 ISZERO PUSH2 0x56D JUMPI POP DUP1 PUSH1 0x1 PUSH1 0x1 PUSH1 0x70 SHL SUB AND DUP7 LT JUMPDEST PUSH2 0x5B9 JUMPI PUSH1 0x40 MLOAD PUSH3 0x461BCD PUSH1 0xE5 SHL DUP2 MSTORE PUSH1 0x20 PUSH1 0x4 DUP3 ADD MSTORE PUSH1 0x1D PUSH1 0x24 DUP3 ADD MSTORE PUSH32 0x44657856313A20494E53554646494349454E545F4C4951554944495459000000 PUSH1 0x44 DUP3 ADD MSTORE PUSH1 0x64 ADD PUSH2 0x4CB JUMP JUMPDEST PUSH1 0x7 SLOAD PUSH1 0x8 SLOAD PUSH1 0x0 SWAP2 DUP3 SWAP2 PUSH1 0x1 PUSH1 0x1 PUSH1 0xA0 SHL SUB SWAP2 DUP3 AND SWAP2 SWAP1 DUP2 AND SWAP1 DUP10 AND DUP3 EQ DUP1 ISZERO SWAP1 PUSH2 0x5F7 JUMPI POP DUP1 PUSH1 0x1 PUSH1 0x1 PUSH1 0xA0 SHL SUB AND DUP10 PUSH1 0x1 PUSH1 0x1 PUSH1 0xA0 SHL SUB AND EQ ISZERO JUMPDEST PUSH2 0x63B JUMPI PUSH1 0x40 MLOAD PUSH3 0x461BCD PUSH1 0xE5 SHL DUP2 MSTORE PUSH1 0x20 PUSH1 0x4 DUP3 ADD MSTORE PUSH1 0x15 PUSH1 0x24 DUP3 ADD MSTORE PUSH21 0x556E697377617056323A20494E56414C49445F544F PUSH1 0x58 SHL PUSH1 0x44 DUP3 ADD MSTORE PUSH1 0x64 ADD PUSH2 0x4CB JUMP JUMPDEST DUP11 ISZERO PUSH2 0x64C JUMPI PUSH2 0x64C DUP3 DUP11 DUP14 PUSH2 0x157F JUMP JUMPDEST DUP10 ISZERO PUSH2 0x65D JUMPI PUSH2 0x65D DUP2 DUP11 DUP13 PUSH2 0x157F JUMP JUMPDEST DUP7 ISZERO PUSH2 0x6CE JUMPI PUSH1 0x40 MLOAD PUSH4 0x70A08231 PUSH1 0xE0 SHL DUP2 MSTORE ADDRESS PUSH1 0x4 DUP3 ADD MSTORE PUSH1 0x1 PUSH1 0x1 PUSH1 0xA0 SHL SUB DUP4 AND SWAP1 PUSH4 0x70A08231 SWAP1 PUSH1 0x24 ADD PUSH1 0x20 PUSH1 0x40 MLOAD DUP1 DUP4 SUB DUP2 DUP7 GAS STATICCALL ISZERO DUP1 ISZERO PUSH2 0x6A7 JUMPI RETURNDATASIZE PUSH1 0x0 DUP1 RETURNDATACOPY RETURNDATASIZE PUSH1 0x0 REVERT JUMPDEST POP POP POP POP PUSH1 0x40 MLOAD RETURNDATASIZE PUSH1 0x1F NOT PUSH1 0x1F DUP3 ADD AND DUP3 ADD DUP1 PUSH1 0x40 MSTORE POP DUP2 ADD SWAP1 PUSH2 0x6CB SWAP2 SWAP1 PUSH2 0x1F96 JUMP JUMPDEST SWAP4 POP JUMPDEST PUSH1 0x40 MLOAD PUSH4 0x70A08231 PUSH1 0xE0 SHL DUP2 MSTORE ADDRESS PUSH1 0x4 DUP3 ADD MSTORE PUSH1 0x1 PUSH1 0x1 PUSH1 0xA0 SHL SUB DUP3 AND SWAP1 PUSH4 0x70A08231 SWAP1 PUSH1 0x24 ADD PUSH1 0x20 PUSH1 0x40 MLOAD DUP1 DUP4 SUB DUP2 DUP7 GAS STATICCALL ISZERO DUP1 ISZERO PUSH2 0x712 JUMPI RETURNDATASIZE PUSH1 0x0 DUP1 RETURNDATACOPY RETURNDATASIZE PUSH1 0x0 REVERT JUMPDEST POP POP POP POP PUSH1 0x40 MLOAD RETURNDATASIZE PUSH1 0x1F NOT PUSH1 0x1F DUP3 ADD AND DUP3 ADD DUP1 PUSH1 0x40 MSTORE POP DUP2 ADD SWAP1 PUSH2 0x736 SWAP2 SWAP1 PUSH2 0x1F96 JUMP JUMPDEST SWAP3 POP POP POP PUSH1 0x0 DUP10 DUP6 PUSH1 0x1 PUSH1 0x1 PUSH1 0x70 SHL SUB AND PUSH2 0x751 SWAP2 SWAP1 PUSH2 0x1FC5 JUMP JUMPDEST DUP4 GT PUSH2 0x75E JUMPI PUSH1 0x0 PUSH2 0x77B JUMP JUMPDEST PUSH2 0x771 DUP11 PUSH1 0x1 PUSH1 0x1 PUSH1 0x70 SHL SUB DUP8 AND PUSH2 0x1FC5 JUMP JUMPDEST PUSH2 0x77B SWAP1 DUP5 PUSH2 0x1FC5 JUMP JUMPDEST SWAP1 POP PUSH1 0x0 PUSH2 0x792 DUP11 PUSH1 0x1 PUSH1 0x1 PUSH1 0x70 SHL SUB DUP8 AND PUSH2 0x1FC5 JUMP JUMPDEST DUP4 GT PUSH2 0x79F JUMPI PUSH1 0x0 PUSH2 0x7BC JUMP JUMPDEST PUSH2 0x7B2 DUP11 PUSH1 0x1 PUSH1 0x1 PUSH1 0x70 SHL SUB DUP8 AND PUSH2 0x1FC5 JUMP JUMPDEST PUSH2 0x7BC SWAP1 DUP5 PUSH2 0x1FC5 JUMP JUMPDEST SWAP1 POP PUSH1 0x0 DUP3 GT DUP1 PUSH2 0x7CD JUMPI POP PUSH1 0x0 DUP2 GT JUMPDEST PUSH2 0x819 JUMPI PUSH1 0x40 MLOAD PUSH3 0x461BCD PUSH1 0xE5 SHL DUP2 MSTORE PUSH1 0x20 PUSH1 0x4 DUP3 ADD DUP2 SWAP1 MSTORE PUSH1 0x24 DUP3 ADD MSTORE PUSH32 0x44657856313A20494E53554646494349454E545F494E5055545F414D4F554E54 PUSH1 0x44 DUP3 ADD MSTORE PUSH1 0x64 ADD PUSH2 0x4CB JUMP JUMPDEST PUSH1 0x0 PUSH2 0x826 DUP4 PUSH1 0x3 PUSH2 0x1FD8 JUMP JUMPDEST PUSH2 0x832 DUP7 PUSH2 0x3E8 PUSH2 0x1FD8 JUMP JUMPDEST PUSH2 0x83C SWAP2 SWAP1 PUSH2 0x1FC5 JUMP JUMPDEST SWAP1 POP PUSH1 0x0 PUSH2 0x84B DUP4 PUSH1 0x3 PUSH2 0x1FD8 JUMP JUMPDEST PUSH2 0x857 DUP7 PUSH2 0x3E8 PUSH2 0x1FD8 JUMP JUMPDEST PUSH2 0x861 SWAP2 SWAP1 PUSH2 0x1FC5 JUMP JUMPDEST SWAP1 POP PUSH2 0x879 PUSH1 0x1 PUSH1 0x1 PUSH1 0x70 SHL SUB DUP1 DUP10 AND SWAP1 DUP11 AND PUSH2 0x1FD8 JUMP JUMPDEST PUSH2 0x886 SWAP1 PUSH3 0xF4240 PUSH2 0x1FD8 JUMP JUMPDEST PUSH2 0x890 DUP3 DUP5 PUSH2 0x1FD8 JUMP JUMPDEST LT ISZERO PUSH2 0x8C9 JUMPI PUSH1 0x40 MLOAD PUSH3 0x461BCD PUSH1 0xE5 SHL DUP2 MSTORE PUSH1 0x20 PUSH1 0x4 DUP3 ADD MSTORE PUSH1 0x8 PUSH1 0x24 DUP3 ADD MSTORE PUSH8 0x44657856313A204B PUSH1 0xC0 SHL PUSH1 0x44 DUP3 ADD MSTORE PUSH1 0x64 ADD PUSH2 0x4CB JUMP JUMPDEST POP POP PUSH2 0x8D7 DUP5 DUP5 DUP9 DUP9 PUSH2 0x16C3 JUMP JUMPDEST PUSH1 0x40 DUP1 MLOAD DUP4 DUP2 MSTORE PUSH1 0x20 DUP2 ADD DUP4 SWAP1 MSTORE SWAP1 DUP2 ADD DUP13 SWAP1 MSTORE PUSH1 0x60 DUP2 ADD DUP12 SWAP1 MSTORE PUSH1 0x1 PUSH1 0x1 PUSH1 0xA0 SHL SUB DUP11 AND SWAP1 CALLER SWAP1 PUSH32 0xD78AD95FA46C994B6551D0DA85FC275FE613CE37657FB8D5E3D130840159D822 SWAP1 PUSH1 0x80 ADD PUSH1 0x40 MLOAD DUP1 SWAP2 SUB SWAP1 LOG3 POP POP PUSH1 0x1 PUSH1 0xD SSTORE POP POP POP POP POP POP POP POP POP JUMP JUMPDEST PUSH1 0x9 SLOAD PUSH1 0x1 PUSH1 0x1 PUSH1 0x70 SHL SUB DUP1 DUP3 AND SWAP3 PUSH1 0x1 PUSH1 0x70 SHL DUP4 DIV SWAP1 SWAP2 AND SWAP2 PUSH1 0x1 PUSH1 0xE0 SHL SWAP1 DIV PUSH4 0xFFFFFFFF AND SWAP1 JUMP JUMPDEST PUSH1 0x0 DUP1 DUP3 GT PUSH2 0x9A5 JUMPI PUSH1 0x40 MLOAD PUSH3 0x461BCD PUSH1 0xE5 SHL DUP2 MSTORE PUSH1 0x20 PUSH1 0x4 DUP3 ADD MSTORE PUSH1 0x9 PUSH1 0x24 DUP3 ADD MSTORE PUSH9 0x4D696E696D756D2031 PUSH1 0xB8 SHL PUSH1 0x44 DUP3 ADD MSTORE PUSH1 0x64 ADD PUSH2 0x4CB JUMP JUMPDEST PUSH2 0x9B0 CALLER DUP5 DUP5 PUSH2 0x18AB JUMP JUMPDEST POP PUSH1 0x1 JUMPDEST SWAP3 SWAP2 POP POP JUMP JUMPDEST PUSH1 0x1 PUSH1 0x1 PUSH1 0xA0 SHL SUB DUP4 AND PUSH1 0x0 SWAP1 DUP2 MSTORE PUSH1 0x2 PUSH1 0x20 SWAP1 DUP2 MSTORE PUSH1 0x40 DUP1 DUP4 KECCAK256 CALLER DUP5 MSTORE SWAP1 SWAP2 MSTORE DUP2 KECCAK256 SLOAD PUSH1 0x0 NOT EQ PUSH2 0xA1F JUMPI PUSH1 0x1 PUSH1 0x1 PUSH1 0xA0 SHL SUB DUP5 AND PUSH1 0x0 SWAP1 DUP2 MSTORE PUSH1 0x2 PUSH1 0x20 SWAP1 DUP2 MSTORE PUSH1 0x40 DUP1 DUP4 KECCAK256 CALLER DUP5 MSTORE SWAP1 SWAP2 MSTORE DUP2 KECCAK256 DUP1 SLOAD DUP5 SWAP3 SWAP1 PUSH2 0xA19 SWAP1 DUP5 SWAP1 PUSH2 0x1FC5 JUMP JUMPDEST SWAP1 SWAP2 SSTORE POP POP JUMPDEST PUSH2 0xA2A DUP5 DUP5 DUP5 PUSH2 0x190D JUMP JUMPDEST POP PUSH1 0x1 SWAP4 SWAP3 POP POP POP JUMP JUMPDEST PUSH1 0x6 SLOAD PUSH1 0x1 PUSH1 0x1 PUSH1 0xA0 SHL SUB AND CALLER EQ PUSH2 0xA81 JUMPI PUSH1 0x40 MLOAD PUSH3 0x461BCD PUSH1 0xE5 SHL DUP2 MSTORE PUSH1 0x20 PUSH1 0x4 DUP3 ADD MSTORE PUSH1 0x10 PUSH1 0x24 DUP3 ADD MSTORE PUSH16 0x2232BC2B189D102327A92124A22222A7 PUSH1 0x81 SHL PUSH1 0x44 DUP3 ADD MSTORE PUSH1 0x64 ADD PUSH2 0x4CB JUMP JUMPDEST PUSH1 0x7 DUP1 SLOAD PUSH1 0x1 PUSH1 0x1 PUSH1 0xA0 SHL SUB SWAP4 DUP5 AND PUSH1 0x1 PUSH1 0x1 PUSH1 0xA0 SHL SUB NOT SWAP2 DUP3 AND OR SWAP1 SWAP2 SSTORE PUSH1 0x8 DUP1 SLOAD SWAP3 SWAP1 SWAP4 AND SWAP2 AND OR SWAP1 SSTORE JUMP JUMPDEST PUSH1 0x3 SLOAD PUSH1 0x1 PUSH1 0x1 PUSH1 0xA0 SHL SUB AND CALLER EQ PUSH2 0xAF5 JUMPI PUSH1 0x40 MLOAD PUSH3 0x461BCD PUSH1 0xE5 SHL DUP2 MSTORE PUSH1 0x20 PUSH1 0x4 DUP3 ADD MSTORE PUSH1 0x9 PUSH1 0x24 DUP3 ADD MSTORE PUSH9 0x2737BA1027BBB732B9 PUSH1 0xB9 SHL PUSH1 0x44 DUP3 ADD MSTORE PUSH1 0x64 ADD PUSH2 0x4CB JUMP JUMPDEST PUSH2 0xAFF CALLER DUP3 PUSH2 0x19AE JUMP JUMPDEST POP JUMP JUMPDEST PUSH1 0x0 PUSH1 0xD SLOAD PUSH1 0x1 EQ PUSH2 0xB26 JUMPI PUSH1 0x40 MLOAD PUSH3 0x461BCD PUSH1 0xE5 SHL DUP2 MSTORE PUSH1 0x4 ADD PUSH2 0x4CB SWAP1 PUSH2 0x1F6F JUMP JUMPDEST PUSH1 0x0 PUSH1 0xD DUP2 SWAP1 SSTORE DUP1 PUSH2 0xB36 PUSH2 0x93E JUMP JUMPDEST POP PUSH1 0x7 SLOAD PUSH1 0x40 MLOAD PUSH4 0x70A08231 PUSH1 0xE0 SHL DUP2 MSTORE ADDRESS PUSH1 0x4 DUP3 ADD MSTORE SWAP3 SWAP5 POP SWAP1 SWAP3 POP PUSH1 0x0 SWAP2 PUSH1 0x1 PUSH1 0x1 PUSH1 0xA0 SHL SUB SWAP1 SWAP2 AND SWAP1 PUSH4 0x70A08231 SWAP1 PUSH1 0x24 ADD PUSH1 0x20 PUSH1 0x40 MLOAD DUP1 DUP4 SUB DUP2 DUP7 GAS STATICCALL ISZERO DUP1 ISZERO PUSH2 0xB88 JUMPI RETURNDATASIZE PUSH1 0x0 DUP1 RETURNDATACOPY RETURNDATASIZE PUSH1 0x0 REVERT JUMPDEST POP POP POP POP PUSH1 0x40 MLOAD RETURNDATASIZE PUSH1 0x1F NOT PUSH1 0x1F DUP3 ADD AND DUP3 ADD DUP1 PUSH1 0x40 MSTORE POP DUP2 ADD SWAP1 PUSH2 0xBAC SWAP2 SWAP1 PUSH2 0x1F96 JUMP JUMPDEST PUSH1 0x8 SLOAD PUSH1 0x40 MLOAD PUSH4 0x70A08231 PUSH1 0xE0 SHL DUP2 MSTORE ADDRESS PUSH1 0x4 DUP3 ADD MSTORE SWAP2 SWAP3 POP PUSH1 0x0 SWAP2 PUSH1 0x1 PUSH1 0x1 PUSH1 0xA0 SHL SUB SWAP1 SWAP2 AND SWAP1 PUSH4 0x70A08231 SWAP1 PUSH1 0x24 ADD PUSH1 0x20 PUSH1 0x40 MLOAD DUP1 DUP4 SUB DUP2 DUP7 GAS STATICCALL ISZERO DUP1 ISZERO PUSH2 0xBFA JUMPI RETURNDATASIZE PUSH1 0x0 DUP1 RETURNDATACOPY RETURNDATASIZE PUSH1 0x0 REVERT JUMPDEST POP POP POP POP PUSH1 0x40 MLOAD RETURNDATASIZE PUSH1 0x1F NOT PUSH1 0x1F DUP3 ADD AND DUP3 ADD DUP1 PUSH1 0x40 MSTORE POP DUP2 ADD SWAP1 PUSH2 0xC1E SWAP2 SWAP1 PUSH2 0x1F96 JUMP JUMPDEST SWAP1 POP PUSH1 0x0 PUSH2 0xC35 PUSH1 0x1 PUSH1 0x1 PUSH1 0x70 SHL SUB DUP7 AND DUP5 PUSH2 0x1FC5 JUMP JUMPDEST SWAP1 POP PUSH1 0x0 PUSH2 0xC4C PUSH1 0x1 PUSH1 0x1 PUSH1 0x70 SHL SUB DUP7 AND DUP5 PUSH2 0x1FC5 JUMP JUMPDEST SWAP1 POP PUSH1 0x0 PUSH2 0xC5A DUP8 DUP8 PUSH2 0x1A37 JUMP JUMPDEST PUSH1 0x0 DUP1 SLOAD SWAP2 SWAP3 POP DUP2 SWAP1 SUB PUSH2 0xC9B JUMPI PUSH2 0x3E8 PUSH2 0xC7D PUSH2 0xC78 DUP6 DUP8 PUSH2 0x1FD8 JUMP JUMPDEST PUSH2 0x1B76 JUMP JUMPDEST PUSH2 0xC87 SWAP2 SWAP1 PUSH2 0x1FC5 JUMP JUMPDEST SWAP9 POP PUSH2 0xC96 PUSH1 0x0 PUSH2 0x3E8 PUSH2 0x19AE JUMP JUMPDEST PUSH2 0xCE2 JUMP JUMPDEST PUSH2 0xCDF PUSH1 0x1 PUSH1 0x1 PUSH1 0x70 SHL SUB DUP10 AND PUSH2 0xCB2 DUP4 DUP8 PUSH2 0x1FD8 JUMP JUMPDEST PUSH2 0xCBC SWAP2 SWAP1 PUSH2 0x2005 JUMP JUMPDEST PUSH1 0x1 PUSH1 0x1 PUSH1 0x70 SHL SUB DUP10 AND PUSH2 0xCD0 DUP5 DUP8 PUSH2 0x1FD8 JUMP JUMPDEST PUSH2 0xCDA SWAP2 SWAP1 PUSH2 0x2005 JUMP JUMPDEST PUSH2 0x1BE6 JUMP JUMPDEST SWAP9 POP JUMPDEST PUSH1 0x0 DUP10 GT PUSH2 0xD3E JUMPI PUSH1 0x40 MLOAD PUSH3 0x461BCD PUSH1 0xE5 SHL DUP2 MSTORE PUSH1 0x20 PUSH1 0x4 DUP3 ADD MSTORE PUSH1 0x24 DUP1 DUP3 ADD MSTORE PUSH32 0x44657856313A20494E53554646494349454E545F4C49515549444954595F4D49 PUSH1 0x44 DUP3 ADD MSTORE PUSH4 0x13951151 PUSH1 0xE2 SHL PUSH1 0x64 DUP3 ADD MSTORE PUSH1 0x84 ADD PUSH2 0x4CB JUMP JUMPDEST PUSH2 0xD48 DUP11 DUP11 PUSH2 0x19AE JUMP JUMPDEST PUSH2 0xD54 DUP7 DUP7 DUP11 DUP11 PUSH2 0x16C3 JUMP JUMPDEST DUP2 ISZERO PUSH2 0xD7D JUMPI PUSH1 0x9 SLOAD PUSH2 0xD79 SWAP1 PUSH1 0x1 PUSH1 0x1 PUSH1 0x70 SHL SUB PUSH1 0x1 PUSH1 0x70 SHL DUP3 DIV DUP2 AND SWAP2 AND PUSH2 0x1FD8 JUMP JUMPDEST PUSH1 0xC SSTORE JUMPDEST PUSH1 0x40 DUP1 MLOAD DUP6 DUP2 MSTORE PUSH1 0x20 DUP2 ADD DUP6 SWAP1 MSTORE CALLER SWAP2 PUSH32 0x4C209B5FC8AD50758F13E2E1088BA56A560DFF690A1C6FEF26394F4C03821C4F SWAP2 ADD PUSH1 0x40 MLOAD DUP1 SWAP2 SUB SWAP1 LOG2 POP POP PUSH1 0x1 PUSH1 0xD SSTORE POP SWAP5 SWAP7 SWAP6 POP POP POP POP POP POP JUMP JUMPDEST PUSH1 0x0 DUP1 PUSH1 0xD SLOAD PUSH1 0x1 EQ PUSH2 0xDF0 JUMPI PUSH1 0x40 MLOAD PUSH3 0x461BCD PUSH1 0xE5 SHL DUP2 MSTORE PUSH1 0x4 ADD PUSH2 0x4CB SWAP1 PUSH2 0x1F6F JUMP JUMPDEST PUSH1 0x0 PUSH1 0xD DUP2 SWAP1 SSTORE DUP1 PUSH2 0xE00 PUSH2 0x93E JUMP JUMPDEST POP PUSH1 0x7 SLOAD PUSH1 0x8 SLOAD PUSH1 0x40 MLOAD PUSH4 0x70A08231 PUSH1 0xE0 SHL DUP2 MSTORE ADDRESS PUSH1 0x4 DUP3 ADD MSTORE SWAP4 SWAP6 POP SWAP2 SWAP4 POP PUSH1 0x1 PUSH1 0x1 PUSH1 0xA0 SHL SUB SWAP1 DUP2 AND SWAP3 SWAP2 AND SWAP1 PUSH1 0x0 SWAP1 DUP4 SWAP1 PUSH4 0x70A08231 SWAP1 PUSH1 0x24 ADD PUSH1 0x20 PUSH1 0x40 MLOAD DUP1 DUP4 SUB DUP2 DUP7 GAS STATICCALL ISZERO DUP1 ISZERO PUSH2 0xE5A JUMPI RETURNDATASIZE PUSH1 0x0 DUP1 RETURNDATACOPY RETURNDATASIZE PUSH1 0x0 REVERT JUMPDEST POP POP POP POP PUSH1 0x40 MLOAD RETURNDATASIZE PUSH1 0x1F NOT PUSH1 0x1F DUP3 ADD AND DUP3 ADD DUP1 PUSH1 0x40 MSTORE POP DUP2 ADD SWAP1 PUSH2 0xE7E SWAP2 SWAP1 PUSH2 0x1F96 JUMP JUMPDEST PUSH1 0x40 MLOAD PUSH4 0x70A08231 PUSH1 0xE0 SHL DUP2 MSTORE ADDRESS PUSH1 0x4 DUP3 ADD MSTORE SWAP1 SWAP2 POP PUSH1 0x0 SWAP1 PUSH1 0x1 PUSH1 0x1 PUSH1 0xA0 SHL SUB DUP5 AND SWAP1 PUSH4 0x70A08231 SWAP1 PUSH1 0x24 ADD PUSH1 0x20 PUSH1 0x40 MLOAD DUP1 DUP4 SUB DUP2 DUP7 GAS STATICCALL ISZERO DUP1 ISZERO PUSH2 0xEC8 JUMPI RETURNDATASIZE PUSH1 0x0 DUP1 RETURNDATACOPY RETURNDATASIZE PUSH1 0x0 REVERT JUMPDEST POP POP POP POP PUSH1 0x40 MLOAD RETURNDATASIZE PUSH1 0x1F NOT PUSH1 0x1F DUP3 ADD AND DUP3 ADD DUP1 PUSH1 0x40 MSTORE POP DUP2 ADD SWAP1 PUSH2 0xEEC SWAP2 SWAP1 PUSH2 0x1F96 JUMP JUMPDEST ADDRESS PUSH1 0x0 SWAP1 DUP2 MSTORE PUSH1 0x1 PUSH1 0x20 MSTORE PUSH1 0x40 DUP2 KECCAK256 SLOAD SWAP2 SWAP3 POP PUSH2 0xF09 DUP9 DUP9 PUSH2 0x1A37 JUMP JUMPDEST PUSH1 0x0 SLOAD SWAP1 SWAP2 POP DUP1 PUSH2 0xF1A DUP7 DUP6 PUSH2 0x1FD8 JUMP JUMPDEST PUSH2 0xF24 SWAP2 SWAP1 PUSH2 0x2005 JUMP JUMPDEST SWAP11 POP DUP1 PUSH2 0xF31 DUP6 DUP6 PUSH2 0x1FD8 JUMP JUMPDEST PUSH2 0xF3B SWAP2 SWAP1 PUSH2 0x2005 JUMP JUMPDEST SWAP10 POP PUSH1 0x0 DUP12 GT DUP1 ISZERO PUSH2 0xF4D JUMPI POP PUSH1 0x0 DUP11 GT JUMPDEST PUSH2 0xFA5 JUMPI PUSH1 0x40 MLOAD PUSH3 0x461BCD PUSH1 0xE5 SHL DUP2 MSTORE PUSH1 0x20 PUSH1 0x4 DUP3 ADD MSTORE PUSH1 0x24 DUP1 DUP3 ADD MSTORE PUSH32 0x44657856313A20494E53554646494349454E545F4C49515549444954595F4255 PUSH1 0x44 DUP3 ADD MSTORE PUSH4 0x14939151 PUSH1 0xE2 SHL PUSH1 0x64 DUP3 ADD MSTORE PUSH1 0x84 ADD PUSH2 0x4CB JUMP JUMPDEST PUSH2 0xFAF ADDRESS DUP5 PUSH2 0x1BFE JUMP JUMPDEST PUSH2 0xFBA DUP8 DUP14 DUP14 PUSH2 0x157F JUMP JUMPDEST PUSH2 0xFC5 DUP7 DUP14 DUP13 PUSH2 0x157F JUMP JUMPDEST PUSH1 0x40 MLOAD PUSH4 0x70A08231 PUSH1 0xE0 SHL DUP2 MSTORE ADDRESS PUSH1 0x4 DUP3 ADD MSTORE PUSH1 0x1 PUSH1 0x1 PUSH1 0xA0 SHL SUB DUP9 AND SWAP1 PUSH4 0x70A08231 SWAP1 PUSH1 0x24 ADD PUSH1 0x20 PUSH1 0x40 MLOAD DUP1 DUP4 SUB DUP2 DUP7 GAS STATICCALL ISZERO DUP1 ISZERO PUSH2 0x1009 JUMPI RETURNDATASIZE PUSH1 0x0 DUP1 RETURNDATACOPY RETURNDATASIZE PUSH1 0x0 REVERT JUMPDEST POP POP POP POP PUSH1 0x40 MLOAD RETURNDATASIZE PUSH1 0x1F NOT PUSH1 0x1F DUP3 ADD AND DUP3 ADD DUP1 PUSH1 0x40 MSTORE POP DUP2 ADD SWAP1 PUSH2 0x102D SWAP2 SWAP1 PUSH2 0x1F96 JUMP JUMPDEST PUSH1 0x40 MLOAD PUSH4 0x70A08231 PUSH1 0xE0 SHL DUP2 MSTORE ADDRESS PUSH1 0x4 DUP3 ADD MSTORE SWAP1 SWAP6 POP PUSH1 0x1 PUSH1 0x1 PUSH1 0xA0 SHL SUB DUP8 AND SWAP1 PUSH4 0x70A08231 SWAP1 PUSH1 0x24 ADD PUSH1 0x20 PUSH1 0x40 MLOAD DUP1 DUP4 SUB DUP2 DUP7 GAS STATICCALL ISZERO DUP1 ISZERO PUSH2 0x1074 JUMPI RETURNDATASIZE PUSH1 0x0 DUP1 RETURNDATACOPY RETURNDATASIZE PUSH1 0x0 REVERT JUMPDEST POP POP POP POP PUSH1 0x40 MLOAD RETURNDATASIZE PUSH1 0x1F NOT PUSH1 0x1F DUP3 ADD AND DUP3 ADD DUP1 PUSH1 0x40 MSTORE POP DUP2 ADD SWAP1 PUSH2 0x1098 SWAP2 SWAP1 PUSH2 0x1F96 JUMP JUMPDEST SWAP4 POP PUSH2 0x10A6 DUP6 DUP6 DUP12 DUP12 PUSH2 0x16C3 JUMP JUMPDEST DUP2 ISZERO PUSH2 0x10CF JUMPI PUSH1 0x9 SLOAD PUSH2 0x10CB SWAP1 PUSH1 0x1 PUSH1 0x1 PUSH1 0x70 SHL SUB PUSH1 0x1 PUSH1 0x70 SHL DUP3 DIV DUP2 AND SWAP2 AND PUSH2 0x1FD8 JUMP JUMPDEST PUSH1 0xC SSTORE JUMPDEST PUSH1 0x40 DUP1 MLOAD DUP13 DUP2 MSTORE PUSH1 0x20 DUP2 ADD DUP13 SWAP1 MSTORE PUSH1 0x1 PUSH1 0x1 PUSH1 0xA0 SHL SUB DUP15 AND SWAP2 CALLER SWAP2 PUSH32 0xDCCD412F0B1252819CB1FD330B93224CA42612892BB3F4F789976E6D81936496 SWAP2 ADD PUSH1 0x40 MLOAD DUP1 SWAP2 SUB SWAP1 LOG3 POP POP POP POP POP POP POP POP POP PUSH1 0x1 PUSH1 0xD DUP2 SWAP1 SSTORE POP SWAP2 POP SWAP2 JUMP JUMPDEST PUSH1 0x0 PUSH2 0x9B0 CALLER DUP5 DUP5 PUSH2 0x190D JUMP JUMPDEST PUSH1 0xD SLOAD PUSH1 0x1 EQ PUSH2 0x115A JUMPI PUSH1 0x40 MLOAD PUSH3 0x461BCD PUSH1 0xE5 SHL DUP2 MSTORE PUSH1 0x4 ADD PUSH2 0x4CB SWAP1 PUSH2 0x1F6F JUMP JUMPDEST PUSH1 0x0 PUSH1 0xD SSTORE PUSH1 0x7 SLOAD PUSH1 0x8 SLOAD PUSH1 0x9 SLOAD PUSH1 0x40 MLOAD PUSH4 0x70A08231 PUSH1 0xE0 SHL DUP2 MSTORE ADDRESS PUSH1 0x4 DUP3 ADD MSTORE PUSH1 0x1 PUSH1 0x1 PUSH1 0xA0 SHL SUB SWAP4 DUP5 AND SWAP4 SWAP1 SWAP3 AND SWAP2 PUSH2 0x11F9 SWAP2 DUP5 SWAP2 DUP7 SWAP2 PUSH1 0x1 PUSH1 0x1 PUSH1 0x70 SHL SUB AND SWAP1 DUP4 SWAP1 PUSH4 0x70A08231 SWAP1 PUSH1 0x24 ADD JUMPDEST PUSH1 0x20 PUSH1 0x40 MLOAD DUP1 DUP4 SUB DUP2 DUP7 GAS STATICCALL ISZERO DUP1 ISZERO PUSH2 0x11C6 JUMPI RETURNDATASIZE PUSH1 0x0 DUP1 RETURNDATACOPY RETURNDATASIZE PUSH1 0x0 REVERT JUMPDEST POP POP POP POP PUSH1 0x40 MLOAD RETURNDATASIZE PUSH1 0x1F NOT PUSH1 0x1F DUP3 ADD AND DUP3 ADD DUP1 PUSH1 0x40 MSTORE POP DUP2 ADD SWAP1 PUSH2 0x11EA SWAP2 SWAP1 PUSH2 0x1F96 JUMP JUMPDEST PUSH2 0x11F4 SWAP2 SWAP1 PUSH2 0x1FC5 JUMP JUMPDEST PUSH2 0x157F JUMP JUMPDEST PUSH1 0x9 SLOAD PUSH1 0x40 MLOAD PUSH4 0x70A08231 PUSH1 0xE0 SHL DUP2 MSTORE ADDRESS PUSH1 0x4 DUP3 ADD MSTORE PUSH2 0x1241 SWAP2 DUP4 SWAP2 DUP7 SWAP2 PUSH1 0x1 PUSH1 0x70 SHL SWAP1 DIV PUSH1 0x1 PUSH1 0x1 PUSH1 0x70 SHL SUB AND SWAP1 PUSH1 0x1 PUSH1 0x1 PUSH1 0xA0 SHL SUB DUP5 AND SWAP1 PUSH4 0x70A08231 SWAP1 PUSH1 0x24 ADD PUSH2 0x11A9 JUMP JUMPDEST POP POP PUSH1 0x1 PUSH1 0xD SSTORE POP JUMP JUMPDEST TIMESTAMP DUP5 LT ISZERO PUSH2 0x128C JUMPI PUSH1 0x40 MLOAD PUSH3 0x461BCD PUSH1 0xE5 SHL DUP2 MSTORE PUSH1 0x20 PUSH1 0x4 DUP3 ADD MSTORE PUSH1 0xE PUSH1 0x24 DUP3 ADD MSTORE PUSH14 0x11195E158C4E8811561412549151 PUSH1 0x92 SHL PUSH1 0x44 DUP3 ADD MSTORE PUSH1 0x64 ADD PUSH2 0x4CB JUMP JUMPDEST PUSH1 0x4 SLOAD PUSH1 0x1 PUSH1 0x1 PUSH1 0xA0 SHL SUB DUP9 AND PUSH1 0x0 SWAP1 DUP2 MSTORE PUSH1 0x5 PUSH1 0x20 MSTORE PUSH1 0x40 DUP2 KECCAK256 DUP1 SLOAD SWAP2 SWAP3 SWAP2 PUSH32 0x6E71EDAE12B1B97F4D1F60370FEF10105FA2FAAE0126114A169C64845D6126C9 SWAP2 DUP12 SWAP2 DUP12 SWAP2 DUP12 SWAP2 SWAP1 DUP8 PUSH2 0x12DF DUP4 PUSH2 0x2019 JUMP JUMPDEST SWAP1 SWAP2 SSTORE POP PUSH1 0x40 DUP1 MLOAD PUSH1 0x20 DUP2 ADD SWAP7 SWAP1 SWAP7 MSTORE PUSH1 0x1 PUSH1 0x1 PUSH1 0xA0 SHL SUB SWAP5 DUP6 AND SWAP1 DUP7 ADD MSTORE SWAP3 SWAP1 SWAP2 AND PUSH1 0x60 DUP5 ADD MSTORE PUSH1 0x80 DUP4 ADD MSTORE PUSH1 0xA0 DUP3 ADD MSTORE PUSH1 0xC0 DUP2 ADD DUP8 SWAP1 MSTORE PUSH1 0xE0 ADD PUSH1 0x40 MLOAD PUSH1 0x20 DUP2 DUP4 SUB SUB DUP2 MSTORE SWAP1 PUSH1 0x40 MSTORE DUP1 MLOAD SWAP1 PUSH1 0x20 ADD KECCAK256 PUSH1 0x40 MLOAD PUSH1 0x20 ADD PUSH2 0x1358 SWAP3 SWAP2 SWAP1 PUSH2 0x1901 PUSH1 0xF0 SHL DUP2 MSTORE PUSH1 0x2 DUP2 ADD SWAP3 SWAP1 SWAP3 MSTORE PUSH1 0x22 DUP3 ADD MSTORE PUSH1 0x42 ADD SWAP1 JUMP JUMPDEST PUSH1 0x40 DUP1 MLOAD PUSH1 0x1F NOT DUP2 DUP5 SUB ADD DUP2 MSTORE DUP3 DUP3 MSTORE DUP1 MLOAD PUSH1 0x20 SWAP2 DUP3 ADD KECCAK256 PUSH1 0x0 DUP1 DUP6 MSTORE SWAP2 DUP5 ADD DUP1 DUP5 MSTORE DUP2 SWAP1 MSTORE PUSH1 0xFF DUP9 AND SWAP3 DUP5 ADD SWAP3 SWAP1 SWAP3 MSTORE PUSH1 0x60 DUP4 ADD DUP7 SWAP1 MSTORE PUSH1 0x80 DUP4 ADD DUP6 SWAP1 MSTORE SWAP1 SWAP3 POP SWAP1 PUSH1 0x1 SWAP1 PUSH1 0xA0 ADD PUSH1 0x20 PUSH1 0x40 MLOAD PUSH1 0x20 DUP2 SUB SWAP1 DUP1 DUP5 SUB SWAP1 DUP6 GAS STATICCALL ISZERO DUP1 ISZERO PUSH2 0x13C3 JUMPI RETURNDATASIZE PUSH1 0x0 DUP1 RETURNDATACOPY RETURNDATASIZE PUSH1 0x0 REVERT JUMPDEST POP POP PUSH1 0x40 MLOAD PUSH1 0x1F NOT ADD MLOAD SWAP2 POP POP PUSH1 0x1 PUSH1 0x1 PUSH1 0xA0 SHL SUB DUP2 AND ISZERO DUP1 ISZERO SWAP1 PUSH2 0x13F9 JUMPI POP DUP9 PUSH1 0x1 PUSH1 0x1 PUSH1 0xA0 SHL SUB AND DUP2 PUSH1 0x1 PUSH1 0x1 PUSH1 0xA0 SHL SUB AND EQ JUMPDEST PUSH2 0x1445 JUMPI PUSH1 0x40 MLOAD PUSH3 0x461BCD PUSH1 0xE5 SHL DUP2 MSTORE PUSH1 0x20 PUSH1 0x4 DUP3 ADD MSTORE PUSH1 0x18 PUSH1 0x24 DUP3 ADD MSTORE PUSH32 0x44657856313A20494E56414C49445F5349474E41545552450000000000000000 PUSH1 0x44 DUP3 ADD MSTORE PUSH1 0x64 ADD PUSH2 0x4CB JUMP JUMPDEST PUSH2 0x1450 DUP10 DUP10 DUP10 PUSH2 0x1C93 JUMP JUMPDEST POP POP POP POP POP POP POP POP POP JUMP JUMPDEST PUSH1 0xD SLOAD PUSH1 0x1 EQ PUSH2 0x147D JUMPI PUSH1 0x40 MLOAD PUSH3 0x461BCD PUSH1 0xE5 SHL DUP2 MSTORE PUSH1 0x4 ADD PUSH2 0x4CB SWAP1 PUSH2 0x1F6F JUMP JUMPDEST PUSH1 0x0 PUSH1 0xD SSTORE PUSH1 0x7 SLOAD PUSH1 0x40 MLOAD PUSH4 0x70A08231 PUSH1 0xE0 SHL DUP2 MSTORE ADDRESS PUSH1 0x4 DUP3 ADD MSTORE PUSH2 0x1578 SWAP2 PUSH1 0x1 PUSH1 0x1 PUSH1 0xA0 SHL SUB AND SWAP1 PUSH4 0x70A08231 SWAP1 PUSH1 0x24 ADD PUSH1 0x20 PUSH1 0x40 MLOAD DUP1 DUP4 SUB DUP2 DUP7 GAS STATICCALL ISZERO DUP1 ISZERO PUSH2 0x14CC JUMPI RETURNDATASIZE PUSH1 0x0 DUP1 RETURNDATACOPY RETURNDATASIZE PUSH1 0x0 REVERT JUMPDEST POP POP POP POP PUSH1 0x40 MLOAD RETURNDATASIZE PUSH1 0x1F NOT PUSH1 0x1F DUP3 ADD AND DUP3 ADD DUP1 PUSH1 0x40 MSTORE POP DUP2 ADD SWAP1 PUSH2 0x14F0 SWAP2 SWAP1 PUSH2 0x1F96 JUMP JUMPDEST PUSH1 0x8 SLOAD PUSH1 0x40 MLOAD PUSH4 0x70A08231 PUSH1 0xE0 SHL DUP2 MSTORE ADDRESS PUSH1 0x4 DUP3 ADD MSTORE PUSH1 0x1 PUSH1 0x1 PUSH1 0xA0 SHL SUB SWAP1 SWAP2 AND SWAP1 PUSH4 0x70A08231 SWAP1 PUSH1 0x24 ADD PUSH1 0x20 PUSH1 0x40 MLOAD DUP1 DUP4 SUB DUP2 DUP7 GAS STATICCALL ISZERO DUP1 ISZERO PUSH2 0x1538 JUMPI RETURNDATASIZE PUSH1 0x0 DUP1 RETURNDATACOPY RETURNDATASIZE PUSH1 0x0 REVERT JUMPDEST POP POP POP POP PUSH1 0x40 MLOAD RETURNDATASIZE PUSH1 0x1F NOT PUSH1 0x1F DUP3 ADD AND DUP3 ADD DUP1 PUSH1 0x40 MSTORE POP DUP2 ADD SWAP1 PUSH2 0x155C SWAP2 SWAP1 PUSH2 0x1F96 JUMP JUMPDEST PUSH1 0x9 SLOAD PUSH1 0x1 PUSH1 0x1 PUSH1 0x70 SHL SUB DUP1 DUP3 AND SWAP2 PUSH1 0x1 PUSH1 0x70 SHL SWAP1 DIV AND PUSH2 0x16C3 JUMP JUMPDEST PUSH1 0x1 PUSH1 0xD SSTORE JUMP JUMPDEST PUSH1 0x40 DUP1 MLOAD DUP1 DUP3 ADD DUP3 MSTORE PUSH1 0x19 DUP2 MSTORE PUSH32 0x7472616E7366657228616464726573732C75696E743235362900000000000000 PUSH1 0x20 SWAP2 DUP3 ADD MSTORE DUP2 MLOAD PUSH1 0x1 PUSH1 0x1 PUSH1 0xA0 SHL SUB DUP6 DUP2 AND PUSH1 0x24 DUP4 ADD MSTORE PUSH1 0x44 DUP1 DUP4 ADD DUP7 SWAP1 MSTORE DUP5 MLOAD DUP1 DUP5 SUB SWAP1 SWAP2 ADD DUP2 MSTORE PUSH1 0x64 SWAP1 SWAP3 ADD DUP5 MSTORE SWAP2 DUP2 ADD DUP1 MLOAD PUSH1 0x1 PUSH1 0x1 PUSH1 0xE0 SHL SUB AND PUSH4 0xA9059CBB PUSH1 0xE0 SHL OR SWAP1 MSTORE SWAP2 MLOAD PUSH1 0x0 SWAP3 DUP4 SWAP3 DUP8 AND SWAP2 PUSH2 0x160B SWAP2 SWAP1 PUSH2 0x2032 JUMP JUMPDEST PUSH1 0x0 PUSH1 0x40 MLOAD DUP1 DUP4 SUB DUP2 PUSH1 0x0 DUP7 GAS CALL SWAP2 POP POP RETURNDATASIZE DUP1 PUSH1 0x0 DUP2 EQ PUSH2 0x1648 JUMPI PUSH1 0x40 MLOAD SWAP2 POP PUSH1 0x1F NOT PUSH1 0x3F RETURNDATASIZE ADD AND DUP3 ADD PUSH1 0x40 MSTORE RETURNDATASIZE DUP3 MSTORE RETURNDATASIZE PUSH1 0x0 PUSH1 0x20 DUP5 ADD RETURNDATACOPY PUSH2 0x164D JUMP JUMPDEST PUSH1 0x60 SWAP2 POP JUMPDEST POP SWAP2 POP SWAP2 POP DUP2 DUP1 ISZERO PUSH2 0x1677 JUMPI POP DUP1 MLOAD ISZERO DUP1 PUSH2 0x1677 JUMPI POP DUP1 DUP1 PUSH1 0x20 ADD SWAP1 MLOAD DUP2 ADD SWAP1 PUSH2 0x1677 SWAP2 SWAP1 PUSH2 0x204E JUMP JUMPDEST PUSH2 0x16BC JUMPI PUSH1 0x40 MLOAD PUSH3 0x461BCD PUSH1 0xE5 SHL DUP2 MSTORE PUSH1 0x20 PUSH1 0x4 DUP3 ADD MSTORE PUSH1 0x16 PUSH1 0x24 DUP3 ADD MSTORE PUSH22 0x11195E158C4E881514905394D1915497D19052531151 PUSH1 0x52 SHL PUSH1 0x44 DUP3 ADD MSTORE PUSH1 0x64 ADD PUSH2 0x4CB JUMP JUMPDEST POP POP POP POP POP JUMP JUMPDEST PUSH1 0x1 PUSH1 0x1 PUSH1 0x70 SHL SUB DUP5 GT DUP1 ISZERO SWAP1 PUSH2 0x16E1 JUMPI POP PUSH1 0x1 PUSH1 0x1 PUSH1 0x70 SHL SUB DUP4 GT ISZERO JUMPDEST PUSH2 0x171F JUMPI PUSH1 0x40 MLOAD PUSH3 0x461BCD PUSH1 0xE5 SHL DUP2 MSTORE PUSH1 0x20 PUSH1 0x4 DUP3 ADD MSTORE PUSH1 0xF PUSH1 0x24 DUP3 ADD MSTORE PUSH15 0x44657856313A204F564552464C4F57 PUSH1 0x88 SHL PUSH1 0x44 DUP3 ADD MSTORE PUSH1 0x64 ADD PUSH2 0x4CB JUMP JUMPDEST PUSH1 0x0 PUSH2 0x1730 PUSH5 0x100000000 TIMESTAMP PUSH2 0x2070 JUMP JUMPDEST PUSH1 0x9 SLOAD SWAP1 SWAP2 POP PUSH1 0x0 SWAP1 PUSH2 0x1750 SWAP1 PUSH1 0x1 PUSH1 0xE0 SHL SWAP1 DIV PUSH4 0xFFFFFFFF AND DUP4 PUSH2 0x2084 JUMP JUMPDEST SWAP1 POP PUSH1 0x0 DUP2 PUSH4 0xFFFFFFFF AND GT DUP1 ISZERO PUSH2 0x1770 JUMPI POP PUSH1 0x1 PUSH1 0x1 PUSH1 0x70 SHL SUB DUP5 AND ISZERO ISZERO JUMPDEST DUP1 ISZERO PUSH2 0x1784 JUMPI POP PUSH1 0x1 PUSH1 0x1 PUSH1 0x70 SHL SUB DUP4 AND ISZERO ISZERO JUMPDEST ISZERO PUSH2 0x1813 JUMPI DUP1 PUSH4 0xFFFFFFFF AND PUSH2 0x17AC DUP6 PUSH2 0x179D DUP7 PUSH2 0x1CEC JUMP JUMPDEST PUSH1 0x1 PUSH1 0x1 PUSH1 0xE0 SHL SUB AND SWAP1 PUSH2 0x1D05 JUMP JUMPDEST PUSH1 0x1 PUSH1 0x1 PUSH1 0xE0 SHL SUB AND PUSH2 0x17BF SWAP2 SWAP1 PUSH2 0x1FD8 JUMP JUMPDEST PUSH1 0xA PUSH1 0x0 DUP3 DUP3 SLOAD PUSH2 0x17D0 SWAP2 SWAP1 PUSH2 0x20A8 JUMP JUMPDEST SWAP1 SWAP2 SSTORE POP POP PUSH4 0xFFFFFFFF DUP2 AND PUSH2 0x17E9 DUP5 PUSH2 0x179D DUP8 PUSH2 0x1CEC JUMP JUMPDEST PUSH1 0x1 PUSH1 0x1 PUSH1 0xE0 SHL SUB AND PUSH2 0x17FC SWAP2 SWAP1 PUSH2 0x1FD8 JUMP JUMPDEST PUSH1 0xB PUSH1 0x0 DUP3 DUP3 SLOAD PUSH2 0x180D SWAP2 SWAP1 PUSH2 0x20A8 JUMP JUMPDEST SWAP1 SWAP2 SSTORE POP POP JUMPDEST PUSH1 0x9 DUP1 SLOAD PUSH4 0xFFFFFFFF DUP5 AND PUSH1 0x1 PUSH1 0xE0 SHL MUL PUSH1 0x1 PUSH1 0x1 PUSH1 0xE0 SHL SUB PUSH1 0x1 PUSH1 0x1 PUSH1 0x70 SHL SUB DUP10 DUP2 AND PUSH1 0x1 PUSH1 0x70 SHL SWAP1 DUP2 MUL PUSH1 0x1 PUSH1 0x1 PUSH1 0xE0 SHL SUB NOT SWAP1 SWAP6 AND DUP13 DUP4 AND OR SWAP5 SWAP1 SWAP5 OR SWAP2 DUP3 AND DUP4 OR SWAP5 DUP6 SWAP1 SSTORE PUSH1 0x40 DUP1 MLOAD SWAP4 DUP3 AND SWAP3 DUP3 AND SWAP3 SWAP1 SWAP3 OR DUP4 MSTORE SWAP3 SWAP1 SWAP4 DIV SWAP1 SWAP2 AND PUSH1 0x20 DUP3 ADD MSTORE PUSH32 0x1C411E9A96E071241C2F21F7726B17AE89E3CAB4C78BE50E062B03A9FFFBBAD1 SWAP2 ADD PUSH1 0x40 MLOAD DUP1 SWAP2 SUB SWAP1 LOG1 POP POP POP POP POP POP JUMP JUMPDEST PUSH1 0x1 PUSH1 0x1 PUSH1 0xA0 SHL SUB DUP4 DUP2 AND PUSH1 0x0 DUP2 DUP2 MSTORE PUSH1 0x2 PUSH1 0x20 SWAP1 DUP2 MSTORE PUSH1 0x40 DUP1 DUP4 KECCAK256 SWAP5 DUP8 AND DUP1 DUP5 MSTORE SWAP5 DUP3 MSTORE SWAP2 DUP3 SWAP1 KECCAK256 DUP6 SWAP1 SSTORE SWAP1 MLOAD DUP5 DUP2 MSTORE PUSH32 0x9BBED94D365EDF12A87B581EA935CFDEE7C048FD4E609E0AD6321CA2703ABB1E SWAP2 ADD JUMPDEST PUSH1 0x40 MLOAD DUP1 SWAP2 SUB SWAP1 LOG3 POP POP POP JUMP JUMPDEST PUSH1 0x1 PUSH1 0x1 PUSH1 0xA0 SHL SUB DUP4 AND PUSH1 0x0 SWAP1 DUP2 MSTORE PUSH1 0x1 PUSH1 0x20 MSTORE PUSH1 0x40 DUP2 KECCAK256 DUP1 SLOAD DUP4 SWAP3 SWAP1 PUSH2 0x1935 SWAP1 DUP5 SWAP1 PUSH2 0x1FC5 JUMP JUMPDEST SWAP1 SWAP2 SSTORE POP POP PUSH1 0x1 PUSH1 0x1 PUSH1 0xA0 SHL SUB DUP3 AND PUSH1 0x0 SWAP1 DUP2 MSTORE PUSH1 0x1 PUSH1 0x20 MSTORE PUSH1 0x40 DUP2 KECCAK256 DUP1 SLOAD DUP4 SWAP3 SWAP1 PUSH2 0x1962 SWAP1 DUP5 SWAP1 PUSH2 0x20A8 JUMP JUMPDEST SWAP3 POP POP DUP2 SWAP1 SSTORE POP DUP2 PUSH1 0x1 PUSH1 0x1 PUSH1 0xA0 SHL SUB AND DUP4 PUSH1 0x1 PUSH1 0x1 PUSH1 0xA0 SHL SUB AND PUSH32 0x45D0465CDA3936CCC7EE223B12BE71E3F5DA003B041626B6FAF29AD2C62EB9AE DUP4 PUSH1 0x40 MLOAD PUSH2 0x1900 SWAP2 DUP2 MSTORE PUSH1 0x20 ADD SWAP1 JUMP JUMPDEST DUP1 PUSH1 0x0 DUP1 DUP3 DUP3 SLOAD PUSH2 0x19BF SWAP2 SWAP1 PUSH2 0x20A8 JUMP JUMPDEST SWAP1 SWAP2 SSTORE POP POP PUSH1 0x1 PUSH1 0x1 PUSH1 0xA0 SHL SUB DUP3 AND PUSH1 0x0 SWAP1 DUP2 MSTORE PUSH1 0x1 PUSH1 0x20 MSTORE PUSH1 0x40 DUP2 KECCAK256 DUP1 SLOAD DUP4 SWAP3 SWAP1 PUSH2 0x19EC SWAP1 DUP5 SWAP1 PUSH2 0x20A8 JUMP JUMPDEST SWAP1 SWAP2 SSTORE POP POP PUSH1 0x40 MLOAD DUP2 DUP2 MSTORE PUSH1 0x1 PUSH1 0x1 PUSH1 0xA0 SHL SUB DUP4 AND SWAP1 PUSH1 0x0 SWAP1 PUSH32 0x45D0465CDA3936CCC7EE223B12BE71E3F5DA003B041626B6FAF29AD2C62EB9AE SWAP1 PUSH1 0x20 ADD JUMPDEST PUSH1 0x40 MLOAD DUP1 SWAP2 SUB SWAP1 LOG3 POP POP JUMP JUMPDEST PUSH1 0x0 DUP1 PUSH1 0x6 PUSH1 0x0 SWAP1 SLOAD SWAP1 PUSH2 0x100 EXP SWAP1 DIV PUSH1 0x1 PUSH1 0x1 PUSH1 0xA0 SHL SUB AND PUSH1 0x1 PUSH1 0x1 PUSH1 0xA0 SHL SUB AND PUSH4 0x17E7E58 PUSH1 0x40 MLOAD DUP2 PUSH4 0xFFFFFFFF AND PUSH1 0xE0 SHL DUP2 MSTORE PUSH1 0x4 ADD PUSH1 0x20 PUSH1 0x40 MLOAD DUP1 DUP4 SUB DUP2 DUP7 GAS STATICCALL ISZERO DUP1 ISZERO PUSH2 0x1A8D JUMPI RETURNDATASIZE PUSH1 0x0 DUP1 RETURNDATACOPY RETURNDATASIZE PUSH1 0x0 REVERT JUMPDEST POP POP POP POP PUSH1 0x40 MLOAD RETURNDATASIZE PUSH1 0x1F NOT PUSH1 0x1F DUP3 ADD AND DUP3 ADD DUP1 PUSH1 0x40 MSTORE POP DUP2 ADD SWAP1 PUSH2 0x1AB1 SWAP2 SWAP1 PUSH2 0x20BB JUMP JUMPDEST PUSH1 0xC SLOAD PUSH1 0x1 PUSH1 0x1 PUSH1 0xA0 SHL SUB DUP3 AND ISZERO DUP1 ISZERO SWAP5 POP SWAP2 SWAP3 POP SWAP1 PUSH2 0x1B62 JUMPI DUP1 ISZERO PUSH2 0x1B5D JUMPI PUSH1 0x0 PUSH2 0x1AEC PUSH2 0xC78 PUSH1 0x1 PUSH1 0x1 PUSH1 0x70 SHL SUB DUP1 DUP9 AND SWAP1 DUP10 AND PUSH2 0x1FD8 JUMP JUMPDEST SWAP1 POP PUSH1 0x0 PUSH2 0x1AF9 DUP4 PUSH2 0x1B76 JUMP JUMPDEST SWAP1 POP DUP1 DUP3 GT ISZERO PUSH2 0x1B5A JUMPI PUSH1 0x0 PUSH2 0x1B0F DUP3 DUP5 PUSH2 0x1FC5 JUMP JUMPDEST PUSH1 0x0 SLOAD PUSH2 0x1B1C SWAP2 SWAP1 PUSH2 0x1FD8 JUMP JUMPDEST SWAP1 POP PUSH1 0x0 DUP3 PUSH2 0x1B2C DUP6 PUSH1 0x5 PUSH2 0x1FD8 JUMP JUMPDEST PUSH2 0x1B36 SWAP2 SWAP1 PUSH2 0x20A8 JUMP JUMPDEST SWAP1 POP PUSH1 0x0 PUSH2 0x1B44 DUP3 DUP5 PUSH2 0x2005 JUMP JUMPDEST SWAP1 POP DUP1 ISZERO PUSH2 0x1B56 JUMPI PUSH2 0x1B56 DUP8 DUP3 PUSH2 0x19AE JUMP JUMPDEST POP POP POP JUMPDEST POP POP JUMPDEST PUSH2 0x1B6E JUMP JUMPDEST DUP1 ISZERO PUSH2 0x1B6E JUMPI PUSH1 0x0 PUSH1 0xC SSTORE JUMPDEST POP POP SWAP3 SWAP2 POP POP JUMP JUMPDEST PUSH1 0x0 PUSH1 0x3 DUP3 GT ISZERO PUSH2 0x1BD7 JUMPI POP DUP1 PUSH1 0x0 PUSH2 0x1B90 PUSH1 0x2 DUP4 PUSH2 0x2005 JUMP JUMPDEST PUSH2 0x1B9B SWAP1 PUSH1 0x1 PUSH2 0x20A8 JUMP JUMPDEST SWAP1 POP JUMPDEST DUP2 DUP2 LT ISZERO PUSH2 0x1BD1 JUMPI SWAP1 POP DUP1 PUSH1 0x2 DUP2 PUSH2 0x1BB6 DUP2 DUP7 PUSH2 0x2005 JUMP JUMPDEST PUSH2 0x1BC0 SWAP2 SWAP1 PUSH2 0x20A8 JUMP JUMPDEST PUSH2 0x1BCA SWAP2 SWAP1 PUSH2 0x2005 JUMP JUMPDEST SWAP1 POP PUSH2 0x1B9E JUMP JUMPDEST POP SWAP2 SWAP1 POP JUMP JUMPDEST DUP2 ISZERO PUSH2 0x1BE1 JUMPI POP PUSH1 0x1 JUMPDEST SWAP2 SWAP1 POP JUMP JUMPDEST PUSH1 0x0 DUP2 DUP4 LT PUSH2 0x1BF5 JUMPI DUP2 PUSH2 0x1BF7 JUMP JUMPDEST DUP3 JUMPDEST SWAP4 SWAP3 POP POP POP JUMP JUMPDEST PUSH1 0x1 PUSH1 0x1 PUSH1 0xA0 SHL SUB DUP3 AND PUSH1 0x0 SWAP1 DUP2 MSTORE PUSH1 0x1 PUSH1 0x20 MSTORE PUSH1 0x40 SWAP1 KECCAK256 SLOAD PUSH2 0x1C22 SWAP1 DUP3 SWAP1 PUSH2 0x1FC5 JUMP JUMPDEST PUSH1 0x1 PUSH1 0x1 PUSH1 0xA0 SHL SUB DUP4 AND PUSH1 0x0 SWAP1 DUP2 MSTORE PUSH1 0x1 PUSH1 0x20 MSTORE PUSH1 0x40 DUP2 KECCAK256 SWAP2 SWAP1 SWAP2 SSTORE DUP1 SLOAD DUP3 SWAP2 SWAP1 DUP2 SWAP1 PUSH2 0x1C50 SWAP1 DUP5 SWAP1 PUSH2 0x1FC5 JUMP JUMPDEST SWAP1 SWAP2 SSTORE POP POP PUSH1 0x40 MLOAD DUP2 DUP2 MSTORE PUSH1 0x0 SWAP1 PUSH1 0x1 PUSH1 0x1 PUSH1 0xA0 SHL SUB DUP5 AND SWAP1 PUSH32 0x45D0465CDA3936CCC7EE223B12BE71E3F5DA003B041626B6FAF29AD2C62EB9AE SWAP1 PUSH1 0x20 ADD PUSH2 0x1A2B JUMP JUMPDEST PUSH1 0x1 PUSH1 0x1 PUSH1 0xA0 SHL SUB DUP4 DUP2 AND PUSH1 0x0 DUP2 DUP2 MSTORE PUSH1 0x2 PUSH1 0x20 SWAP1 DUP2 MSTORE PUSH1 0x40 DUP1 DUP4 KECCAK256 SWAP5 DUP8 AND DUP1 DUP5 MSTORE SWAP5 DUP3 MSTORE SWAP2 DUP3 SWAP1 KECCAK256 DUP6 SWAP1 SSTORE SWAP1 MLOAD DUP5 DUP2 MSTORE PUSH32 0x8C5BE1E5EBEC7D5BD14F71427D1E84F3DD0314C0F7B2291E5B200AC8C7C3B925 SWAP2 ADD PUSH2 0x1900 JUMP JUMPDEST PUSH1 0x0 PUSH2 0x9B4 PUSH1 0x1 PUSH1 0x70 SHL PUSH1 0x1 PUSH1 0x1 PUSH1 0x70 SHL SUB DUP5 AND PUSH2 0x20D8 JUMP JUMPDEST PUSH1 0x0 PUSH2 0x1BF7 PUSH1 0x1 PUSH1 0x1 PUSH1 0x70 SHL SUB DUP4 AND DUP5 PUSH2 0x210A JUMP JUMPDEST PUSH1 0x1 PUSH1 0x1 PUSH1 0xA0 SHL SUB DUP2 AND DUP2 EQ PUSH2 0xAFF JUMPI PUSH1 0x0 DUP1 REVERT JUMPDEST PUSH1 0x0 DUP1 PUSH1 0x0 DUP1 PUSH1 0x0 PUSH1 0x80 DUP7 DUP9 SUB SLT ISZERO PUSH2 0x1D47 JUMPI PUSH1 0x0 DUP1 REVERT JUMPDEST DUP6 CALLDATALOAD SWAP5 POP PUSH1 0x20 DUP7 ADD CALLDATALOAD SWAP4 POP PUSH1 0x40 DUP7 ADD CALLDATALOAD PUSH2 0x1D60 DUP2 PUSH2 0x1D1A JUMP JUMPDEST SWAP3 POP PUSH1 0x60 DUP7 ADD CALLDATALOAD PUSH8 0xFFFFFFFFFFFFFFFF DUP1 DUP3 GT ISZERO PUSH2 0x1D7D JUMPI PUSH1 0x0 DUP1 REVERT JUMPDEST DUP2 DUP9 ADD SWAP2 POP DUP9 PUSH1 0x1F DUP4 ADD SLT PUSH2 0x1D91 JUMPI PUSH1 0x0 DUP1 REVERT JUMPDEST DUP2 CALLDATALOAD DUP2 DUP2 GT ISZERO PUSH2 0x1DA0 JUMPI PUSH1 0x0 DUP1 REVERT JUMPDEST DUP10 PUSH1 0x20 DUP3 DUP6 ADD ADD GT ISZERO PUSH2 0x1DB2 JUMPI PUSH1 0x0 DUP1 REVERT JUMPDEST SWAP7 SWAP10 SWAP6 SWAP9 POP SWAP4 SWAP7 POP PUSH1 0x20 ADD SWAP5 SWAP4 SWAP3 POP POP POP JUMP JUMPDEST PUSH1 0x0 JUMPDEST DUP4 DUP2 LT ISZERO PUSH2 0x1DE0 JUMPI DUP2 DUP2 ADD MLOAD DUP4 DUP3 ADD MSTORE PUSH1 0x20 ADD PUSH2 0x1DC8 JUMP JUMPDEST POP POP PUSH1 0x0 SWAP2 ADD MSTORE JUMP JUMPDEST PUSH1 0x20 DUP2 MSTORE PUSH1 0x0 DUP3 MLOAD DUP1 PUSH1 0x20 DUP5 ADD MSTORE PUSH2 0x1E08 DUP2 PUSH1 0x40 DUP6 ADD PUSH1 0x20 DUP8 ADD PUSH2 0x1DC5 JUMP JUMPDEST PUSH1 0x1F ADD PUSH1 0x1F NOT AND SWAP2 SWAP1 SWAP2 ADD PUSH1 0x40 ADD SWAP3 SWAP2 POP POP JUMP JUMPDEST PUSH1 0x0 DUP1 PUSH1 0x40 DUP4 DUP6 SUB SLT ISZERO PUSH2 0x1E2F JUMPI PUSH1 0x0 DUP1 REVERT JUMPDEST DUP3 CALLDATALOAD PUSH2 0x1E3A DUP2 PUSH2 0x1D1A JUMP JUMPDEST SWAP5 PUSH1 0x20 SWAP4 SWAP1 SWAP4 ADD CALLDATALOAD SWAP4 POP POP POP JUMP JUMPDEST PUSH1 0x0 DUP1 PUSH1 0x0 PUSH1 0x60 DUP5 DUP7 SUB SLT ISZERO PUSH2 0x1E5D JUMPI PUSH1 0x0 DUP1 REVERT JUMPDEST DUP4 CALLDATALOAD PUSH2 0x1E68 DUP2 PUSH2 0x1D1A JUMP JUMPDEST SWAP3 POP PUSH1 0x20 DUP5 ADD CALLDATALOAD PUSH2 0x1E78 DUP2 PUSH2 0x1D1A JUMP JUMPDEST SWAP3 SWAP6 SWAP3 SWAP5 POP POP POP PUSH1 0x40 SWAP2 SWAP1 SWAP2 ADD CALLDATALOAD SWAP1 JUMP JUMPDEST PUSH1 0x0 DUP1 PUSH1 0x40 DUP4 DUP6 SUB SLT ISZERO PUSH2 0x1E9C JUMPI PUSH1 0x0 DUP1 REVERT JUMPDEST DUP3 CALLDATALOAD PUSH2 0x1EA7 DUP2 PUSH2 0x1D1A JUMP JUMPDEST SWAP2 POP PUSH1 0x20 DUP4 ADD CALLDATALOAD PUSH2 0x1EB7 DUP2 PUSH2 0x1D1A JUMP JUMPDEST DUP1 SWAP2 POP POP SWAP3 POP SWAP3 SWAP1 POP JUMP JUMPDEST PUSH1 0x0 PUSH1 0x20 DUP3 DUP5 SUB SLT ISZERO PUSH2 0x1ED4 JUMPI PUSH1 0x0 DUP1 REVERT JUMPDEST POP CALLDATALOAD SWAP2 SWAP1 POP JUMP JUMPDEST PUSH1 0x0 PUSH1 0x20 DUP3 DUP5 SUB SLT ISZERO PUSH2 0x1EED JUMPI PUSH1 0x0 DUP1 REVERT JUMPDEST DUP2 CALLDATALOAD PUSH2 0x1BF7 DUP2 PUSH2 0x1D1A JUMP JUMPDEST PUSH1 0x0 DUP1 PUSH1 0x0 DUP1 PUSH1 0x0 DUP1 PUSH1 0x0 PUSH1 0xE0 DUP9 DUP11 SUB SLT ISZERO PUSH2 0x1F13 JUMPI PUSH1 0x0 DUP1 REVERT JUMPDEST DUP8 CALLDATALOAD PUSH2 0x1F1E DUP2 PUSH2 0x1D1A JUMP JUMPDEST SWAP7 POP PUSH1 0x20 DUP9 ADD CALLDATALOAD PUSH2 0x1F2E DUP2 PUSH2 0x1D1A JUMP JUMPDEST SWAP6 POP PUSH1 0x40 DUP9 ADD CALLDATALOAD SWAP5 POP PUSH1 0x60 DUP9 ADD CALLDATALOAD SWAP4 POP PUSH1 0x80 DUP9 ADD CALLDATALOAD PUSH1 0xFF DUP2 AND DUP2 EQ PUSH2 0x1F52 JUMPI PUSH1 0x0 DUP1 REVERT JUMPDEST SWAP7 SWAP10 SWAP6 SWAP9 POP SWAP4 SWAP7 SWAP3 SWAP6 SWAP5 PUSH1 0xA0 DUP5 ADD CALLDATALOAD SWAP5 POP PUSH1 0xC0 SWAP1 SWAP4 ADD CALLDATALOAD SWAP3 SWAP2 POP POP JUMP JUMPDEST PUSH1 0x20 DUP1 DUP3 MSTORE PUSH1 0xD SWAP1 DUP3 ADD MSTORE PUSH13 0x11195E158C4E881313D0D2D151 PUSH1 0x9A SHL PUSH1 0x40 DUP3 ADD MSTORE PUSH1 0x60 ADD SWAP1 JUMP JUMPDEST PUSH1 0x0 PUSH1 0x20 DUP3 DUP5 SUB SLT ISZERO PUSH2 0x1FA8 JUMPI PUSH1 0x0 DUP1 REVERT JUMPDEST POP MLOAD SWAP2 SWAP1 POP JUMP JUMPDEST PUSH4 0x4E487B71 PUSH1 0xE0 SHL PUSH1 0x0 MSTORE PUSH1 0x11 PUSH1 0x4 MSTORE PUSH1 0x24 PUSH1 0x0 REVERT JUMPDEST DUP2 DUP2 SUB DUP2 DUP2 GT ISZERO PUSH2 0x9B4 JUMPI PUSH2 0x9B4 PUSH2 0x1FAF JUMP JUMPDEST DUP1 DUP3 MUL DUP2 ISZERO DUP3 DUP3 DIV DUP5 EQ OR PUSH2 0x9B4 JUMPI PUSH2 0x9B4 PUSH2 0x1FAF JUMP JUMPDEST PUSH4 0x4E487B71 PUSH1 0xE0 SHL PUSH1 0x0 MSTORE PUSH1 0x12 PUSH1 0x4 MSTORE PUSH1 0x24 PUSH1 0x0 REVERT JUMPDEST PUSH1 0x0 DUP3 PUSH2 0x2014 JUMPI PUSH2 0x2014 PUSH2 0x1FEF JUMP JUMPDEST POP DIV SWAP1 JUMP JUMPDEST PUSH1 0x0 PUSH1 0x1 DUP3 ADD PUSH2 0x202B JUMPI PUSH2 0x202B PUSH2 0x1FAF JUMP JUMPDEST POP PUSH1 0x1 ADD SWAP1 JUMP JUMPDEST PUSH1 0x0 DUP3 MLOAD PUSH2 0x2044 DUP2 DUP5 PUSH1 0x20 DUP8 ADD PUSH2 0x1DC5 JUMP JUMPDEST SWAP2 SWAP1 SWAP2 ADD SWAP3 SWAP2 POP POP JUMP JUMPDEST PUSH1 0x0 PUSH1 0x20 DUP3 DUP5 SUB SLT ISZERO PUSH2 0x2060 JUMPI PUSH1 0x0 DUP1 REVERT JUMPDEST DUP2 MLOAD DUP1 ISZERO ISZERO DUP2 EQ PUSH2 0x1BF7 JUMPI PUSH1 0x0 DUP1 REVERT JUMPDEST PUSH1 0x0 DUP3 PUSH2 0x207F JUMPI PUSH2 0x207F PUSH2 0x1FEF JUMP JUMPDEST POP MOD SWAP1 JUMP JUMPDEST PUSH4 0xFFFFFFFF DUP3 DUP2 AND DUP3 DUP3 AND SUB SWAP1 DUP1 DUP3 GT ISZERO PUSH2 0x20A1 JUMPI PUSH2 0x20A1 PUSH2 0x1FAF JUMP JUMPDEST POP SWAP3 SWAP2 POP POP JUMP JUMPDEST DUP1 DUP3 ADD DUP1 DUP3 GT ISZERO PUSH2 0x9B4 JUMPI PUSH2 0x9B4 PUSH2 0x1FAF JUMP JUMPDEST PUSH1 0x0 PUSH1 0x20 DUP3 DUP5 SUB SLT ISZERO PUSH2 0x20CD JUMPI PUSH1 0x0 DUP1 REVERT JUMPDEST DUP2 MLOAD PUSH2 0x1BF7 DUP2 PUSH2 0x1D1A JUMP JUMPDEST PUSH1 0x1 PUSH1 0x1 PUSH1 0xE0 SHL SUB DUP3 DUP2 AND DUP3 DUP3 AND DUP2 DUP2 MUL DUP4 AND SWAP3 SWAP2 DUP2 ISZERO DUP3 DUP6 DIV DUP3 EQ OR PUSH2 0x2101 JUMPI PUSH2 0x2101 PUSH2 0x1FAF JUMP JUMPDEST POP POP POP SWAP3 SWAP2 POP POP JUMP JUMPDEST PUSH1 0x0 PUSH1 0x1 PUSH1 0x1 PUSH1 0xE0 SHL SUB DUP4 DUP2 AND DUP1 PUSH2 0x2124 JUMPI PUSH2 0x2124 PUSH2 0x1FEF JUMP JUMPDEST SWAP3 AND SWAP2 SWAP1 SWAP2 DIV SWAP3 SWAP2 POP POP JUMP INVALID LOG2 PUSH5 0x6970667358 0x22 SLT KECCAK256 0xD5 0xC2 LT PUSH6 0x27160AD20199 0xEE 0xDB 0xE2 0xBE SGT 0xBE 0x5D PUSH3 0x54824A 0x49 0xE4 PUSH12 0x7C071F21EEDB271F64736F6C PUSH4 0x43000812 STOP CALLER "},"methodIdentifiers":{"DOMAIN_SEPARATOR()":"3644e515","MINIMUM_LIQUIDITY()":"ba9a7a56","PERMIT_TYPEHASH()":"30adf81f","allowance(address,address)":"dd62ed3e","approve(address,uint256)":"095ea7b3","balanceOf(address)":"70a08231","burn(address)":"89afcb44","decimals()":"313ce567","factory()":"c45a0155","getReserves()":"0902f1ac","initialize(address,address)":"485cc955","kLast()":"7464fc3d","mint(address)":"6a627842","mints(uint256)":"6350b2c2","name()":"06fdde03","nonces(address)":"7ecebe00","owner_()":"e7663079","permit(address,address,uint256,uint256,uint8,bytes32,bytes32)":"d505accf","price0CumulativeLast()":"5909c0d5","price1CumulativeLast()":"5a3d5493","skim(address)":"bc25cf77","swap(uint256,uint256,address,bytes)":"022c0d9f","symbol()":"95d89b41","sync()":"fff6cae9","token0()":"0dfe1681","token1()":"d21220a7","totalSupply()":"18160ddd","transfer(address,uint256)":"a9059cbb","transferFrom(address,address,uint256)":"23b872dd"}}}}}