{"contracts/DexV1Pair.sol":{"DexV1Pair":{"abi":[{"inputs":[],"stateMutability":"nonpayable","type":"constructor"},{"anonymous":false,"inputs":[{"indexed":true,"internalType":"address","name":"owner","type":"address"},{"indexed":true,"internalType":"address","name":"spender","type":"address"},{"indexed":false,"internalType":"uint256","name":"value","type":"uint256"}],"name":"Approval","type":"event"},{"anonymous":false,"inputs":[{"indexed":true,"internalType":"address","name":"owner","type":"address"},{"indexed":true,"internalType":"address","name":"spender","type":"address"},{"indexed":false,"internalType":"uint256","name":"value","type":"uint256"}],"name":"Approval1","type":"event"},{"anonymous":false,"inputs":[{"indexed":true,"internalType":"address","name":"sender","type":"address"},{"indexed":false,"internalType":"uint256","name":"amount0","type":"uint256"},{"indexed":false,"internalType":"uint256","name":"amount1","type":"uint256"},{"indexed":true,"internalType":"address","name":"to","type":"address"}],"name":"Burn","type":"event"},{"anonymous":false,"inputs":[{"indexed":true,"internalType":"address","name":"sender","type":"address"},{"indexed":false,"internalType":"uint256","name":"amount0","type":"uint256"},{"indexed":false,"internalType":"uint256","name":"amount1","type":"uint256"}],"name":"Mint","type":"event"},{"anonymous":false,"inputs":[{"indexed":true,"internalType":"address","name":"sender","type":"address"},{"indexed":false,"internalType":"uint256","name":"amount0In","type":"uint256"},{"indexed":false,"internalType":"uint256","name":"amount1In","type":"uint256"},{"indexed":false,"internalType":"uint256","name":"amount0Out","type":"uint256"},{"indexed":false,"internalType":"uint256","name":"amount1Out","type":"uint256"},{"indexed":true,"internalType":"address","name":"to","type":"address"}],"name":"Swap","type":"event"},{"anonymous":false,"inputs":[{"indexed":false,"internalType":"uint112","name":"reserve0","type":"uint112"},{"indexed":false,"internalType":"uint112","name":"reserve1","type":"uint112"}],"name":"Sync","type":"event"},{"anonymous":false,"inputs":[{"indexed":true,"internalType":"address","name":"from","type":"address"},{"indexed":true,"internalType":"address","name":"to","type":"address"},{"indexed":false,"internalType":"uint256","name":"value","type":"uint256"}],"name":"Transfer1","type":"event"},{"inputs":[],"name":"DOMAIN_SEPARATOR","outputs":[{"internalType":"bytes32","name":"","type":"bytes32"}],"stateMutability":"view","type":"function"},{"inputs":[],"name":"MINIMUM_LIQUIDITY","outputs":[{"internalType":"uint256","name":"","type":"uint256"}],"stateMutability":"view","type":"function"},{"inputs":[],"name":"PERMIT_TYPEHASH","outputs":[{"internalType":"bytes32","name":"","type":"bytes32"}],"stateMutability":"view","type":"function"},{"inputs":[{"internalType":"address","name":"","type":"address"},{"internalType":"address","name":"","type":"address"}],"name":"allowance","outputs":[{"internalType":"uint256","name":"","type":"uint256"}],"stateMutability":"view","type":"function"},{"inputs":[{"internalType":"address","name":"spender","type":"address"},{"internalType":"uint256","name":"value","type":"uint256"}],"name":"approve","outputs":[{"internalType":"bool","name":"","type":"bool"}],"stateMutability":"nonpayable","type":"function"},{"inputs":[{"internalType":"address","name":"","type":"address"}],"name":"balanceOf","outputs":[{"internalType":"uint256","name":"","type":"uint256"}],"stateMutability":"view","type":"function"},{"inputs":[{"internalType":"address","name":"to","type":"address"}],"name":"burn","outputs":[{"internalType":"uint256","name":"amount0","type":"uint256"},{"internalType":"uint256","name":"amount1","type":"uint256"}],"stateMutability":"nonpayable","type":"function"},{"inputs":[],"name":"decimals","outputs":[{"internalType":"uint8","name":"","type":"uint8"}],"stateMutability":"view","type":"function"},{"inputs":[],"name":"factory","outputs":[{"internalType":"address","name":"","type":"address"}],"stateMutability":"view","type":"function"},{"inputs":[],"name":"getReserves","outputs":[{"internalType":"uint112","name":"_reserve0","type":"uint112"},{"internalType":"uint112","name":"_reserve1","type":"uint112"},{"internalType":"uint32","name":"_blockTimestampLast","type":"uint32"}],"stateMutability":"view","type":"function"},{"inputs":[{"internalType":"address","name":"_token0","type":"address"},{"internalType":"address","name":"_token1","type":"address"}],"name":"initialize","outputs":[],"stateMutability":"nonpayable","type":"function"},{"inputs":[],"name":"kLast","outputs":[{"internalType":"uint256","name":"","type":"uint256"}],"stateMutability":"view","type":"function"},{"inputs":[{"internalType":"address","name":"to","type":"address"}],"name":"mint","outputs":[{"internalType":"uint256","name":"liquidity","type":"uint256"}],"stateMutability":"nonpayable","type":"function"},{"inputs":[{"internalType":"uint256","name":"value","type":"uint256"}],"name":"mints","outputs":[],"stateMutability":"nonpayable","type":"function"},{"inputs":[],"name":"name","outputs":[{"internalType":"string","name":"","type":"string"}],"stateMutability":"view","type":"function"},{"inputs":[{"internalType":"address","name":"","type":"address"}],"name":"nonces","outputs":[{"internalType":"uint256","name":"","type":"uint256"}],"stateMutability":"view","type":"function"},{"inputs":[{"internalType":"address","name":"owner","type":"address"},{"internalType":"address","name":"spender","type":"address"},{"internalType":"uint256","name":"value","type":"uint256"},{"internalType":"uint256","name":"deadline","type":"uint256"},{"internalType":"uint8","name":"v","type":"uint8"},{"internalType":"bytes32","name":"r","type":"bytes32"},{"internalType":"bytes32","name":"s","type":"bytes32"}],"name":"permit","outputs":[],"stateMutability":"nonpayable","type":"function"},{"inputs":[],"name":"price0CumulativeLast","outputs":[{"internalType":"uint256","name":"","type":"uint256"}],"stateMutability":"view","type":"function"},{"inputs":[],"name":"price1CumulativeLast","outputs":[{"internalType":"uint256","name":"","type":"uint256"}],"stateMutability":"view","type":"function"},{"inputs":[{"internalType":"address","name":"to","type":"address"}],"name":"skim","outputs":[],"stateMutability":"nonpayable","type":"function"},{"inputs":[{"internalType":"uint256","name":"amount0Out","type":"uint256"},{"internalType":"uint256","name":"amount1Out","type":"uint256"},{"internalType":"address","name":"to","type":"address"},{"internalType":"bytes","name":"data","type":"bytes"}],"name":"swap","outputs":[],"stateMutability":"nonpayable","type":"function"},{"inputs":[],"name":"symbol","outputs":[{"internalType":"string","name":"","type":"string"}],"stateMutability":"view","type":"function"},{"inputs":[],"name":"sync","outputs":[],"stateMutability":"nonpayable","type":"function"},{"inputs":[],"name":"token0","outputs":[{"internalType":"address","name":"","type":"address"}],"stateMutability":"view","type":"function"},{"inputs":[],"name":"token1","outputs":[{"internalType":"address","name":"","type":"address"}],"stateMutability":"view","type":"function"},{"inputs":[],"name":"totalSupply","outputs":[{"internalType":"uint256","name":"","type":"uint256"}],"stateMutability":"view","type":"function"},{"inputs":[{"internalType":"address","name":"to","type":"address"},{"internalType":"uint256","name":"value","type":"uint256"}],"name":"transfer","outputs":[{"internalType":"bool","name":"","type":"bool"}],"stateMutability":"nonpayable","type":"function"},{"inputs":[{"internalType":"address","name":"from","type":"address"},{"internalType":"address","name":"to","type":"address"},{"internalType":"uint256","name":"value","type":"uint256"}],"name":"transferFrom","outputs":[{"internalType":"bool","name":"","type":"bool"}],"stateMutability":"nonpayable","type":"function"}],"evm":{"bytecode":{"linkReferences":{},"object":"60806040526001600d5534801561001557600080fd5b50600380546001600160a01b03191633179055604080518082018252600681526544455820563160d01b6020918201528151808301835260018152603160f81b9082015281517f8b73c3c69bb8fe3d512ecc4cf759cc79239f7b179b0ffacaa9a75d522b39400f918101919091527f763ef677f244741a13e3fb4cba28fbcd1fe43592d1e8a4e327e45635f621c57c918101919091527fc89efdaa54c0f20c7adf612882df0950f5a951637e0307cdcb4c672f298b8bc6606082015246608082018190523060a08301529060c00160408051601f19818403018152919052805160209091012060045550600680546001600160a01b031916331790556121fb806101206000396000f3fe608060405234801561001057600080fd5b50600436106101c45760003560e01c80636a627842116100f9578063ba9a7a5611610097578063d21220a711610071578063d21220a714610432578063d505accf14610445578063dd62ed3e14610458578063fff6cae91461048357600080fd5b8063ba9a7a5614610403578063bc25cf771461040c578063c45a01551461041f57600080fd5b80637ecebe00116100d35780637ecebe001461038357806389afcb44146103a357806395d89b41146103cb578063a9059cbb146103f057600080fd5b80636a6278421461034757806370a082311461035a5780637464fc3d1461037a57600080fd5b806330adf81f11610166578063485cc95511610140578063485cc9551461030f5780635909c0d5146103225780635a3d54931461032b5780636350b2c21461033457600080fd5b806330adf81f146102c5578063313ce567146102ec5780633644e5151461030657600080fd5b8063095ea7b3116101a2578063095ea7b31461024d5780630dfe16811461027057806318160ddd1461029b57806323b872dd146102b257600080fd5b8063022c0d9f146101c957806306fdde03146101de5780630902f1ac14610219575b600080fd5b6101dc6101d7366004611d78565b61048b565b005b6102036040518060400160405280600681526020016544455820563160d01b81525081565b6040516102109190611e32565b60405180910390f35b610221610987565b604080516001600160701b03948516815293909216602084015263ffffffff1690820152606001610210565b61026061025b366004611e65565b6109b1565b6040519015158152602001610210565b600754610283906001600160a01b031681565b6040516001600160a01b039091168152602001610210565b6102a460005481565b604051908152602001610210565b6102606102c0366004611e91565b610a03565b6102a47f6e71edae12b1b97f4d1f60370fef10105fa2faae0126114a169c64845d6126c981565b6102f4601281565b60405160ff9091168152602001610210565b6102a460045481565b6101dc61031d366004611ed2565b610a7d565b6102a4600a5481565b6102a4600b5481565b6101dc610342366004611f0b565b610af8565b6102a4610355366004611f24565b610b4b565b6102a4610368366004611f24565b60016020526000908152604090205481565b6102a4600c5481565b6102a4610391366004611f24565b60056020526000908152604090205481565b6103b66103b1366004611f24565b610e14565b60408051928352602083019190915201610210565b6102036040518060400160405280600681526020016542525820563160d01b81525081565b6102606103fe366004611e65565b611174565b6102a46103e881565b6101dc61041a366004611f24565b611181565b600654610283906001600160a01b031681565b600854610283906001600160a01b031681565b6101dc610453366004611f41565b611294565b6102a4610466366004611ed2565b600260209081526000928352604080842090915290825290205481565b6101dc6114a4565b600d546001146104b65760405162461bcd60e51b81526004016104ad90611fb8565b60405180910390fd5b6000600d55841515806104c95750600084115b61051f5760405162461bcd60e51b815260206004820152602160248201527f44657856313a20494e53554646494349454e545f4f55545055545f414d4f554e6044820152601560fa1b60648201526084016104ad565b60008061052a610987565b5091509150816001600160701b03168710801561054f5750806001600160701b031686105b61059b5760405162461bcd60e51b815260206004820152601d60248201527f44657856313a20494e53554646494349454e545f4c495155494449545900000060448201526064016104ad565b60075460085460009182916001600160a01b039182169190811690891682148015906105d95750806001600160a01b0316896001600160a01b031614155b61061d5760405162461bcd60e51b8152602060048201526015602482015274556e697377617056323a20494e56414c49445f544f60581b60448201526064016104ad565b8a1561062e5761062e828a8d6115c8565b891561063f5761063f818a8c6115c8565b86156106ac576040516304347a1760e21b81526001600160a01b038a16906310d1e85c906106799033908f908f908e908e90600401611fdf565b600060405180830381600087803b15801561069357600080fd5b505af11580156106a7573d6000803e3d6000fd5b505050505b6040516370a0823160e01b81523060048201526001600160a01b038316906370a0823190602401602060405180830381865afa1580156106f0573d6000803e3d6000fd5b505050506040513d601f19601f82011682018060405250810190610714919061202b565b6040516370a0823160e01b81523060048201529094506001600160a01b038216906370a0823190602401602060405180830381865afa15801561075b573d6000803e3d6000fd5b505050506040513d601f19601f8201168201806040525081019061077f919061202b565b92505050600089856001600160701b031661079a919061205a565b83116107a75760006107c4565b6107ba8a6001600160701b03871661205a565b6107c4908461205a565b905060006107db8a6001600160701b03871661205a565b83116107e8576000610805565b6107fb8a6001600160701b03871661205a565b610805908461205a565b905060008211806108165750600081115b6108625760405162461bcd60e51b815260206004820181905260248201527f44657856313a20494e53554646494349454e545f494e5055545f414d4f554e5460448201526064016104ad565b600061086f83600361206d565b61087b866103e861206d565b610885919061205a565b9050600061089483600361206d565b6108a0866103e861206d565b6108aa919061205a565b90506108c26001600160701b03808916908a1661206d565b6108cf90620f424061206d565b6108d9828461206d565b10156109125760405162461bcd60e51b815260206004820152600860248201526744657856313a204b60c01b60448201526064016104ad565b50506109208484888861170c565b60408051838152602081018390529081018c9052606081018b90526001600160a01b038a169033907fd78ad95fa46c994b6551d0da85fc275fe613ce37657fb8d5e3d130840159d8229060800160405180910390a350506001600d55505050505050505050565b6009546001600160701b0380821692600160701b830490911691600160e01b900463ffffffff1690565b60008082116109ee5760405162461bcd60e51b81526020600482015260096024820152684d696e696d756d203160b81b60448201526064016104ad565b6109f93384846118f4565b5060015b92915050565b6001600160a01b038316600090815260026020908152604080832033845290915281205460001914610a68576001600160a01b038416600090815260026020908152604080832033845290915281208054849290610a6290849061205a565b90915550505b610a73848484611956565b5060019392505050565b6006546001600160a01b03163314610aca5760405162461bcd60e51b815260206004820152601060248201526f2232bc2b189d102327a92124a22222a760811b60448201526064016104ad565b600780546001600160a01b039384166001600160a01b03199182161790915560088054929093169116179055565b6003546001600160a01b03163314610b3e5760405162461bcd60e51b81526020600482015260096024820152682737ba1027bbb732b960b91b60448201526064016104ad565b610b4833826119f7565b50565b6000600d54600114610b6f5760405162461bcd60e51b81526004016104ad90611fb8565b6000600d81905580610b7f610987565b506007546040516370a0823160e01b81523060048201529294509092506000916001600160a01b03909116906370a0823190602401602060405180830381865afa158015610bd1573d6000803e3d6000fd5b505050506040513d601f19601f82011682018060405250810190610bf5919061202b565b6008546040516370a0823160e01b81523060048201529192506000916001600160a01b03909116906370a0823190602401602060405180830381865afa158015610c43573d6000803e3d6000fd5b505050506040513d601f19601f82011682018060405250810190610c67919061202b565b90506000610c7e6001600160701b0386168461205a565b90506000610c956001600160701b0386168461205a565b90506000610ca38787611a80565b60008054919250819003610ce4576103e8610cc6610cc1858761206d565b611bbf565b610cd0919061205a565b9850610cdf60006103e86119f7565b610d2b565b610d286001600160701b038916610cfb838761206d565b610d05919061209a565b6001600160701b038916610d19848761206d565b610d23919061209a565b611c2f565b98505b60008911610d875760405162461bcd60e51b8152602060048201526024808201527f44657856313a20494e53554646494349454e545f4c49515549444954595f4d496044820152631395115160e21b60648201526084016104ad565b610d918a8a6119f7565b610d9d86868a8a61170c565b8115610dc657600954610dc2906001600160701b03600160701b82048116911661206d565b600c555b604080518581526020810185905233917f4c209b5fc8ad50758f13e2e1088ba56a560dff690a1c6fef26394f4c03821c4f910160405180910390a250506001600d5550949695505050505050565b600080600d54600114610e395760405162461bcd60e51b81526004016104ad90611fb8565b6000600d81905580610e49610987565b506007546008546040516370a0823160e01b81523060048201529395509193506001600160a01b039081169291169060009083906370a0823190602401602060405180830381865afa158015610ea3573d6000803e3d6000fd5b505050506040513d601f19601f82011682018060405250810190610ec7919061202b565b6040516370a0823160e01b81523060048201529091506000906001600160a01b038416906370a0823190602401602060405180830381865afa158015610f11573d6000803e3d6000fd5b505050506040513d601f19601f82011682018060405250810190610f35919061202b565b30600090815260016020526040812054919250610f528888611a80565b60005490915080610f63868561206d565b610f6d919061209a565b9a5080610f7a858561206d565b610f84919061209a565b995060008b118015610f96575060008a115b610fee5760405162461bcd60e51b8152602060048201526024808201527f44657856313a20494e53554646494349454e545f4c49515549444954595f42556044820152631493915160e21b60648201526084016104ad565b610ff83084611c47565b611003878d8d6115c8565b61100e868d8c6115c8565b6040516370a0823160e01b81523060048201526001600160a01b038816906370a0823190602401602060405180830381865afa158015611052573d6000803e3d6000fd5b505050506040513d601f19601f82011682018060405250810190611076919061202b565b6040516370a0823160e01b81523060048201529095506001600160a01b038716906370a0823190602401602060405180830381865afa1580156110bd573d6000803e3d6000fd5b505050506040513d601f19601f820116820180604052508101906110e1919061202b565b93506110ef85858b8b61170c565b811561111857600954611114906001600160701b03600160701b82048116911661206d565b600c555b604080518c8152602081018c90526001600160a01b038e169133917fdccd412f0b1252819cb1fd330b93224ca42612892bb3f4f789976e6d81936496910160405180910390a35050505050505050506001600d81905550915091565b60006109f9338484611956565b600d546001146111a35760405162461bcd60e51b81526004016104ad90611fb8565b6000600d556007546008546009546040516370a0823160e01b81523060048201526001600160a01b03938416939092169161124291849186916001600160701b03169083906370a08231906024015b602060405180830381865afa15801561120f573d6000803e3d6000fd5b505050506040513d601f19601f82011682018060405250810190611233919061202b565b61123d919061205a565b6115c8565b6009546040516370a0823160e01b815230600482015261128a9183918691600160701b90046001600160701b0316906001600160a01b038416906370a08231906024016111f2565b50506001600d5550565b428410156112d55760405162461bcd60e51b815260206004820152600e60248201526d11195e158c4e881156141254915160921b60448201526064016104ad565b6004546001600160a01b038816600090815260056020526040812080549192917f6e71edae12b1b97f4d1f60370fef10105fa2faae0126114a169c64845d6126c9918b918b918b919087611328836120ae565b909155506040805160208101969096526001600160a01b0394851690860152929091166060840152608083015260a082015260c0810187905260e001604051602081830303815290604052805190602001206040516020016113a192919061190160f01b81526002810192909252602282015260420190565b60408051601f198184030181528282528051602091820120600080855291840180845281905260ff88169284019290925260608301869052608083018590529092509060019060a0016020604051602081039080840390855afa15801561140c573d6000803e3d6000fd5b5050604051601f1901519150506001600160a01b038116158015906114425750886001600160a01b0316816001600160a01b0316145b61148e5760405162461bcd60e51b815260206004820152601860248201527f44657856313a20494e56414c49445f5349474e4154555245000000000000000060448201526064016104ad565b611499898989611cdc565b505050505050505050565b600d546001146114c65760405162461bcd60e51b81526004016104ad90611fb8565b6000600d556007546040516370a0823160e01b81523060048201526115c1916001600160a01b0316906370a0823190602401602060405180830381865afa158015611515573d6000803e3d6000fd5b505050506040513d601f19601f82011682018060405250810190611539919061202b565b6008546040516370a0823160e01b81523060048201526001600160a01b03909116906370a0823190602401602060405180830381865afa158015611581573d6000803e3d6000fd5b505050506040513d601f19601f820116820180604052508101906115a5919061202b565b6009546001600160701b0380821691600160701b90041661170c565b6001600d55565b604080518082018252601981527f7472616e7366657228616464726573732c75696e74323536290000000000000060209182015281516001600160a01b0385811660248301526044808301869052845180840390910181526064909201845291810180516001600160e01b031663a9059cbb60e01b1790529151600092839287169161165491906120c7565b6000604051808303816000865af19150503d8060008114611691576040519150601f19603f3d011682016040523d82523d6000602084013e611696565b606091505b50915091508180156116c05750805115806116c05750808060200190518101906116c091906120e3565b6117055760405162461bcd60e51b815260206004820152601660248201527511195e158c4e881514905394d1915497d1905253115160521b60448201526064016104ad565b5050505050565b6001600160701b03841180159061172a57506001600160701b038311155b6117685760405162461bcd60e51b815260206004820152600f60248201526e44657856313a204f564552464c4f5760881b60448201526064016104ad565b600061177964010000000042612105565b60095490915060009061179990600160e01b900463ffffffff1683612119565b905060008163ffffffff161180156117b957506001600160701b03841615155b80156117cd57506001600160701b03831615155b1561185c578063ffffffff166117f5856117e686611d35565b6001600160e01b031690611d4e565b6001600160e01b0316611808919061206d565b600a6000828254611819919061213d565b909155505063ffffffff8116611832846117e687611d35565b6001600160e01b0316611845919061206d565b600b6000828254611856919061213d565b90915550505b6009805463ffffffff8416600160e01b026001600160e01b036001600160701b03898116600160701b9081026001600160e01b03199095168c83161794909417918216831794859055604080519382169282169290921783529290930490911660208201527f1c411e9a96e071241c2f21f7726b17ae89e3cab4c78be50e062b03a9fffbbad1910160405180910390a1505050505050565b6001600160a01b0383811660008181526002602090815260408083209487168084529482529182902085905590518481527f9bbed94d365edf12a87b581ea935cfdee7c048fd4e609e0ad6321ca2703abb1e91015b60405180910390a3505050565b6001600160a01b0383166000908152600160205260408120805483929061197e90849061205a565b90915550506001600160a01b038216600090815260016020526040812080548392906119ab90849061213d565b92505081905550816001600160a01b0316836001600160a01b03167f45d0465cda3936ccc7ee223b12be71e3f5da003b041626b6faf29ad2c62eb9ae8360405161194991815260200190565b80600080828254611a08919061213d565b90915550506001600160a01b03821660009081526001602052604081208054839290611a3590849061213d565b90915550506040518181526001600160a01b038316906000907f45d0465cda3936ccc7ee223b12be71e3f5da003b041626b6faf29ad2c62eb9ae906020015b60405180910390a35050565b600080600660009054906101000a90046001600160a01b03166001600160a01b031663017e7e586040518163ffffffff1660e01b8152600401602060405180830381865afa158015611ad6573d6000803e3d6000fd5b505050506040513d601f19601f82011682018060405250810190611afa9190612150565b600c546001600160a01b038216158015945091925090611bab578015611ba6576000611b35610cc16001600160701b0380881690891661206d565b90506000611b4283611bbf565b905080821115611ba3576000611b58828461205a565b600054611b65919061206d565b9050600082611b7585600561206d565b611b7f919061213d565b90506000611b8d828461209a565b90508015611b9f57611b9f87826119f7565b5050505b50505b611bb7565b8015611bb7576000600c555b505092915050565b60006003821115611c205750806000611bd960028361209a565b611be490600161213d565b90505b81811015611c1a57905080600281611bff818661209a565b611c09919061213d565b611c13919061209a565b9050611be7565b50919050565b8115611c2a575060015b919050565b6000818310611c3e5781611c40565b825b9392505050565b6001600160a01b038216600090815260016020526040902054611c6b90829061205a565b6001600160a01b03831660009081526001602052604081209190915580548291908190611c9990849061205a565b90915550506040518181526000906001600160a01b038416907f45d0465cda3936ccc7ee223b12be71e3f5da003b041626b6faf29ad2c62eb9ae90602001611a74565b6001600160a01b0383811660008181526002602090815260408083209487168084529482529182902085905590518481527f8c5be1e5ebec7d5bd14f71427d1e84f3dd0314c0f7b2291e5b200ac8c7c3b9259101611949565b60006109fd600160701b6001600160701b03841661216d565b6000611c406001600160701b0383168461219f565b6001600160a01b0381168114610b4857600080fd5b600080600080600060808688031215611d9057600080fd5b85359450602086013593506040860135611da981611d63565b9250606086013567ffffffffffffffff80821115611dc657600080fd5b818801915088601f830112611dda57600080fd5b813581811115611de957600080fd5b896020828501011115611dfb57600080fd5b9699959850939650602001949392505050565b60005b83811015611e29578181015183820152602001611e11565b50506000910152565b6020815260008251806020840152611e51816040850160208701611e0e565b601f01601f19169190910160400192915050565b60008060408385031215611e7857600080fd5b8235611e8381611d63565b946020939093013593505050565b600080600060608486031215611ea657600080fd5b8335611eb181611d63565b92506020840135611ec181611d63565b929592945050506040919091013590565b60008060408385031215611ee557600080fd5b8235611ef081611d63565b91506020830135611f0081611d63565b809150509250929050565b600060208284031215611f1d57600080fd5b5035919050565b600060208284031215611f3657600080fd5b8135611c4081611d63565b600080600080600080600060e0888a031215611f5c57600080fd5b8735611f6781611d63565b96506020880135611f7781611d63565b95506040880135945060608801359350608088013560ff81168114611f9b57600080fd5b9699959850939692959460a0840135945060c09093013592915050565b6020808252600d908201526c11195e158c4e881313d0d2d151609a1b604082015260600190565b60018060a01b038616815284602082015283604082015260806060820152816080820152818360a0830137600081830160a090810191909152601f909201601f19160101949350505050565b60006020828403121561203d57600080fd5b5051919050565b634e487b7160e01b600052601160045260246000fd5b818103818111156109fd576109fd612044565b80820281158282048414176109fd576109fd612044565b634e487b7160e01b600052601260045260246000fd5b6000826120a9576120a9612084565b500490565b6000600182016120c0576120c0612044565b5060010190565b600082516120d9818460208701611e0e565b9190910192915050565b6000602082840312156120f557600080fd5b81518015158114611c4057600080fd5b60008261211457612114612084565b500690565b63ffffffff82811682821603908082111561213657612136612044565b5092915050565b808201808211156109fd576109fd612044565b60006020828403121561216257600080fd5b8151611c4081611d63565b6001600160e01b0382811682821681810283169291811582850482141761219657612196612044565b50505092915050565b60006001600160e01b03838116806121b9576121b9612084565b9216919091049291505056fea2646970667358221220d1f6eb7170224690c0692ecaebc16883262429e1090504a32010ff4c8128114e64736f6c63430008120033","opcodes":"PUSH1 0x80 PUSH1 0x40 MSTORE PUSH1 0x1 PUSH1 0xD SSTORE CALLVALUE DUP1 ISZERO PUSH2 0x15 JUMPI PUSH1 0x0 DUP1 REVERT JUMPDEST POP PUSH1 0x3 DUP1 SLOAD PUSH1 0x1 PUSH1 0x1 PUSH1 0xA0 SHL SUB NOT AND CALLER OR SWAP1 SSTORE PUSH1 0x40 DUP1 MLOAD DUP1 DUP3 ADD DUP3 MSTORE PUSH1 0x6 DUP2 MSTORE PUSH6 0x444558205631 PUSH1 0xD0 SHL PUSH1 0x20 SWAP2 DUP3 ADD MSTORE DUP2 MLOAD DUP1 DUP4 ADD DUP4 MSTORE PUSH1 0x1 DUP2 MSTORE PUSH1 0x31 PUSH1 0xF8 SHL SWAP1 DUP3 ADD MSTORE DUP2 MLOAD PUSH32 0x8B73C3C69BB8FE3D512ECC4CF759CC79239F7B179B0FFACAA9A75D522B39400F SWAP2 DUP2 ADD SWAP2 SWAP1 SWAP2 MSTORE PUSH32 0x763EF677F244741A13E3FB4CBA28FBCD1FE43592D1E8A4E327E45635F621C57C SWAP2 DUP2 ADD SWAP2 SWAP1 SWAP2 MSTORE PUSH32 0xC89EFDAA54C0F20C7ADF612882DF0950F5A951637E0307CDCB4C672F298B8BC6 PUSH1 0x60 DUP3 ADD MSTORE CHAINID PUSH1 0x80 DUP3 ADD DUP2 SWAP1 MSTORE ADDRESS PUSH1 0xA0 DUP4 ADD MSTORE SWAP1 PUSH1 0xC0 ADD PUSH1 0x40 DUP1 MLOAD PUSH1 0x1F NOT DUP2 DUP5 SUB ADD DUP2 MSTORE SWAP2 SWAP1 MSTORE DUP1 MLOAD PUSH1 0x20 SWAP1 SWAP2 ADD KECCAK256 PUSH1 0x4 SSTORE POP PUSH1 0x6 DUP1 SLOAD PUSH1 0x1 PUSH1 0x1 PUSH1 0xA0 SHL SUB NOT AND CALLER OR SWAP1 SSTORE PUSH2 0x21FB DUP1 PUSH2 0x120 PUSH1 0x0 CODECOPY PUSH1 0x0 RETURN INVALID PUSH1 0x80 PUSH1 0x40 MSTORE CALLVALUE DUP1 ISZERO PUSH2 0x10 JUMPI PUSH1 0x0 DUP1 REVERT JUMPDEST POP PUSH1 0x4 CALLDATASIZE LT PUSH2 0x1C4 JUMPI PUSH1 0x0 CALLDATALOAD PUSH1 0xE0 SHR DUP1 PUSH4 0x6A627842 GT PUSH2 0xF9 JUMPI DUP1 PUSH4 0xBA9A7A56 GT PUSH2 0x97 JUMPI DUP1 PUSH4 0xD21220A7 GT PUSH2 0x71 JUMPI DUP1 PUSH4 0xD21220A7 EQ PUSH2 0x432 JUMPI DUP1 PUSH4 0xD505ACCF EQ PUSH2 0x445 JUMPI DUP1 PUSH4 0xDD62ED3E EQ PUSH2 0x458 JUMPI DUP1 PUSH4 0xFFF6CAE9 EQ PUSH2 0x483 JUMPI PUSH1 0x0 DUP1 REVERT JUMPDEST DUP1 PUSH4 0xBA9A7A56 EQ PUSH2 0x403 JUMPI DUP1 PUSH4 0xBC25CF77 EQ PUSH2 0x40C JUMPI DUP1 PUSH4 0xC45A0155 EQ PUSH2 0x41F JUMPI PUSH1 0x0 DUP1 REVERT JUMPDEST DUP1 PUSH4 0x7ECEBE00 GT PUSH2 0xD3 JUMPI DUP1 PUSH4 0x7ECEBE00 EQ PUSH2 0x383 JUMPI DUP1 PUSH4 0x89AFCB44 EQ PUSH2 0x3A3 JUMPI DUP1 PUSH4 0x95D89B41 EQ PUSH2 0x3CB JUMPI DUP1 PUSH4 0xA9059CBB EQ PUSH2 0x3F0 JUMPI PUSH1 0x0 DUP1 REVERT JUMPDEST DUP1 PUSH4 0x6A627842 EQ PUSH2 0x347 JUMPI DUP1 PUSH4 0x70A08231 EQ PUSH2 0x35A JUMPI DUP1 PUSH4 0x7464FC3D EQ PUSH2 0x37A JUMPI PUSH1 0x0 DUP1 REVERT JUMPDEST DUP1 PUSH4 0x30ADF81F GT PUSH2 0x166 JUMPI DUP1 PUSH4 0x485CC955 GT PUSH2 0x140 JUMPI DUP1 PUSH4 0x485CC955 EQ PUSH2 0x30F JUMPI DUP1 PUSH4 0x5909C0D5 EQ PUSH2 0x322 JUMPI DUP1 PUSH4 0x5A3D5493 EQ PUSH2 0x32B JUMPI DUP1 PUSH4 0x6350B2C2 EQ PUSH2 0x334 JUMPI PUSH1 0x0 DUP1 REVERT JUMPDEST DUP1 PUSH4 0x30ADF81F EQ PUSH2 0x2C5 JUMPI DUP1 PUSH4 0x313CE567 EQ PUSH2 0x2EC JUMPI DUP1 PUSH4 0x3644E515 EQ PUSH2 0x306 JUMPI PUSH1 0x0 DUP1 REVERT JUMPDEST DUP1 PUSH4 0x95EA7B3 GT PUSH2 0x1A2 JUMPI DUP1 PUSH4 0x95EA7B3 EQ PUSH2 0x24D JUMPI DUP1 PUSH4 0xDFE1681 EQ PUSH2 0x270 JUMPI DUP1 PUSH4 0x18160DDD EQ PUSH2 0x29B JUMPI DUP1 PUSH4 0x23B872DD EQ PUSH2 0x2B2 JUMPI PUSH1 0x0 DUP1 REVERT JUMPDEST DUP1 PUSH4 0x22C0D9F EQ PUSH2 0x1C9 JUMPI DUP1 PUSH4 0x6FDDE03 EQ PUSH2 0x1DE JUMPI DUP1 PUSH4 0x902F1AC EQ PUSH2 0x219 JUMPI JUMPDEST PUSH1 0x0 DUP1 REVERT JUMPDEST PUSH2 0x1DC PUSH2 0x1D7 CALLDATASIZE PUSH1 0x4 PUSH2 0x1D78 JUMP JUMPDEST PUSH2 0x48B JUMP JUMPDEST STOP JUMPDEST PUSH2 0x203 PUSH1 0x40 MLOAD DUP1 PUSH1 0x40 ADD PUSH1 0x40 MSTORE DUP1 PUSH1 0x6 DUP2 MSTORE PUSH1 0x20 ADD PUSH6 0x444558205631 PUSH1 0xD0 SHL DUP2 MSTORE POP DUP2 JUMP JUMPDEST PUSH1 0x40 MLOAD PUSH2 0x210 SWAP2 SWAP1 PUSH2 0x1E32 JUMP JUMPDEST PUSH1 0x40 MLOAD DUP1 SWAP2 SUB SWAP1 RETURN JUMPDEST PUSH2 0x221 PUSH2 0x987 JUMP JUMPDEST PUSH1 0x40 DUP1 MLOAD PUSH1 0x1 PUSH1 0x1 PUSH1 0x70 SHL SUB SWAP5 DUP6 AND DUP2 MSTORE SWAP4 SWAP1 SWAP3 AND PUSH1 0x20 DUP5 ADD MSTORE PUSH4 0xFFFFFFFF AND SWAP1 DUP3 ADD MSTORE PUSH1 0x60 ADD PUSH2 0x210 JUMP JUMPDEST PUSH2 0x260 PUSH2 0x25B CALLDATASIZE PUSH1 0x4 PUSH2 0x1E65 JUMP JUMPDEST PUSH2 0x9B1 JUMP JUMPDEST PUSH1 0x40 MLOAD SWAP1 ISZERO ISZERO DUP2 MSTORE PUSH1 0x20 ADD PUSH2 0x210 JUMP JUMPDEST PUSH1 0x7 SLOAD PUSH2 0x283 SWAP1 PUSH1 0x1 PUSH1 0x1 PUSH1 0xA0 SHL SUB AND DUP2 JUMP JUMPDEST PUSH1 0x40 MLOAD PUSH1 0x1 PUSH1 0x1 PUSH1 0xA0 SHL SUB SWAP1 SWAP2 AND DUP2 MSTORE PUSH1 0x20 ADD PUSH2 0x210 JUMP JUMPDEST PUSH2 0x2A4 PUSH1 0x0 SLOAD DUP2 JUMP JUMPDEST PUSH1 0x40 MLOAD SWAP1 DUP2 MSTORE PUSH1 0x20 ADD PUSH2 0x210 JUMP JUMPDEST PUSH2 0x260 PUSH2 0x2C0 CALLDATASIZE PUSH1 0x4 PUSH2 0x1E91 JUMP JUMPDEST PUSH2 0xA03 JUMP JUMPDEST PUSH2 0x2A4 PUSH32 0x6E71EDAE12B1B97F4D1F60370FEF10105FA2FAAE0126114A169C64845D6126C9 DUP2 JUMP JUMPDEST PUSH2 0x2F4 PUSH1 0x12 DUP2 JUMP JUMPDEST PUSH1 0x40 MLOAD PUSH1 0xFF SWAP1 SWAP2 AND DUP2 MSTORE PUSH1 0x20 ADD PUSH2 0x210 JUMP JUMPDEST PUSH2 0x2A4 PUSH1 0x4 SLOAD DUP2 JUMP JUMPDEST PUSH2 0x1DC PUSH2 0x31D CALLDATASIZE PUSH1 0x4 PUSH2 0x1ED2 JUMP JUMPDEST PUSH2 0xA7D JUMP JUMPDEST PUSH2 0x2A4 PUSH1 0xA SLOAD DUP2 JUMP JUMPDEST PUSH2 0x2A4 PUSH1 0xB SLOAD DUP2 JUMP JUMPDEST PUSH2 0x1DC PUSH2 0x342 CALLDATASIZE PUSH1 0x4 PUSH2 0x1F0B JUMP JUMPDEST PUSH2 0xAF8 JUMP JUMPDEST PUSH2 0x2A4 PUSH2 0x355 CALLDATASIZE PUSH1 0x4 PUSH2 0x1F24 JUMP JUMPDEST PUSH2 0xB4B JUMP JUMPDEST PUSH2 0x2A4 PUSH2 0x368 CALLDATASIZE PUSH1 0x4 PUSH2 0x1F24 JUMP JUMPDEST PUSH1 0x1 PUSH1 0x20 MSTORE PUSH1 0x0 SWAP1 DUP2 MSTORE PUSH1 0x40 SWAP1 KECCAK256 SLOAD DUP2 JUMP JUMPDEST PUSH2 0x2A4 PUSH1 0xC SLOAD DUP2 JUMP JUMPDEST PUSH2 0x2A4 PUSH2 0x391 CALLDATASIZE PUSH1 0x4 PUSH2 0x1F24 JUMP JUMPDEST PUSH1 0x5 PUSH1 0x20 MSTORE PUSH1 0x0 SWAP1 DUP2 MSTORE PUSH1 0x40 SWAP1 KECCAK256 SLOAD DUP2 JUMP JUMPDEST PUSH2 0x3B6 PUSH2 0x3B1 CALLDATASIZE PUSH1 0x4 PUSH2 0x1F24 JUMP JUMPDEST PUSH2 0xE14 JUMP JUMPDEST PUSH1 0x40 DUP1 MLOAD SWAP3 DUP4 MSTORE PUSH1 0x20 DUP4 ADD SWAP2 SWAP1 SWAP2 MSTORE ADD PUSH2 0x210 JUMP JUMPDEST PUSH2 0x203 PUSH1 0x40 MLOAD DUP1 PUSH1 0x40 ADD PUSH1 0x40 MSTORE DUP1 PUSH1 0x6 DUP2 MSTORE PUSH1 0x20 ADD PUSH6 0x425258205631 PUSH1 0xD0 SHL DUP2 MSTORE POP DUP2 JUMP JUMPDEST PUSH2 0x260 PUSH2 0x3FE CALLDATASIZE PUSH1 0x4 PUSH2 0x1E65 JUMP JUMPDEST PUSH2 0x1174 JUMP JUMPDEST PUSH2 0x2A4 PUSH2 0x3E8 DUP2 JUMP JUMPDEST PUSH2 0x1DC PUSH2 0x41A CALLDATASIZE PUSH1 0x4 PUSH2 0x1F24 JUMP JUMPDEST PUSH2 0x1181 JUMP JUMPDEST PUSH1 0x6 SLOAD PUSH2 0x283 SWAP1 PUSH1 0x1 PUSH1 0x1 PUSH1 0xA0 SHL SUB AND DUP2 JUMP JUMPDEST PUSH1 0x8 SLOAD PUSH2 0x283 SWAP1 PUSH1 0x1 PUSH1 0x1 PUSH1 0xA0 SHL SUB AND DUP2 JUMP JUMPDEST PUSH2 0x1DC PUSH2 0x453 CALLDATASIZE PUSH1 0x4 PUSH2 0x1F41 JUMP JUMPDEST PUSH2 0x1294 JUMP JUMPDEST PUSH2 0x2A4 PUSH2 0x466 CALLDATASIZE PUSH1 0x4 PUSH2 0x1ED2 JUMP JUMPDEST PUSH1 0x2 PUSH1 0x20 SWAP1 DUP2 MSTORE PUSH1 0x0 SWAP3 DUP4 MSTORE PUSH1 0x40 DUP1 DUP5 KECCAK256 SWAP1 SWAP2 MSTORE SWAP1 DUP3 MSTORE SWAP1 KECCAK256 SLOAD DUP2 JUMP JUMPDEST PUSH2 0x1DC PUSH2 0x14A4 JUMP JUMPDEST PUSH1 0xD SLOAD PUSH1 0x1 EQ PUSH2 0x4B6 JUMPI PUSH1 0x40 MLOAD PUSH3 0x461BCD PUSH1 0xE5 SHL DUP2 MSTORE PUSH1 0x4 ADD PUSH2 0x4AD SWAP1 PUSH2 0x1FB8 JUMP JUMPDEST PUSH1 0x40 MLOAD DUP1 SWAP2 SUB SWAP1 REVERT JUMPDEST PUSH1 0x0 PUSH1 0xD SSTORE DUP5 ISZERO ISZERO DUP1 PUSH2 0x4C9 JUMPI POP PUSH1 0x0 DUP5 GT JUMPDEST PUSH2 0x51F JUMPI PUSH1 0x40 MLOAD PUSH3 0x461BCD PUSH1 0xE5 SHL DUP2 MSTORE PUSH1 0x20 PUSH1 0x4 DUP3 ADD MSTORE PUSH1 0x21 PUSH1 0x24 DUP3 ADD MSTORE PUSH32 0x44657856313A20494E53554646494349454E545F4F55545055545F414D4F554E PUSH1 0x44 DUP3 ADD MSTORE PUSH1 0x15 PUSH1 0xFA SHL PUSH1 0x64 DUP3 ADD MSTORE PUSH1 0x84 ADD PUSH2 0x4AD JUMP JUMPDEST PUSH1 0x0 DUP1 PUSH2 0x52A PUSH2 0x987 JUMP JUMPDEST POP SWAP2 POP SWAP2 POP DUP2 PUSH1 0x1 PUSH1 0x1 PUSH1 0x70 SHL SUB AND DUP8 LT DUP1 ISZERO PUSH2 0x54F JUMPI POP DUP1 PUSH1 0x1 PUSH1 0x1 PUSH1 0x70 SHL SUB AND DUP7 LT JUMPDEST PUSH2 0x59B JUMPI PUSH1 0x40 MLOAD PUSH3 0x461BCD PUSH1 0xE5 SHL DUP2 MSTORE PUSH1 0x20 PUSH1 0x4 DUP3 ADD MSTORE PUSH1 0x1D PUSH1 0x24 DUP3 ADD MSTORE PUSH32 0x44657856313A20494E53554646494349454E545F4C4951554944495459000000 PUSH1 0x44 DUP3 ADD MSTORE PUSH1 0x64 ADD PUSH2 0x4AD JUMP JUMPDEST PUSH1 0x7 SLOAD PUSH1 0x8 SLOAD PUSH1 0x0 SWAP2 DUP3 SWAP2 PUSH1 0x1 PUSH1 0x1 PUSH1 0xA0 SHL SUB SWAP2 DUP3 AND SWAP2 SWAP1 DUP2 AND SWAP1 DUP10 AND DUP3 EQ DUP1 ISZERO SWAP1 PUSH2 0x5D9 JUMPI POP DUP1 PUSH1 0x1 PUSH1 0x1 PUSH1 0xA0 SHL SUB AND DUP10 PUSH1 0x1 PUSH1 0x1 PUSH1 0xA0 SHL SUB AND EQ ISZERO JUMPDEST PUSH2 0x61D JUMPI PUSH1 0x40 MLOAD PUSH3 0x461BCD PUSH1 0xE5 SHL DUP2 MSTORE PUSH1 0x20 PUSH1 0x4 DUP3 ADD MSTORE PUSH1 0x15 PUSH1 0x24 DUP3 ADD MSTORE PUSH21 0x556E697377617056323A20494E56414C49445F544F PUSH1 0x58 SHL PUSH1 0x44 DUP3 ADD MSTORE PUSH1 0x64 ADD PUSH2 0x4AD JUMP JUMPDEST DUP11 ISZERO PUSH2 0x62E JUMPI PUSH2 0x62E DUP3 DUP11 DUP14 PUSH2 0x15C8 JUMP JUMPDEST DUP10 ISZERO PUSH2 0x63F JUMPI PUSH2 0x63F DUP2 DUP11 DUP13 PUSH2 0x15C8 JUMP JUMPDEST DUP7 ISZERO PUSH2 0x6AC JUMPI PUSH1 0x40 MLOAD PUSH4 0x4347A17 PUSH1 0xE2 SHL DUP2 MSTORE PUSH1 0x1 PUSH1 0x1 PUSH1 0xA0 SHL SUB DUP11 AND SWAP1 PUSH4 0x10D1E85C SWAP1 PUSH2 0x679 SWAP1 CALLER SWAP1 DUP16 SWAP1 DUP16 SWAP1 DUP15 SWAP1 DUP15 SWAP1 PUSH1 0x4 ADD PUSH2 0x1FDF JUMP JUMPDEST PUSH1 0x0 PUSH1 0x40 MLOAD DUP1 DUP4 SUB DUP2 PUSH1 0x0 DUP8 DUP1 EXTCODESIZE ISZERO DUP1 ISZERO PUSH2 0x693 JUMPI PUSH1 0x0 DUP1 REVERT JUMPDEST POP GAS CALL ISZERO DUP1 ISZERO PUSH2 0x6A7 JUMPI RETURNDATASIZE PUSH1 0x0 DUP1 RETURNDATACOPY RETURNDATASIZE PUSH1 0x0 REVERT JUMPDEST POP POP POP POP JUMPDEST PUSH1 0x40 MLOAD PUSH4 0x70A08231 PUSH1 0xE0 SHL DUP2 MSTORE ADDRESS PUSH1 0x4 DUP3 ADD MSTORE PUSH1 0x1 PUSH1 0x1 PUSH1 0xA0 SHL SUB DUP4 AND SWAP1 PUSH4 0x70A08231 SWAP1 PUSH1 0x24 ADD PUSH1 0x20 PUSH1 0x40 MLOAD DUP1 DUP4 SUB DUP2 DUP7 GAS STATICCALL ISZERO DUP1 ISZERO PUSH2 0x6F0 JUMPI RETURNDATASIZE PUSH1 0x0 DUP1 RETURNDATACOPY RETURNDATASIZE PUSH1 0x0 REVERT JUMPDEST POP POP POP POP PUSH1 0x40 MLOAD RETURNDATASIZE PUSH1 0x1F NOT PUSH1 0x1F DUP3 ADD AND DUP3 ADD DUP1 PUSH1 0x40 MSTORE POP DUP2 ADD SWAP1 PUSH2 0x714 SWAP2 SWAP1 PUSH2 0x202B JUMP JUMPDEST PUSH1 0x40 MLOAD PUSH4 0x70A08231 PUSH1 0xE0 SHL DUP2 MSTORE ADDRESS PUSH1 0x4 DUP3 ADD MSTORE SWAP1 SWAP5 POP PUSH1 0x1 PUSH1 0x1 PUSH1 0xA0 SHL SUB DUP3 AND SWAP1 PUSH4 0x70A08231 SWAP1 PUSH1 0x24 ADD PUSH1 0x20 PUSH1 0x40 MLOAD DUP1 DUP4 SUB DUP2 DUP7 GAS STATICCALL ISZERO DUP1 ISZERO PUSH2 0x75B JUMPI RETURNDATASIZE PUSH1 0x0 DUP1 RETURNDATACOPY RETURNDATASIZE PUSH1 0x0 REVERT JUMPDEST POP POP POP POP PUSH1 0x40 MLOAD RETURNDATASIZE PUSH1 0x1F NOT PUSH1 0x1F DUP3 ADD AND DUP3 ADD DUP1 PUSH1 0x40 MSTORE POP DUP2 ADD SWAP1 PUSH2 0x77F SWAP2 SWAP1 PUSH2 0x202B JUMP JUMPDEST SWAP3 POP POP POP PUSH1 0x0 DUP10 DUP6 PUSH1 0x1 PUSH1 0x1 PUSH1 0x70 SHL SUB AND PUSH2 0x79A SWAP2 SWAP1 PUSH2 0x205A JUMP JUMPDEST DUP4 GT PUSH2 0x7A7 JUMPI PUSH1 0x0 PUSH2 0x7C4 JUMP JUMPDEST PUSH2 0x7BA DUP11 PUSH1 0x1 PUSH1 0x1 PUSH1 0x70 SHL SUB DUP8 AND PUSH2 0x205A JUMP JUMPDEST PUSH2 0x7C4 SWAP1 DUP5 PUSH2 0x205A JUMP JUMPDEST SWAP1 POP PUSH1 0x0 PUSH2 0x7DB DUP11 PUSH1 0x1 PUSH1 0x1 PUSH1 0x70 SHL SUB DUP8 AND PUSH2 0x205A JUMP JUMPDEST DUP4 GT PUSH2 0x7E8 JUMPI PUSH1 0x0 PUSH2 0x805 JUMP JUMPDEST PUSH2 0x7FB DUP11 PUSH1 0x1 PUSH1 0x1 PUSH1 0x70 SHL SUB DUP8 AND PUSH2 0x205A JUMP JUMPDEST PUSH2 0x805 SWAP1 DUP5 PUSH2 0x205A JUMP JUMPDEST SWAP1 POP PUSH1 0x0 DUP3 GT DUP1 PUSH2 0x816 JUMPI POP PUSH1 0x0 DUP2 GT JUMPDEST PUSH2 0x862 JUMPI PUSH1 0x40 MLOAD PUSH3 0x461BCD PUSH1 0xE5 SHL DUP2 MSTORE PUSH1 0x20 PUSH1 0x4 DUP3 ADD DUP2 SWAP1 MSTORE PUSH1 0x24 DUP3 ADD MSTORE PUSH32 0x44657856313A20494E53554646494349454E545F494E5055545F414D4F554E54 PUSH1 0x44 DUP3 ADD MSTORE PUSH1 0x64 ADD PUSH2 0x4AD JUMP JUMPDEST PUSH1 0x0 PUSH2 0x86F DUP4 PUSH1 0x3 PUSH2 0x206D JUMP JUMPDEST PUSH2 0x87B DUP7 PUSH2 0x3E8 PUSH2 0x206D JUMP JUMPDEST PUSH2 0x885 SWAP2 SWAP1 PUSH2 0x205A JUMP JUMPDEST SWAP1 POP PUSH1 0x0 PUSH2 0x894 DUP4 PUSH1 0x3 PUSH2 0x206D JUMP JUMPDEST PUSH2 0x8A0 DUP7 PUSH2 0x3E8 PUSH2 0x206D JUMP JUMPDEST PUSH2 0x8AA SWAP2 SWAP1 PUSH2 0x205A JUMP JUMPDEST SWAP1 POP PUSH2 0x8C2 PUSH1 0x1 PUSH1 0x1 PUSH1 0x70 SHL SUB DUP1 DUP10 AND SWAP1 DUP11 AND PUSH2 0x206D JUMP JUMPDEST PUSH2 0x8CF SWAP1 PUSH3 0xF4240 PUSH2 0x206D JUMP JUMPDEST PUSH2 0x8D9 DUP3 DUP5 PUSH2 0x206D JUMP JUMPDEST LT ISZERO PUSH2 0x912 JUMPI PUSH1 0x40 MLOAD PUSH3 0x461BCD PUSH1 0xE5 SHL DUP2 MSTORE PUSH1 0x20 PUSH1 0x4 DUP3 ADD MSTORE PUSH1 0x8 PUSH1 0x24 DUP3 ADD MSTORE PUSH8 0x44657856313A204B PUSH1 0xC0 SHL PUSH1 0x44 DUP3 ADD MSTORE PUSH1 0x64 ADD PUSH2 0x4AD JUMP JUMPDEST POP POP PUSH2 0x920 DUP5 DUP5 DUP9 DUP9 PUSH2 0x170C JUMP JUMPDEST PUSH1 0x40 DUP1 MLOAD DUP4 DUP2 MSTORE PUSH1 0x20 DUP2 ADD DUP4 SWAP1 MSTORE SWAP1 DUP2 ADD DUP13 SWAP1 MSTORE PUSH1 0x60 DUP2 ADD DUP12 SWAP1 MSTORE PUSH1 0x1 PUSH1 0x1 PUSH1 0xA0 SHL SUB DUP11 AND SWAP1 CALLER SWAP1 PUSH32 0xD78AD95FA46C994B6551D0DA85FC275FE613CE37657FB8D5E3D130840159D822 SWAP1 PUSH1 0x80 ADD PUSH1 0x40 MLOAD DUP1 SWAP2 SUB SWAP1 LOG3 POP POP PUSH1 0x1 PUSH1 0xD SSTORE POP POP POP POP POP POP POP POP POP JUMP JUMPDEST PUSH1 0x9 SLOAD PUSH1 0x1 PUSH1 0x1 PUSH1 0x70 SHL SUB DUP1 DUP3 AND SWAP3 PUSH1 0x1 PUSH1 0x70 SHL DUP4 DIV SWAP1 SWAP2 AND SWAP2 PUSH1 0x1 PUSH1 0xE0 SHL SWAP1 DIV PUSH4 0xFFFFFFFF AND SWAP1 JUMP JUMPDEST PUSH1 0x0 DUP1 DUP3 GT PUSH2 0x9EE JUMPI PUSH1 0x40 MLOAD PUSH3 0x461BCD PUSH1 0xE5 SHL DUP2 MSTORE PUSH1 0x20 PUSH1 0x4 DUP3 ADD MSTORE PUSH1 0x9 PUSH1 0x24 DUP3 ADD MSTORE PUSH9 0x4D696E696D756D2031 PUSH1 0xB8 SHL PUSH1 0x44 DUP3 ADD MSTORE PUSH1 0x64 ADD PUSH2 0x4AD JUMP JUMPDEST PUSH2 0x9F9 CALLER DUP5 DUP5 PUSH2 0x18F4 JUMP JUMPDEST POP PUSH1 0x1 JUMPDEST SWAP3 SWAP2 POP POP JUMP JUMPDEST PUSH1 0x1 PUSH1 0x1 PUSH1 0xA0 SHL SUB DUP4 AND PUSH1 0x0 SWAP1 DUP2 MSTORE PUSH1 0x2 PUSH1 0x20 SWAP1 DUP2 MSTORE PUSH1 0x40 DUP1 DUP4 KECCAK256 CALLER DUP5 MSTORE SWAP1 SWAP2 MSTORE DUP2 KECCAK256 SLOAD PUSH1 0x0 NOT EQ PUSH2 0xA68 JUMPI PUSH1 0x1 PUSH1 0x1 PUSH1 0xA0 SHL SUB DUP5 AND PUSH1 0x0 SWAP1 DUP2 MSTORE PUSH1 0x2 PUSH1 0x20 SWAP1 DUP2 MSTORE PUSH1 0x40 DUP1 DUP4 KECCAK256 CALLER DUP5 MSTORE SWAP1 SWAP2 MSTORE DUP2 KECCAK256 DUP1 SLOAD DUP5 SWAP3 SWAP1 PUSH2 0xA62 SWAP1 DUP5 SWAP1 PUSH2 0x205A JUMP JUMPDEST SWAP1 SWAP2 SSTORE POP POP JUMPDEST PUSH2 0xA73 DUP5 DUP5 DUP5 PUSH2 0x1956 JUMP JUMPDEST POP PUSH1 0x1 SWAP4 SWAP3 POP POP POP JUMP JUMPDEST PUSH1 0x6 SLOAD PUSH1 0x1 PUSH1 0x1 PUSH1 0xA0 SHL SUB AND CALLER EQ PUSH2 0xACA JUMPI PUSH1 0x40 MLOAD PUSH3 0x461BCD PUSH1 0xE5 SHL DUP2 MSTORE PUSH1 0x20 PUSH1 0x4 DUP3 ADD MSTORE PUSH1 0x10 PUSH1 0x24 DUP3 ADD MSTORE PUSH16 0x2232BC2B189D102327A92124A22222A7 PUSH1 0x81 SHL PUSH1 0x44 DUP3 ADD MSTORE PUSH1 0x64 ADD PUSH2 0x4AD JUMP JUMPDEST PUSH1 0x7 DUP1 SLOAD PUSH1 0x1 PUSH1 0x1 PUSH1 0xA0 SHL SUB SWAP4 DUP5 AND PUSH1 0x1 PUSH1 0x1 PUSH1 0xA0 SHL SUB NOT SWAP2 DUP3 AND OR SWAP1 SWAP2 SSTORE PUSH1 0x8 DUP1 SLOAD SWAP3 SWAP1 SWAP4 AND SWAP2 AND OR SWAP1 SSTORE JUMP JUMPDEST PUSH1 0x3 SLOAD PUSH1 0x1 PUSH1 0x1 PUSH1 0xA0 SHL SUB AND CALLER EQ PUSH2 0xB3E JUMPI PUSH1 0x40 MLOAD PUSH3 0x461BCD PUSH1 0xE5 SHL DUP2 MSTORE PUSH1 0x20 PUSH1 0x4 DUP3 ADD MSTORE PUSH1 0x9 PUSH1 0x24 DUP3 ADD MSTORE PUSH9 0x2737BA1027BBB732B9 PUSH1 0xB9 SHL PUSH1 0x44 DUP3 ADD MSTORE PUSH1 0x64 ADD PUSH2 0x4AD JUMP JUMPDEST PUSH2 0xB48 CALLER DUP3 PUSH2 0x19F7 JUMP JUMPDEST POP JUMP JUMPDEST PUSH1 0x0 PUSH1 0xD SLOAD PUSH1 0x1 EQ PUSH2 0xB6F JUMPI PUSH1 0x40 MLOAD PUSH3 0x461BCD PUSH1 0xE5 SHL DUP2 MSTORE PUSH1 0x4 ADD PUSH2 0x4AD SWAP1 PUSH2 0x1FB8 JUMP JUMPDEST PUSH1 0x0 PUSH1 0xD DUP2 SWAP1 SSTORE DUP1 PUSH2 0xB7F PUSH2 0x987 JUMP JUMPDEST POP PUSH1 0x7 SLOAD PUSH1 0x40 MLOAD PUSH4 0x70A08231 PUSH1 0xE0 SHL DUP2 MSTORE ADDRESS PUSH1 0x4 DUP3 ADD MSTORE SWAP3 SWAP5 POP SWAP1 SWAP3 POP PUSH1 0x0 SWAP2 PUSH1 0x1 PUSH1 0x1 PUSH1 0xA0 SHL SUB SWAP1 SWAP2 AND SWAP1 PUSH4 0x70A08231 SWAP1 PUSH1 0x24 ADD PUSH1 0x20 PUSH1 0x40 MLOAD DUP1 DUP4 SUB DUP2 DUP7 GAS STATICCALL ISZERO DUP1 ISZERO PUSH2 0xBD1 JUMPI RETURNDATASIZE PUSH1 0x0 DUP1 RETURNDATACOPY RETURNDATASIZE PUSH1 0x0 REVERT JUMPDEST POP POP POP POP PUSH1 0x40 MLOAD RETURNDATASIZE PUSH1 0x1F NOT PUSH1 0x1F DUP3 ADD AND DUP3 ADD DUP1 PUSH1 0x40 MSTORE POP DUP2 ADD SWAP1 PUSH2 0xBF5 SWAP2 SWAP1 PUSH2 0x202B JUMP JUMPDEST PUSH1 0x8 SLOAD PUSH1 0x40 MLOAD PUSH4 0x70A08231 PUSH1 0xE0 SHL DUP2 MSTORE ADDRESS PUSH1 0x4 DUP3 ADD MSTORE SWAP2 SWAP3 POP PUSH1 0x0 SWAP2 PUSH1 0x1 PUSH1 0x1 PUSH1 0xA0 SHL SUB SWAP1 SWAP2 AND SWAP1 PUSH4 0x70A08231 SWAP1 PUSH1 0x24 ADD PUSH1 0x20 PUSH1 0x40 MLOAD DUP1 DUP4 SUB DUP2 DUP7 GAS STATICCALL ISZERO DUP1 ISZERO PUSH2 0xC43 JUMPI RETURNDATASIZE PUSH1 0x0 DUP1 RETURNDATACOPY RETURNDATASIZE PUSH1 0x0 REVERT JUMPDEST POP POP POP POP PUSH1 0x40 MLOAD RETURNDATASIZE PUSH1 0x1F NOT PUSH1 0x1F DUP3 ADD AND DUP3 ADD DUP1 PUSH1 0x40 MSTORE POP DUP2 ADD SWAP1 PUSH2 0xC67 SWAP2 SWAP1 PUSH2 0x202B JUMP JUMPDEST SWAP1 POP PUSH1 0x0 PUSH2 0xC7E PUSH1 0x1 PUSH1 0x1 PUSH1 0x70 SHL SUB DUP7 AND DUP5 PUSH2 0x205A JUMP JUMPDEST SWAP1 POP PUSH1 0x0 PUSH2 0xC95 PUSH1 0x1 PUSH1 0x1 PUSH1 0x70 SHL SUB DUP7 AND DUP5 PUSH2 0x205A JUMP JUMPDEST SWAP1 POP PUSH1 0x0 PUSH2 0xCA3 DUP8 DUP8 PUSH2 0x1A80 JUMP JUMPDEST PUSH1 0x0 DUP1 SLOAD SWAP2 SWAP3 POP DUP2 SWAP1 SUB PUSH2 0xCE4 JUMPI PUSH2 0x3E8 PUSH2 0xCC6 PUSH2 0xCC1 DUP6 DUP8 PUSH2 0x206D JUMP JUMPDEST PUSH2 0x1BBF JUMP JUMPDEST PUSH2 0xCD0 SWAP2 SWAP1 PUSH2 0x205A JUMP JUMPDEST SWAP9 POP PUSH2 0xCDF PUSH1 0x0 PUSH2 0x3E8 PUSH2 0x19F7 JUMP JUMPDEST PUSH2 0xD2B JUMP JUMPDEST PUSH2 0xD28 PUSH1 0x1 PUSH1 0x1 PUSH1 0x70 SHL SUB DUP10 AND PUSH2 0xCFB DUP4 DUP8 PUSH2 0x206D JUMP JUMPDEST PUSH2 0xD05 SWAP2 SWAP1 PUSH2 0x209A JUMP JUMPDEST PUSH1 0x1 PUSH1 0x1 PUSH1 0x70 SHL SUB DUP10 AND PUSH2 0xD19 DUP5 DUP8 PUSH2 0x206D JUMP JUMPDEST PUSH2 0xD23 SWAP2 SWAP1 PUSH2 0x209A JUMP JUMPDEST PUSH2 0x1C2F JUMP JUMPDEST SWAP9 POP JUMPDEST PUSH1 0x0 DUP10 GT PUSH2 0xD87 JUMPI PUSH1 0x40 MLOAD PUSH3 0x461BCD PUSH1 0xE5 SHL DUP2 MSTORE PUSH1 0x20 PUSH1 0x4 DUP3 ADD MSTORE PUSH1 0x24 DUP1 DUP3 ADD MSTORE PUSH32 0x44657856313A20494E53554646494349454E545F4C49515549444954595F4D49 PUSH1 0x44 DUP3 ADD MSTORE PUSH4 0x13951151 PUSH1 0xE2 SHL PUSH1 0x64 DUP3 ADD MSTORE PUSH1 0x84 ADD PUSH2 0x4AD JUMP JUMPDEST PUSH2 0xD91 DUP11 DUP11 PUSH2 0x19F7 JUMP JUMPDEST PUSH2 0xD9D DUP7 DUP7 DUP11 DUP11 PUSH2 0x170C JUMP JUMPDEST DUP2 ISZERO PUSH2 0xDC6 JUMPI PUSH1 0x9 SLOAD PUSH2 0xDC2 SWAP1 PUSH1 0x1 PUSH1 0x1 PUSH1 0x70 SHL SUB PUSH1 0x1 PUSH1 0x70 SHL DUP3 DIV DUP2 AND SWAP2 AND PUSH2 0x206D JUMP JUMPDEST PUSH1 0xC SSTORE JUMPDEST PUSH1 0x40 DUP1 MLOAD DUP6 DUP2 MSTORE PUSH1 0x20 DUP2 ADD DUP6 SWAP1 MSTORE CALLER SWAP2 PUSH32 0x4C209B5FC8AD50758F13E2E1088BA56A560DFF690A1C6FEF26394F4C03821C4F SWAP2 ADD PUSH1 0x40 MLOAD DUP1 SWAP2 SUB SWAP1 LOG2 POP POP PUSH1 0x1 PUSH1 0xD SSTORE POP SWAP5 SWAP7 SWAP6 POP POP POP POP POP POP JUMP JUMPDEST PUSH1 0x0 DUP1 PUSH1 0xD SLOAD PUSH1 0x1 EQ PUSH2 0xE39 JUMPI PUSH1 0x40 MLOAD PUSH3 0x461BCD PUSH1 0xE5 SHL DUP2 MSTORE PUSH1 0x4 ADD PUSH2 0x4AD SWAP1 PUSH2 0x1FB8 JUMP JUMPDEST PUSH1 0x0 PUSH1 0xD DUP2 SWAP1 SSTORE DUP1 PUSH2 0xE49 PUSH2 0x987 JUMP JUMPDEST POP PUSH1 0x7 SLOAD PUSH1 0x8 SLOAD PUSH1 0x40 MLOAD PUSH4 0x70A08231 PUSH1 0xE0 SHL DUP2 MSTORE ADDRESS PUSH1 0x4 DUP3 ADD MSTORE SWAP4 SWAP6 POP SWAP2 SWAP4 POP PUSH1 0x1 PUSH1 0x1 PUSH1 0xA0 SHL SUB SWAP1 DUP2 AND SWAP3 SWAP2 AND SWAP1 PUSH1 0x0 SWAP1 DUP4 SWAP1 PUSH4 0x70A08231 SWAP1 PUSH1 0x24 ADD PUSH1 0x20 PUSH1 0x40 MLOAD DUP1 DUP4 SUB DUP2 DUP7 GAS STATICCALL ISZERO DUP1 ISZERO PUSH2 0xEA3 JUMPI RETURNDATASIZE PUSH1 0x0 DUP1 RETURNDATACOPY RETURNDATASIZE PUSH1 0x0 REVERT JUMPDEST POP POP POP POP PUSH1 0x40 MLOAD RETURNDATASIZE PUSH1 0x1F NOT PUSH1 0x1F DUP3 ADD AND DUP3 ADD DUP1 PUSH1 0x40 MSTORE POP DUP2 ADD SWAP1 PUSH2 0xEC7 SWAP2 SWAP1 PUSH2 0x202B JUMP JUMPDEST PUSH1 0x40 MLOAD PUSH4 0x70A08231 PUSH1 0xE0 SHL DUP2 MSTORE ADDRESS PUSH1 0x4 DUP3 ADD MSTORE SWAP1 SWAP2 POP PUSH1 0x0 SWAP1 PUSH1 0x1 PUSH1 0x1 PUSH1 0xA0 SHL SUB DUP5 AND SWAP1 PUSH4 0x70A08231 SWAP1 PUSH1 0x24 ADD PUSH1 0x20 PUSH1 0x40 MLOAD DUP1 DUP4 SUB DUP2 DUP7 GAS STATICCALL ISZERO DUP1 ISZERO PUSH2 0xF11 JUMPI RETURNDATASIZE PUSH1 0x0 DUP1 RETURNDATACOPY RETURNDATASIZE PUSH1 0x0 REVERT JUMPDEST POP POP POP POP PUSH1 0x40 MLOAD RETURNDATASIZE PUSH1 0x1F NOT PUSH1 0x1F DUP3 ADD AND DUP3 ADD DUP1 PUSH1 0x40 MSTORE POP DUP2 ADD SWAP1 PUSH2 0xF35 SWAP2 SWAP1 PUSH2 0x202B JUMP JUMPDEST ADDRESS PUSH1 0x0 SWAP1 DUP2 MSTORE PUSH1 0x1 PUSH1 0x20 MSTORE PUSH1 0x40 DUP2 KECCAK256 SLOAD SWAP2 SWAP3 POP PUSH2 0xF52 DUP9 DUP9 PUSH2 0x1A80 JUMP JUMPDEST PUSH1 0x0 SLOAD SWAP1 SWAP2 POP DUP1 PUSH2 0xF63 DUP7 DUP6 PUSH2 0x206D JUMP JUMPDEST PUSH2 0xF6D SWAP2 SWAP1 PUSH2 0x209A JUMP JUMPDEST SWAP11 POP DUP1 PUSH2 0xF7A DUP6 DUP6 PUSH2 0x206D JUMP JUMPDEST PUSH2 0xF84 SWAP2 SWAP1 PUSH2 0x209A JUMP JUMPDEST SWAP10 POP PUSH1 0x0 DUP12 GT DUP1 ISZERO PUSH2 0xF96 JUMPI POP PUSH1 0x0 DUP11 GT JUMPDEST PUSH2 0xFEE JUMPI PUSH1 0x40 MLOAD PUSH3 0x461BCD PUSH1 0xE5 SHL DUP2 MSTORE PUSH1 0x20 PUSH1 0x4 DUP3 ADD MSTORE PUSH1 0x24 DUP1 DUP3 ADD MSTORE PUSH32 0x44657856313A20494E53554646494349454E545F4C49515549444954595F4255 PUSH1 0x44 DUP3 ADD MSTORE PUSH4 0x14939151 PUSH1 0xE2 SHL PUSH1 0x64 DUP3 ADD MSTORE PUSH1 0x84 ADD PUSH2 0x4AD JUMP JUMPDEST PUSH2 0xFF8 ADDRESS DUP5 PUSH2 0x1C47 JUMP JUMPDEST PUSH2 0x1003 DUP8 DUP14 DUP14 PUSH2 0x15C8 JUMP JUMPDEST PUSH2 0x100E DUP7 DUP14 DUP13 PUSH2 0x15C8 JUMP JUMPDEST PUSH1 0x40 MLOAD PUSH4 0x70A08231 PUSH1 0xE0 SHL DUP2 MSTORE ADDRESS PUSH1 0x4 DUP3 ADD MSTORE PUSH1 0x1 PUSH1 0x1 PUSH1 0xA0 SHL SUB DUP9 AND SWAP1 PUSH4 0x70A08231 SWAP1 PUSH1 0x24 ADD PUSH1 0x20 PUSH1 0x40 MLOAD DUP1 DUP4 SUB DUP2 DUP7 GAS STATICCALL ISZERO DUP1 ISZERO PUSH2 0x1052 JUMPI RETURNDATASIZE PUSH1 0x0 DUP1 RETURNDATACOPY RETURNDATASIZE PUSH1 0x0 REVERT JUMPDEST POP POP POP POP PUSH1 0x40 MLOAD RETURNDATASIZE PUSH1 0x1F NOT PUSH1 0x1F DUP3 ADD AND DUP3 ADD DUP1 PUSH1 0x40 MSTORE POP DUP2 ADD SWAP1 PUSH2 0x1076 SWAP2 SWAP1 PUSH2 0x202B JUMP JUMPDEST PUSH1 0x40 MLOAD PUSH4 0x70A08231 PUSH1 0xE0 SHL DUP2 MSTORE ADDRESS PUSH1 0x4 DUP3 ADD MSTORE SWAP1 SWAP6 POP PUSH1 0x1 PUSH1 0x1 PUSH1 0xA0 SHL SUB DUP8 AND SWAP1 PUSH4 0x70A08231 SWAP1 PUSH1 0x24 ADD PUSH1 0x20 PUSH1 0x40 MLOAD DUP1 DUP4 SUB DUP2 DUP7 GAS STATICCALL ISZERO DUP1 ISZERO PUSH2 0x10BD JUMPI RETURNDATASIZE PUSH1 0x0 DUP1 RETURNDATACOPY RETURNDATASIZE PUSH1 0x0 REVERT JUMPDEST POP POP POP POP PUSH1 0x40 MLOAD RETURNDATASIZE PUSH1 0x1F NOT PUSH1 0x1F DUP3 ADD AND DUP3 ADD DUP1 PUSH1 0x40 MSTORE POP DUP2 ADD SWAP1 PUSH2 0x10E1 SWAP2 SWAP1 PUSH2 0x202B JUMP JUMPDEST SWAP4 POP PUSH2 0x10EF DUP6 DUP6 DUP12 DUP12 PUSH2 0x170C JUMP JUMPDEST DUP2 ISZERO PUSH2 0x1118 JUMPI PUSH1 0x9 SLOAD PUSH2 0x1114 SWAP1 PUSH1 0x1 PUSH1 0x1 PUSH1 0x70 SHL SUB PUSH1 0x1 PUSH1 0x70 SHL DUP3 DIV DUP2 AND SWAP2 AND PUSH2 0x206D JUMP JUMPDEST PUSH1 0xC SSTORE JUMPDEST PUSH1 0x40 DUP1 MLOAD DUP13 DUP2 MSTORE PUSH1 0x20 DUP2 ADD DUP13 SWAP1 MSTORE PUSH1 0x1 PUSH1 0x1 PUSH1 0xA0 SHL SUB DUP15 AND SWAP2 CALLER SWAP2 PUSH32 0xDCCD412F0B1252819CB1FD330B93224CA42612892BB3F4F789976E6D81936496 SWAP2 ADD PUSH1 0x40 MLOAD DUP1 SWAP2 SUB SWAP1 LOG3 POP POP POP POP POP POP POP POP POP PUSH1 0x1 PUSH1 0xD DUP2 SWAP1 SSTORE POP SWAP2 POP SWAP2 JUMP JUMPDEST PUSH1 0x0 PUSH2 0x9F9 CALLER DUP5 DUP5 PUSH2 0x1956 JUMP JUMPDEST PUSH1 0xD SLOAD PUSH1 0x1 EQ PUSH2 0x11A3 JUMPI PUSH1 0x40 MLOAD PUSH3 0x461BCD PUSH1 0xE5 SHL DUP2 MSTORE PUSH1 0x4 ADD PUSH2 0x4AD SWAP1 PUSH2 0x1FB8 JUMP JUMPDEST PUSH1 0x0 PUSH1 0xD SSTORE PUSH1 0x7 SLOAD PUSH1 0x8 SLOAD PUSH1 0x9 SLOAD PUSH1 0x40 MLOAD PUSH4 0x70A08231 PUSH1 0xE0 SHL DUP2 MSTORE ADDRESS PUSH1 0x4 DUP3 ADD MSTORE PUSH1 0x1 PUSH1 0x1 PUSH1 0xA0 SHL SUB SWAP4 DUP5 AND SWAP4 SWAP1 SWAP3 AND SWAP2 PUSH2 0x1242 SWAP2 DUP5 SWAP2 DUP7 SWAP2 PUSH1 0x1 PUSH1 0x1 PUSH1 0x70 SHL SUB AND SWAP1 DUP4 SWAP1 PUSH4 0x70A08231 SWAP1 PUSH1 0x24 ADD JUMPDEST PUSH1 0x20 PUSH1 0x40 MLOAD DUP1 DUP4 SUB DUP2 DUP7 GAS STATICCALL ISZERO DUP1 ISZERO PUSH2 0x120F JUMPI RETURNDATASIZE PUSH1 0x0 DUP1 RETURNDATACOPY RETURNDATASIZE PUSH1 0x0 REVERT JUMPDEST POP POP POP POP PUSH1 0x40 MLOAD RETURNDATASIZE PUSH1 0x1F NOT PUSH1 0x1F DUP3 ADD AND DUP3 ADD DUP1 PUSH1 0x40 MSTORE POP DUP2 ADD SWAP1 PUSH2 0x1233 SWAP2 SWAP1 PUSH2 0x202B JUMP JUMPDEST PUSH2 0x123D SWAP2 SWAP1 PUSH2 0x205A JUMP JUMPDEST PUSH2 0x15C8 JUMP JUMPDEST PUSH1 0x9 SLOAD PUSH1 0x40 MLOAD PUSH4 0x70A08231 PUSH1 0xE0 SHL DUP2 MSTORE ADDRESS PUSH1 0x4 DUP3 ADD MSTORE PUSH2 0x128A SWAP2 DUP4 SWAP2 DUP7 SWAP2 PUSH1 0x1 PUSH1 0x70 SHL SWAP1 DIV PUSH1 0x1 PUSH1 0x1 PUSH1 0x70 SHL SUB AND SWAP1 PUSH1 0x1 PUSH1 0x1 PUSH1 0xA0 SHL SUB DUP5 AND SWAP1 PUSH4 0x70A08231 SWAP1 PUSH1 0x24 ADD PUSH2 0x11F2 JUMP JUMPDEST POP POP PUSH1 0x1 PUSH1 0xD SSTORE POP JUMP JUMPDEST TIMESTAMP DUP5 LT ISZERO PUSH2 0x12D5 JUMPI PUSH1 0x40 MLOAD PUSH3 0x461BCD PUSH1 0xE5 SHL DUP2 MSTORE PUSH1 0x20 PUSH1 0x4 DUP3 ADD MSTORE PUSH1 0xE PUSH1 0x24 DUP3 ADD MSTORE PUSH14 0x11195E158C4E8811561412549151 PUSH1 0x92 SHL PUSH1 0x44 DUP3 ADD MSTORE PUSH1 0x64 ADD PUSH2 0x4AD JUMP JUMPDEST PUSH1 0x4 SLOAD PUSH1 0x1 PUSH1 0x1 PUSH1 0xA0 SHL SUB DUP9 AND PUSH1 0x0 SWAP1 DUP2 MSTORE PUSH1 0x5 PUSH1 0x20 MSTORE PUSH1 0x40 DUP2 KECCAK256 DUP1 SLOAD SWAP2 SWAP3 SWAP2 PUSH32 0x6E71EDAE12B1B97F4D1F60370FEF10105FA2FAAE0126114A169C64845D6126C9 SWAP2 DUP12 SWAP2 DUP12 SWAP2 DUP12 SWAP2 SWAP1 DUP8 PUSH2 0x1328 DUP4 PUSH2 0x20AE JUMP JUMPDEST SWAP1 SWAP2 SSTORE POP PUSH1 0x40 DUP1 MLOAD PUSH1 0x20 DUP2 ADD SWAP7 SWAP1 SWAP7 MSTORE PUSH1 0x1 PUSH1 0x1 PUSH1 0xA0 SHL SUB SWAP5 DUP6 AND SWAP1 DUP7 ADD MSTORE SWAP3 SWAP1 SWAP2 AND PUSH1 0x60 DUP5 ADD MSTORE PUSH1 0x80 DUP4 ADD MSTORE PUSH1 0xA0 DUP3 ADD MSTORE PUSH1 0xC0 DUP2 ADD DUP8 SWAP1 MSTORE PUSH1 0xE0 ADD PUSH1 0x40 MLOAD PUSH1 0x20 DUP2 DUP4 SUB SUB DUP2 MSTORE SWAP1 PUSH1 0x40 MSTORE DUP1 MLOAD SWAP1 PUSH1 0x20 ADD KECCAK256 PUSH1 0x40 MLOAD PUSH1 0x20 ADD PUSH2 0x13A1 SWAP3 SWAP2 SWAP1 PUSH2 0x1901 PUSH1 0xF0 SHL DUP2 MSTORE PUSH1 0x2 DUP2 ADD SWAP3 SWAP1 SWAP3 MSTORE PUSH1 0x22 DUP3 ADD MSTORE PUSH1 0x42 ADD SWAP1 JUMP JUMPDEST PUSH1 0x40 DUP1 MLOAD PUSH1 0x1F NOT DUP2 DUP5 SUB ADD DUP2 MSTORE DUP3 DUP3 MSTORE DUP1 MLOAD PUSH1 0x20 SWAP2 DUP3 ADD KECCAK256 PUSH1 0x0 DUP1 DUP6 MSTORE SWAP2 DUP5 ADD DUP1 DUP5 MSTORE DUP2 SWAP1 MSTORE PUSH1 0xFF DUP9 AND SWAP3 DUP5 ADD SWAP3 SWAP1 SWAP3 MSTORE PUSH1 0x60 DUP4 ADD DUP7 SWAP1 MSTORE PUSH1 0x80 DUP4 ADD DUP6 SWAP1 MSTORE SWAP1 SWAP3 POP SWAP1 PUSH1 0x1 SWAP1 PUSH1 0xA0 ADD PUSH1 0x20 PUSH1 0x40 MLOAD PUSH1 0x20 DUP2 SUB SWAP1 DUP1 DUP5 SUB SWAP1 DUP6 GAS STATICCALL ISZERO DUP1 ISZERO PUSH2 0x140C JUMPI RETURNDATASIZE PUSH1 0x0 DUP1 RETURNDATACOPY RETURNDATASIZE PUSH1 0x0 REVERT JUMPDEST POP POP PUSH1 0x40 MLOAD PUSH1 0x1F NOT ADD MLOAD SWAP2 POP POP PUSH1 0x1 PUSH1 0x1 PUSH1 0xA0 SHL SUB DUP2 AND ISZERO DUP1 ISZERO SWAP1 PUSH2 0x1442 JUMPI POP DUP9 PUSH1 0x1 PUSH1 0x1 PUSH1 0xA0 SHL SUB AND DUP2 PUSH1 0x1 PUSH1 0x1 PUSH1 0xA0 SHL SUB AND EQ JUMPDEST PUSH2 0x148E JUMPI PUSH1 0x40 MLOAD PUSH3 0x461BCD PUSH1 0xE5 SHL DUP2 MSTORE PUSH1 0x20 PUSH1 0x4 DUP3 ADD MSTORE PUSH1 0x18 PUSH1 0x24 DUP3 ADD MSTORE PUSH32 0x44657856313A20494E56414C49445F5349474E41545552450000000000000000 PUSH1 0x44 DUP3 ADD MSTORE PUSH1 0x64 ADD PUSH2 0x4AD JUMP JUMPDEST PUSH2 0x1499 DUP10 DUP10 DUP10 PUSH2 0x1CDC JUMP JUMPDEST POP POP POP POP POP POP POP POP POP JUMP JUMPDEST PUSH1 0xD SLOAD PUSH1 0x1 EQ PUSH2 0x14C6 JUMPI PUSH1 0x40 MLOAD PUSH3 0x461BCD PUSH1 0xE5 SHL DUP2 MSTORE PUSH1 0x4 ADD PUSH2 0x4AD SWAP1 PUSH2 0x1FB8 JUMP JUMPDEST PUSH1 0x0 PUSH1 0xD SSTORE PUSH1 0x7 SLOAD PUSH1 0x40 MLOAD PUSH4 0x70A08231 PUSH1 0xE0 SHL DUP2 MSTORE ADDRESS PUSH1 0x4 DUP3 ADD MSTORE PUSH2 0x15C1 SWAP2 PUSH1 0x1 PUSH1 0x1 PUSH1 0xA0 SHL SUB AND SWAP1 PUSH4 0x70A08231 SWAP1 PUSH1 0x24 ADD PUSH1 0x20 PUSH1 0x40 MLOAD DUP1 DUP4 SUB DUP2 DUP7 GAS STATICCALL ISZERO DUP1 ISZERO PUSH2 0x1515 JUMPI RETURNDATASIZE PUSH1 0x0 DUP1 RETURNDATACOPY RETURNDATASIZE PUSH1 0x0 REVERT JUMPDEST POP POP POP POP PUSH1 0x40 MLOAD RETURNDATASIZE PUSH1 0x1F NOT PUSH1 0x1F DUP3 ADD AND DUP3 ADD DUP1 PUSH1 0x40 MSTORE POP DUP2 ADD SWAP1 PUSH2 0x1539 SWAP2 SWAP1 PUSH2 0x202B JUMP JUMPDEST PUSH1 0x8 SLOAD PUSH1 0x40 MLOAD PUSH4 0x70A08231 PUSH1 0xE0 SHL DUP2 MSTORE ADDRESS PUSH1 0x4 DUP3 ADD MSTORE PUSH1 0x1 PUSH1 0x1 PUSH1 0xA0 SHL SUB SWAP1 SWAP2 AND SWAP1 PUSH4 0x70A08231 SWAP1 PUSH1 0x24 ADD PUSH1 0x20 PUSH1 0x40 MLOAD DUP1 DUP4 SUB DUP2 DUP7 GAS STATICCALL ISZERO DUP1 ISZERO PUSH2 0x1581 JUMPI RETURNDATASIZE PUSH1 0x0 DUP1 RETURNDATACOPY RETURNDATASIZE PUSH1 0x0 REVERT JUMPDEST POP POP POP POP PUSH1 0x40 MLOAD RETURNDATASIZE PUSH1 0x1F NOT PUSH1 0x1F DUP3 ADD AND DUP3 ADD DUP1 PUSH1 0x40 MSTORE POP DUP2 ADD SWAP1 PUSH2 0x15A5 SWAP2 SWAP1 PUSH2 0x202B JUMP JUMPDEST PUSH1 0x9 SLOAD PUSH1 0x1 PUSH1 0x1 PUSH1 0x70 SHL SUB DUP1 DUP3 AND SWAP2 PUSH1 0x1 PUSH1 0x70 SHL SWAP1 DIV AND PUSH2 0x170C JUMP JUMPDEST PUSH1 0x1 PUSH1 0xD SSTORE JUMP JUMPDEST PUSH1 0x40 DUP1 MLOAD DUP1 DUP3 ADD DUP3 MSTORE PUSH1 0x19 DUP2 MSTORE PUSH32 0x7472616E7366657228616464726573732C75696E743235362900000000000000 PUSH1 0x20 SWAP2 DUP3 ADD MSTORE DUP2 MLOAD PUSH1 0x1 PUSH1 0x1 PUSH1 0xA0 SHL SUB DUP6 DUP2 AND PUSH1 0x24 DUP4 ADD MSTORE PUSH1 0x44 DUP1 DUP4 ADD DUP7 SWAP1 MSTORE DUP5 MLOAD DUP1 DUP5 SUB SWAP1 SWAP2 ADD DUP2 MSTORE PUSH1 0x64 SWAP1 SWAP3 ADD DUP5 MSTORE SWAP2 DUP2 ADD DUP1 MLOAD PUSH1 0x1 PUSH1 0x1 PUSH1 0xE0 SHL SUB AND PUSH4 0xA9059CBB PUSH1 0xE0 SHL OR SWAP1 MSTORE SWAP2 MLOAD PUSH1 0x0 SWAP3 DUP4 SWAP3 DUP8 AND SWAP2 PUSH2 0x1654 SWAP2 SWAP1 PUSH2 0x20C7 JUMP JUMPDEST PUSH1 0x0 PUSH1 0x40 MLOAD DUP1 DUP4 SUB DUP2 PUSH1 0x0 DUP7 GAS CALL SWAP2 POP POP RETURNDATASIZE DUP1 PUSH1 0x0 DUP2 EQ PUSH2 0x1691 JUMPI PUSH1 0x40 MLOAD SWAP2 POP PUSH1 0x1F NOT PUSH1 0x3F RETURNDATASIZE ADD AND DUP3 ADD PUSH1 0x40 MSTORE RETURNDATASIZE DUP3 MSTORE RETURNDATASIZE PUSH1 0x0 PUSH1 0x20 DUP5 ADD RETURNDATACOPY PUSH2 0x1696 JUMP JUMPDEST PUSH1 0x60 SWAP2 POP JUMPDEST POP SWAP2 POP SWAP2 POP DUP2 DUP1 ISZERO PUSH2 0x16C0 JUMPI POP DUP1 MLOAD ISZERO DUP1 PUSH2 0x16C0 JUMPI POP DUP1 DUP1 PUSH1 0x20 ADD SWAP1 MLOAD DUP2 ADD SWAP1 PUSH2 0x16C0 SWAP2 SWAP1 PUSH2 0x20E3 JUMP JUMPDEST PUSH2 0x1705 JUMPI PUSH1 0x40 MLOAD PUSH3 0x461BCD PUSH1 0xE5 SHL DUP2 MSTORE PUSH1 0x20 PUSH1 0x4 DUP3 ADD MSTORE PUSH1 0x16 PUSH1 0x24 DUP3 ADD MSTORE PUSH22 0x11195E158C4E881514905394D1915497D19052531151 PUSH1 0x52 SHL PUSH1 0x44 DUP3 ADD MSTORE PUSH1 0x64 ADD PUSH2 0x4AD JUMP JUMPDEST POP POP POP POP POP JUMP JUMPDEST PUSH1 0x1 PUSH1 0x1 PUSH1 0x70 SHL SUB DUP5 GT DUP1 ISZERO SWAP1 PUSH2 0x172A JUMPI POP PUSH1 0x1 PUSH1 0x1 PUSH1 0x70 SHL SUB DUP4 GT ISZERO JUMPDEST PUSH2 0x1768 JUMPI PUSH1 0x40 MLOAD PUSH3 0x461BCD PUSH1 0xE5 SHL DUP2 MSTORE PUSH1 0x20 PUSH1 0x4 DUP3 ADD MSTORE PUSH1 0xF PUSH1 0x24 DUP3 ADD MSTORE PUSH15 0x44657856313A204F564552464C4F57 PUSH1 0x88 SHL PUSH1 0x44 DUP3 ADD MSTORE PUSH1 0x64 ADD PUSH2 0x4AD JUMP JUMPDEST PUSH1 0x0 PUSH2 0x1779 PUSH5 0x100000000 TIMESTAMP PUSH2 0x2105 JUMP JUMPDEST PUSH1 0x9 SLOAD SWAP1 SWAP2 POP PUSH1 0x0 SWAP1 PUSH2 0x1799 SWAP1 PUSH1 0x1 PUSH1 0xE0 SHL SWAP1 DIV PUSH4 0xFFFFFFFF AND DUP4 PUSH2 0x2119 JUMP JUMPDEST SWAP1 POP PUSH1 0x0 DUP2 PUSH4 0xFFFFFFFF AND GT DUP1 ISZERO PUSH2 0x17B9 JUMPI POP PUSH1 0x1 PUSH1 0x1 PUSH1 0x70 SHL SUB DUP5 AND ISZERO ISZERO JUMPDEST DUP1 ISZERO PUSH2 0x17CD JUMPI POP PUSH1 0x1 PUSH1 0x1 PUSH1 0x70 SHL SUB DUP4 AND ISZERO ISZERO JUMPDEST ISZERO PUSH2 0x185C JUMPI DUP1 PUSH4 0xFFFFFFFF AND PUSH2 0x17F5 DUP6 PUSH2 0x17E6 DUP7 PUSH2 0x1D35 JUMP JUMPDEST PUSH1 0x1 PUSH1 0x1 PUSH1 0xE0 SHL SUB AND SWAP1 PUSH2 0x1D4E JUMP JUMPDEST PUSH1 0x1 PUSH1 0x1 PUSH1 0xE0 SHL SUB AND PUSH2 0x1808 SWAP2 SWAP1 PUSH2 0x206D JUMP JUMPDEST PUSH1 0xA PUSH1 0x0 DUP3 DUP3 SLOAD PUSH2 0x1819 SWAP2 SWAP1 PUSH2 0x213D JUMP JUMPDEST SWAP1 SWAP2 SSTORE POP POP PUSH4 0xFFFFFFFF DUP2 AND PUSH2 0x1832 DUP5 PUSH2 0x17E6 DUP8 PUSH2 0x1D35 JUMP JUMPDEST PUSH1 0x1 PUSH1 0x1 PUSH1 0xE0 SHL SUB AND PUSH2 0x1845 SWAP2 SWAP1 PUSH2 0x206D JUMP JUMPDEST PUSH1 0xB PUSH1 0x0 DUP3 DUP3 SLOAD PUSH2 0x1856 SWAP2 SWAP1 PUSH2 0x213D JUMP JUMPDEST SWAP1 SWAP2 SSTORE POP POP JUMPDEST PUSH1 0x9 DUP1 SLOAD PUSH4 0xFFFFFFFF DUP5 AND PUSH1 0x1 PUSH1 0xE0 SHL MUL PUSH1 0x1 PUSH1 0x1 PUSH1 0xE0 SHL SUB PUSH1 0x1 PUSH1 0x1 PUSH1 0x70 SHL SUB DUP10 DUP2 AND PUSH1 0x1 PUSH1 0x70 SHL SWAP1 DUP2 MUL PUSH1 0x1 PUSH1 0x1 PUSH1 0xE0 SHL SUB NOT SWAP1 SWAP6 AND DUP13 DUP4 AND OR SWAP5 SWAP1 SWAP5 OR SWAP2 DUP3 AND DUP4 OR SWAP5 DUP6 SWAP1 SSTORE PUSH1 0x40 DUP1 MLOAD SWAP4 DUP3 AND SWAP3 DUP3 AND SWAP3 SWAP1 SWAP3 OR DUP4 MSTORE SWAP3 SWAP1 SWAP4 DIV SWAP1 SWAP2 AND PUSH1 0x20 DUP3 ADD MSTORE PUSH32 0x1C411E9A96E071241C2F21F7726B17AE89E3CAB4C78BE50E062B03A9FFFBBAD1 SWAP2 ADD PUSH1 0x40 MLOAD DUP1 SWAP2 SUB SWAP1 LOG1 POP POP POP POP POP POP JUMP JUMPDEST PUSH1 0x1 PUSH1 0x1 PUSH1 0xA0 SHL SUB DUP4 DUP2 AND PUSH1 0x0 DUP2 DUP2 MSTORE PUSH1 0x2 PUSH1 0x20 SWAP1 DUP2 MSTORE PUSH1 0x40 DUP1 DUP4 KECCAK256 SWAP5 DUP8 AND DUP1 DUP5 MSTORE SWAP5 DUP3 MSTORE SWAP2 DUP3 SWAP1 KECCAK256 DUP6 SWAP1 SSTORE SWAP1 MLOAD DUP5 DUP2 MSTORE PUSH32 0x9BBED94D365EDF12A87B581EA935CFDEE7C048FD4E609E0AD6321CA2703ABB1E SWAP2 ADD JUMPDEST PUSH1 0x40 MLOAD DUP1 SWAP2 SUB SWAP1 LOG3 POP POP POP JUMP JUMPDEST PUSH1 0x1 PUSH1 0x1 PUSH1 0xA0 SHL SUB DUP4 AND PUSH1 0x0 SWAP1 DUP2 MSTORE PUSH1 0x1 PUSH1 0x20 MSTORE PUSH1 0x40 DUP2 KECCAK256 DUP1 SLOAD DUP4 SWAP3 SWAP1 PUSH2 0x197E SWAP1 DUP5 SWAP1 PUSH2 0x205A JUMP JUMPDEST SWAP1 SWAP2 SSTORE POP POP PUSH1 0x1 PUSH1 0x1 PUSH1 0xA0 SHL SUB DUP3 AND PUSH1 0x0 SWAP1 DUP2 MSTORE PUSH1 0x1 PUSH1 0x20 MSTORE PUSH1 0x40 DUP2 KECCAK256 DUP1 SLOAD DUP4 SWAP3 SWAP1 PUSH2 0x19AB SWAP1 DUP5 SWAP1 PUSH2 0x213D JUMP JUMPDEST SWAP3 POP POP DUP2 SWAP1 SSTORE POP DUP2 PUSH1 0x1 PUSH1 0x1 PUSH1 0xA0 SHL SUB AND DUP4 PUSH1 0x1 PUSH1 0x1 PUSH1 0xA0 SHL SUB AND PUSH32 0x45D0465CDA3936CCC7EE223B12BE71E3F5DA003B041626B6FAF29AD2C62EB9AE DUP4 PUSH1 0x40 MLOAD PUSH2 0x1949 SWAP2 DUP2 MSTORE PUSH1 0x20 ADD SWAP1 JUMP JUMPDEST DUP1 PUSH1 0x0 DUP1 DUP3 DUP3 SLOAD PUSH2 0x1A08 SWAP2 SWAP1 PUSH2 0x213D JUMP JUMPDEST SWAP1 SWAP2 SSTORE POP POP PUSH1 0x1 PUSH1 0x1 PUSH1 0xA0 SHL SUB DUP3 AND PUSH1 0x0 SWAP1 DUP2 MSTORE PUSH1 0x1 PUSH1 0x20 MSTORE PUSH1 0x40 DUP2 KECCAK256 DUP1 SLOAD DUP4 SWAP3 SWAP1 PUSH2 0x1A35 SWAP1 DUP5 SWAP1 PUSH2 0x213D JUMP JUMPDEST SWAP1 SWAP2 SSTORE POP POP PUSH1 0x40 MLOAD DUP2 DUP2 MSTORE PUSH1 0x1 PUSH1 0x1 PUSH1 0xA0 SHL SUB DUP4 AND SWAP1 PUSH1 0x0 SWAP1 PUSH32 0x45D0465CDA3936CCC7EE223B12BE71E3F5DA003B041626B6FAF29AD2C62EB9AE SWAP1 PUSH1 0x20 ADD JUMPDEST PUSH1 0x40 MLOAD DUP1 SWAP2 SUB SWAP1 LOG3 POP POP JUMP JUMPDEST PUSH1 0x0 DUP1 PUSH1 0x6 PUSH1 0x0 SWAP1 SLOAD SWAP1 PUSH2 0x100 EXP SWAP1 DIV PUSH1 0x1 PUSH1 0x1 PUSH1 0xA0 SHL SUB AND PUSH1 0x1 PUSH1 0x1 PUSH1 0xA0 SHL SUB AND PUSH4 0x17E7E58 PUSH1 0x40 MLOAD DUP2 PUSH4 0xFFFFFFFF AND PUSH1 0xE0 SHL DUP2 MSTORE PUSH1 0x4 ADD PUSH1 0x20 PUSH1 0x40 MLOAD DUP1 DUP4 SUB DUP2 DUP7 GAS STATICCALL ISZERO DUP1 ISZERO PUSH2 0x1AD6 JUMPI RETURNDATASIZE PUSH1 0x0 DUP1 RETURNDATACOPY RETURNDATASIZE PUSH1 0x0 REVERT JUMPDEST POP POP POP POP PUSH1 0x40 MLOAD RETURNDATASIZE PUSH1 0x1F NOT PUSH1 0x1F DUP3 ADD AND DUP3 ADD DUP1 PUSH1 0x40 MSTORE POP DUP2 ADD SWAP1 PUSH2 0x1AFA SWAP2 SWAP1 PUSH2 0x2150 JUMP JUMPDEST PUSH1 0xC SLOAD PUSH1 0x1 PUSH1 0x1 PUSH1 0xA0 SHL SUB DUP3 AND ISZERO DUP1 ISZERO SWAP5 POP SWAP2 SWAP3 POP SWAP1 PUSH2 0x1BAB JUMPI DUP1 ISZERO PUSH2 0x1BA6 JUMPI PUSH1 0x0 PUSH2 0x1B35 PUSH2 0xCC1 PUSH1 0x1 PUSH1 0x1 PUSH1 0x70 SHL SUB DUP1 DUP9 AND SWAP1 DUP10 AND PUSH2 0x206D JUMP JUMPDEST SWAP1 POP PUSH1 0x0 PUSH2 0x1B42 DUP4 PUSH2 0x1BBF JUMP JUMPDEST SWAP1 POP DUP1 DUP3 GT ISZERO PUSH2 0x1BA3 JUMPI PUSH1 0x0 PUSH2 0x1B58 DUP3 DUP5 PUSH2 0x205A JUMP JUMPDEST PUSH1 0x0 SLOAD PUSH2 0x1B65 SWAP2 SWAP1 PUSH2 0x206D JUMP JUMPDEST SWAP1 POP PUSH1 0x0 DUP3 PUSH2 0x1B75 DUP6 PUSH1 0x5 PUSH2 0x206D JUMP JUMPDEST PUSH2 0x1B7F SWAP2 SWAP1 PUSH2 0x213D JUMP JUMPDEST SWAP1 POP PUSH1 0x0 PUSH2 0x1B8D DUP3 DUP5 PUSH2 0x209A JUMP JUMPDEST SWAP1 POP DUP1 ISZERO PUSH2 0x1B9F JUMPI PUSH2 0x1B9F DUP8 DUP3 PUSH2 0x19F7 JUMP JUMPDEST POP POP POP JUMPDEST POP POP JUMPDEST PUSH2 0x1BB7 JUMP JUMPDEST DUP1 ISZERO PUSH2 0x1BB7 JUMPI PUSH1 0x0 PUSH1 0xC SSTORE JUMPDEST POP POP SWAP3 SWAP2 POP POP JUMP JUMPDEST PUSH1 0x0 PUSH1 0x3 DUP3 GT ISZERO PUSH2 0x1C20 JUMPI POP DUP1 PUSH1 0x0 PUSH2 0x1BD9 PUSH1 0x2 DUP4 PUSH2 0x209A JUMP JUMPDEST PUSH2 0x1BE4 SWAP1 PUSH1 0x1 PUSH2 0x213D JUMP JUMPDEST SWAP1 POP JUMPDEST DUP2 DUP2 LT ISZERO PUSH2 0x1C1A JUMPI SWAP1 POP DUP1 PUSH1 0x2 DUP2 PUSH2 0x1BFF DUP2 DUP7 PUSH2 0x209A JUMP JUMPDEST PUSH2 0x1C09 SWAP2 SWAP1 PUSH2 0x213D JUMP JUMPDEST PUSH2 0x1C13 SWAP2 SWAP1 PUSH2 0x209A JUMP JUMPDEST SWAP1 POP PUSH2 0x1BE7 JUMP JUMPDEST POP SWAP2 SWAP1 POP JUMP JUMPDEST DUP2 ISZERO PUSH2 0x1C2A JUMPI POP PUSH1 0x1 JUMPDEST SWAP2 SWAP1 POP JUMP JUMPDEST PUSH1 0x0 DUP2 DUP4 LT PUSH2 0x1C3E JUMPI DUP2 PUSH2 0x1C40 JUMP JUMPDEST DUP3 JUMPDEST SWAP4 SWAP3 POP POP POP JUMP JUMPDEST PUSH1 0x1 PUSH1 0x1 PUSH1 0xA0 SHL SUB DUP3 AND PUSH1 0x0 SWAP1 DUP2 MSTORE PUSH1 0x1 PUSH1 0x20 MSTORE PUSH1 0x40 SWAP1 KECCAK256 SLOAD PUSH2 0x1C6B SWAP1 DUP3 SWAP1 PUSH2 0x205A JUMP JUMPDEST PUSH1 0x1 PUSH1 0x1 PUSH1 0xA0 SHL SUB DUP4 AND PUSH1 0x0 SWAP1 DUP2 MSTORE PUSH1 0x1 PUSH1 0x20 MSTORE PUSH1 0x40 DUP2 KECCAK256 SWAP2 SWAP1 SWAP2 SSTORE DUP1 SLOAD DUP3 SWAP2 SWAP1 DUP2 SWAP1 PUSH2 0x1C99 SWAP1 DUP5 SWAP1 PUSH2 0x205A JUMP JUMPDEST SWAP1 SWAP2 SSTORE POP POP PUSH1 0x40 MLOAD DUP2 DUP2 MSTORE PUSH1 0x0 SWAP1 PUSH1 0x1 PUSH1 0x1 PUSH1 0xA0 SHL SUB DUP5 AND SWAP1 PUSH32 0x45D0465CDA3936CCC7EE223B12BE71E3F5DA003B041626B6FAF29AD2C62EB9AE SWAP1 PUSH1 0x20 ADD PUSH2 0x1A74 JUMP JUMPDEST PUSH1 0x1 PUSH1 0x1 PUSH1 0xA0 SHL SUB DUP4 DUP2 AND PUSH1 0x0 DUP2 DUP2 MSTORE PUSH1 0x2 PUSH1 0x20 SWAP1 DUP2 MSTORE PUSH1 0x40 DUP1 DUP4 KECCAK256 SWAP5 DUP8 AND DUP1 DUP5 MSTORE SWAP5 DUP3 MSTORE SWAP2 DUP3 SWAP1 KECCAK256 DUP6 SWAP1 SSTORE SWAP1 MLOAD DUP5 DUP2 MSTORE PUSH32 0x8C5BE1E5EBEC7D5BD14F71427D1E84F3DD0314C0F7B2291E5B200AC8C7C3B925 SWAP2 ADD PUSH2 0x1949 JUMP JUMPDEST PUSH1 0x0 PUSH2 0x9FD PUSH1 0x1 PUSH1 0x70 SHL PUSH1 0x1 PUSH1 0x1 PUSH1 0x70 SHL SUB DUP5 AND PUSH2 0x216D JUMP JUMPDEST PUSH1 0x0 PUSH2 0x1C40 PUSH1 0x1 PUSH1 0x1 PUSH1 0x70 SHL SUB DUP4 AND DUP5 PUSH2 0x219F JUMP JUMPDEST PUSH1 0x1 PUSH1 0x1 PUSH1 0xA0 SHL SUB DUP2 AND DUP2 EQ PUSH2 0xB48 JUMPI PUSH1 0x0 DUP1 REVERT JUMPDEST PUSH1 0x0 DUP1 PUSH1 0x0 DUP1 PUSH1 0x0 PUSH1 0x80 DUP7 DUP9 SUB SLT ISZERO PUSH2 0x1D90 JUMPI PUSH1 0x0 DUP1 REVERT JUMPDEST DUP6 CALLDATALOAD SWAP5 POP PUSH1 0x20 DUP7 ADD CALLDATALOAD SWAP4 POP PUSH1 0x40 DUP7 ADD CALLDATALOAD PUSH2 0x1DA9 DUP2 PUSH2 0x1D63 JUMP JUMPDEST SWAP3 POP PUSH1 0x60 DUP7 ADD CALLDATALOAD PUSH8 0xFFFFFFFFFFFFFFFF DUP1 DUP3 GT ISZERO PUSH2 0x1DC6 JUMPI PUSH1 0x0 DUP1 REVERT JUMPDEST DUP2 DUP9 ADD SWAP2 POP DUP9 PUSH1 0x1F DUP4 ADD SLT PUSH2 0x1DDA JUMPI PUSH1 0x0 DUP1 REVERT JUMPDEST DUP2 CALLDATALOAD DUP2 DUP2 GT ISZERO PUSH2 0x1DE9 JUMPI PUSH1 0x0 DUP1 REVERT JUMPDEST DUP10 PUSH1 0x20 DUP3 DUP6 ADD ADD GT ISZERO PUSH2 0x1DFB JUMPI PUSH1 0x0 DUP1 REVERT JUMPDEST SWAP7 SWAP10 SWAP6 SWAP9 POP SWAP4 SWAP7 POP PUSH1 0x20 ADD SWAP5 SWAP4 SWAP3 POP POP POP JUMP JUMPDEST PUSH1 0x0 JUMPDEST DUP4 DUP2 LT ISZERO PUSH2 0x1E29 JUMPI DUP2 DUP2 ADD MLOAD DUP4 DUP3 ADD MSTORE PUSH1 0x20 ADD PUSH2 0x1E11 JUMP JUMPDEST POP POP PUSH1 0x0 SWAP2 ADD MSTORE JUMP JUMPDEST PUSH1 0x20 DUP2 MSTORE PUSH1 0x0 DUP3 MLOAD DUP1 PUSH1 0x20 DUP5 ADD MSTORE PUSH2 0x1E51 DUP2 PUSH1 0x40 DUP6 ADD PUSH1 0x20 DUP8 ADD PUSH2 0x1E0E JUMP JUMPDEST PUSH1 0x1F ADD PUSH1 0x1F NOT AND SWAP2 SWAP1 SWAP2 ADD PUSH1 0x40 ADD SWAP3 SWAP2 POP POP JUMP JUMPDEST PUSH1 0x0 DUP1 PUSH1 0x40 DUP4 DUP6 SUB SLT ISZERO PUSH2 0x1E78 JUMPI PUSH1 0x0 DUP1 REVERT JUMPDEST DUP3 CALLDATALOAD PUSH2 0x1E83 DUP2 PUSH2 0x1D63 JUMP JUMPDEST SWAP5 PUSH1 0x20 SWAP4 SWAP1 SWAP4 ADD CALLDATALOAD SWAP4 POP POP POP JUMP JUMPDEST PUSH1 0x0 DUP1 PUSH1 0x0 PUSH1 0x60 DUP5 DUP7 SUB SLT ISZERO PUSH2 0x1EA6 JUMPI PUSH1 0x0 DUP1 REVERT JUMPDEST DUP4 CALLDATALOAD PUSH2 0x1EB1 DUP2 PUSH2 0x1D63 JUMP JUMPDEST SWAP3 POP PUSH1 0x20 DUP5 ADD CALLDATALOAD PUSH2 0x1EC1 DUP2 PUSH2 0x1D63 JUMP JUMPDEST SWAP3 SWAP6 SWAP3 SWAP5 POP POP POP PUSH1 0x40 SWAP2 SWAP1 SWAP2 ADD CALLDATALOAD SWAP1 JUMP JUMPDEST PUSH1 0x0 DUP1 PUSH1 0x40 DUP4 DUP6 SUB SLT ISZERO PUSH2 0x1EE5 JUMPI PUSH1 0x0 DUP1 REVERT JUMPDEST DUP3 CALLDATALOAD PUSH2 0x1EF0 DUP2 PUSH2 0x1D63 JUMP JUMPDEST SWAP2 POP PUSH1 0x20 DUP4 ADD CALLDATALOAD PUSH2 0x1F00 DUP2 PUSH2 0x1D63 JUMP JUMPDEST DUP1 SWAP2 POP POP SWAP3 POP SWAP3 SWAP1 POP JUMP JUMPDEST PUSH1 0x0 PUSH1 0x20 DUP3 DUP5 SUB SLT ISZERO PUSH2 0x1F1D JUMPI PUSH1 0x0 DUP1 REVERT JUMPDEST POP CALLDATALOAD SWAP2 SWAP1 POP JUMP JUMPDEST PUSH1 0x0 PUSH1 0x20 DUP3 DUP5 SUB SLT ISZERO PUSH2 0x1F36 JUMPI PUSH1 0x0 DUP1 REVERT JUMPDEST DUP2 CALLDATALOAD PUSH2 0x1C40 DUP2 PUSH2 0x1D63 JUMP JUMPDEST PUSH1 0x0 DUP1 PUSH1 0x0 DUP1 PUSH1 0x0 DUP1 PUSH1 0x0 PUSH1 0xE0 DUP9 DUP11 SUB SLT ISZERO PUSH2 0x1F5C JUMPI PUSH1 0x0 DUP1 REVERT JUMPDEST DUP8 CALLDATALOAD PUSH2 0x1F67 DUP2 PUSH2 0x1D63 JUMP JUMPDEST SWAP7 POP PUSH1 0x20 DUP9 ADD CALLDATALOAD PUSH2 0x1F77 DUP2 PUSH2 0x1D63 JUMP JUMPDEST SWAP6 POP PUSH1 0x40 DUP9 ADD CALLDATALOAD SWAP5 POP PUSH1 0x60 DUP9 ADD CALLDATALOAD SWAP4 POP PUSH1 0x80 DUP9 ADD CALLDATALOAD PUSH1 0xFF DUP2 AND DUP2 EQ PUSH2 0x1F9B JUMPI PUSH1 0x0 DUP1 REVERT JUMPDEST SWAP7 SWAP10 SWAP6 SWAP9 POP SWAP4 SWAP7 SWAP3 SWAP6 SWAP5 PUSH1 0xA0 DUP5 ADD CALLDATALOAD SWAP5 POP PUSH1 0xC0 SWAP1 SWAP4 ADD CALLDATALOAD SWAP3 SWAP2 POP POP JUMP JUMPDEST PUSH1 0x20 DUP1 DUP3 MSTORE PUSH1 0xD SWAP1 DUP3 ADD MSTORE PUSH13 0x11195E158C4E881313D0D2D151 PUSH1 0x9A SHL PUSH1 0x40 DUP3 ADD MSTORE PUSH1 0x60 ADD SWAP1 JUMP JUMPDEST PUSH1 0x1 DUP1 PUSH1 0xA0 SHL SUB DUP7 AND DUP2 MSTORE DUP5 PUSH1 0x20 DUP3 ADD MSTORE DUP4 PUSH1 0x40 DUP3 ADD MSTORE PUSH1 0x80 PUSH1 0x60 DUP3 ADD MSTORE DUP2 PUSH1 0x80 DUP3 ADD MSTORE DUP2 DUP4 PUSH1 0xA0 DUP4 ADD CALLDATACOPY PUSH1 0x0 DUP2 DUP4 ADD PUSH1 0xA0 SWAP1 DUP2 ADD SWAP2 SWAP1 SWAP2 MSTORE PUSH1 0x1F SWAP1 SWAP3 ADD PUSH1 0x1F NOT AND ADD ADD SWAP5 SWAP4 POP POP POP POP JUMP JUMPDEST PUSH1 0x0 PUSH1 0x20 DUP3 DUP5 SUB SLT ISZERO PUSH2 0x203D JUMPI PUSH1 0x0 DUP1 REVERT JUMPDEST POP MLOAD SWAP2 SWAP1 POP JUMP JUMPDEST PUSH4 0x4E487B71 PUSH1 0xE0 SHL PUSH1 0x0 MSTORE PUSH1 0x11 PUSH1 0x4 MSTORE PUSH1 0x24 PUSH1 0x0 REVERT JUMPDEST DUP2 DUP2 SUB DUP2 DUP2 GT ISZERO PUSH2 0x9FD JUMPI PUSH2 0x9FD PUSH2 0x2044 JUMP JUMPDEST DUP1 DUP3 MUL DUP2 ISZERO DUP3 DUP3 DIV DUP5 EQ OR PUSH2 0x9FD JUMPI PUSH2 0x9FD PUSH2 0x2044 JUMP JUMPDEST PUSH4 0x4E487B71 PUSH1 0xE0 SHL PUSH1 0x0 MSTORE PUSH1 0x12 PUSH1 0x4 MSTORE PUSH1 0x24 PUSH1 0x0 REVERT JUMPDEST PUSH1 0x0 DUP3 PUSH2 0x20A9 JUMPI PUSH2 0x20A9 PUSH2 0x2084 JUMP JUMPDEST POP DIV SWAP1 JUMP JUMPDEST PUSH1 0x0 PUSH1 0x1 DUP3 ADD PUSH2 0x20C0 JUMPI PUSH2 0x20C0 PUSH2 0x2044 JUMP JUMPDEST POP PUSH1 0x1 ADD SWAP1 JUMP JUMPDEST PUSH1 0x0 DUP3 MLOAD PUSH2 0x20D9 DUP2 DUP5 PUSH1 0x20 DUP8 ADD PUSH2 0x1E0E JUMP JUMPDEST SWAP2 SWAP1 SWAP2 ADD SWAP3 SWAP2 POP POP JUMP JUMPDEST PUSH1 0x0 PUSH1 0x20 DUP3 DUP5 SUB SLT ISZERO PUSH2 0x20F5 JUMPI PUSH1 0x0 DUP1 REVERT JUMPDEST DUP2 MLOAD DUP1 ISZERO ISZERO DUP2 EQ PUSH2 0x1C40 JUMPI PUSH1 0x0 DUP1 REVERT JUMPDEST PUSH1 0x0 DUP3 PUSH2 0x2114 JUMPI PUSH2 0x2114 PUSH2 0x2084 JUMP JUMPDEST POP MOD SWAP1 JUMP JUMPDEST PUSH4 0xFFFFFFFF DUP3 DUP2 AND DUP3 DUP3 AND SUB SWAP1 DUP1 DUP3 GT ISZERO PUSH2 0x2136 JUMPI PUSH2 0x2136 PUSH2 0x2044 JUMP JUMPDEST POP SWAP3 SWAP2 POP POP JUMP JUMPDEST DUP1 DUP3 ADD DUP1 DUP3 GT ISZERO PUSH2 0x9FD JUMPI PUSH2 0x9FD PUSH2 0x2044 JUMP JUMPDEST PUSH1 0x0 PUSH1 0x20 DUP3 DUP5 SUB SLT ISZERO PUSH2 0x2162 JUMPI PUSH1 0x0 DUP1 REVERT JUMPDEST DUP2 MLOAD PUSH2 0x1C40 DUP2 PUSH2 0x1D63 JUMP JUMPDEST PUSH1 0x1 PUSH1 0x1 PUSH1 0xE0 SHL SUB DUP3 DUP2 AND DUP3 DUP3 AND DUP2 DUP2 MUL DUP4 AND SWAP3 SWAP2 DUP2 ISZERO DUP3 DUP6 DIV DUP3 EQ OR PUSH2 0x2196 JUMPI PUSH2 0x2196 PUSH2 0x2044 JUMP JUMPDEST POP POP POP SWAP3 SWAP2 POP POP JUMP JUMPDEST PUSH1 0x0 PUSH1 0x1 PUSH1 0x1 PUSH1 0xE0 SHL SUB DUP4 DUP2 AND DUP1 PUSH2 0x21B9 JUMPI PUSH2 0x21B9 PUSH2 0x2084 JUMP JUMPDEST SWAP3 AND SWAP2 SWAP1 SWAP2 DIV SWAP3 SWAP2 POP POP JUMP INVALID LOG2 PUSH5 0x6970667358 0x22 SLT KECCAK256 0xD1 0xF6 0xEB PUSH18 0x70224690C0692ECAEBC16883262429E10905 DIV LOG3 KECCAK256 LT SELFDESTRUCT 0x4C DUP2 0x28 GT 0x4E PUSH5 0x736F6C6343 STOP ADDMOD SLT STOP CALLER "},"methodIdentifiers":{"DOMAIN_SEPARATOR()":"3644e515","MINIMUM_LIQUIDITY()":"ba9a7a56","PERMIT_TYPEHASH()":"30adf81f","allowance(address,address)":"dd62ed3e","approve(address,uint256)":"095ea7b3","balanceOf(address)":"70a08231","burn(address)":"89afcb44","decimals()":"313ce567","factory()":"c45a0155","getReserves()":"0902f1ac","initialize(address,address)":"485cc955","kLast()":"7464fc3d","mint(address)":"6a627842","mints(uint256)":"6350b2c2","name()":"06fdde03","nonces(address)":"7ecebe00","permit(address,address,uint256,uint256,uint8,bytes32,bytes32)":"d505accf","price0CumulativeLast()":"5909c0d5","price1CumulativeLast()":"5a3d5493","skim(address)":"bc25cf77","swap(uint256,uint256,address,bytes)":"022c0d9f","symbol()":"95d89b41","sync()":"fff6cae9","token0()":"0dfe1681","token1()":"d21220a7","totalSupply()":"18160ddd","transfer(address,uint256)":"a9059cbb","transferFrom(address,address,uint256)":"23b872dd"}}}}}