{
  "_format": "hh-sol-artifact-1",
  "contractName": "DexV1ERC20",
  "sourceName": "contracts/DexV1ERC20.sol",
  "abi": [
    {
      "inputs": [],
      "stateMutability": "nonpayable",
      "type": "constructor"
    },
    {
      "anonymous": false,
      "inputs": [
        {
          "indexed": true,
          "internalType": "address",
          "name": "owner",
          "type": "address"
        },
        {
          "indexed": true,
          "internalType": "address",
          "name": "spender",
          "type": "address"
        },
        {
          "indexed": false,
          "internalType": "uint256",
          "name": "value",
          "type": "uint256"
        }
      ],
      "name": "Approval1",
      "type": "event"
    },
    {
      "anonymous": false,
      "inputs": [
        {
          "indexed": true,
          "internalType": "address",
          "name": "from",
          "type": "address"
        },
        {
          "indexed": true,
          "internalType": "address",
          "name": "to",
          "type": "address"
        },
        {
          "indexed": false,
          "internalType": "uint256",
          "name": "value",
          "type": "uint256"
        }
      ],
      "name": "Transfer1",
      "type": "event"
    },
    {
      "inputs": [],
      "name": "DOMAIN_SEPARATOR",
      "outputs": [
        {
          "internalType": "bytes32",
          "name": "",
          "type": "bytes32"
        }
      ],
      "stateMutability": "view",
      "type": "function"
    },
    {
      "inputs": [],
      "name": "PERMIT_TYPEHASH",
      "outputs": [
        {
          "internalType": "bytes32",
          "name": "",
          "type": "bytes32"
        }
      ],
      "stateMutability": "view",
      "type": "function"
    },
    {
      "inputs": [
        {
          "internalType": "address",
          "name": "",
          "type": "address"
        },
        {
          "internalType": "address",
          "name": "",
          "type": "address"
        }
      ],
      "name": "allowance",
      "outputs": [
        {
          "internalType": "uint256",
          "name": "",
          "type": "uint256"
        }
      ],
      "stateMutability": "view",
      "type": "function"
    },
    {
      "inputs": [
        {
          "internalType": "address",
          "name": "spender",
          "type": "address"
        },
        {
          "internalType": "uint256",
          "name": "value",
          "type": "uint256"
        }
      ],
      "name": "approve",
      "outputs": [
        {
          "internalType": "bool",
          "name": "",
          "type": "bool"
        }
      ],
      "stateMutability": "nonpayable",
      "type": "function"
    },
    {
      "inputs": [
        {
          "internalType": "address",
          "name": "",
          "type": "address"
        }
      ],
      "name": "balanceOf",
      "outputs": [
        {
          "internalType": "uint256",
          "name": "",
          "type": "uint256"
        }
      ],
      "stateMutability": "view",
      "type": "function"
    },
    {
      "inputs": [],
      "name": "decimals",
      "outputs": [
        {
          "internalType": "uint8",
          "name": "",
          "type": "uint8"
        }
      ],
      "stateMutability": "view",
      "type": "function"
    },
    {
      "inputs": [
        {
          "internalType": "uint256",
          "name": "value",
          "type": "uint256"
        }
      ],
      "name": "mints",
      "outputs": [],
      "stateMutability": "nonpayable",
      "type": "function"
    },
    {
      "inputs": [],
      "name": "name",
      "outputs": [
        {
          "internalType": "string",
          "name": "",
          "type": "string"
        }
      ],
      "stateMutability": "view",
      "type": "function"
    },
    {
      "inputs": [
        {
          "internalType": "address",
          "name": "",
          "type": "address"
        }
      ],
      "name": "nonces",
      "outputs": [
        {
          "internalType": "uint256",
          "name": "",
          "type": "uint256"
        }
      ],
      "stateMutability": "view",
      "type": "function"
    },
    {
      "inputs": [],
      "name": "owner_",
      "outputs": [
        {
          "internalType": "address",
          "name": "",
          "type": "address"
        }
      ],
      "stateMutability": "view",
      "type": "function"
    },
    {
      "inputs": [
        {
          "internalType": "address",
          "name": "owner",
          "type": "address"
        },
        {
          "internalType": "address",
          "name": "spender",
          "type": "address"
        },
        {
          "internalType": "uint256",
          "name": "value",
          "type": "uint256"
        },
        {
          "internalType": "uint256",
          "name": "deadline",
          "type": "uint256"
        },
        {
          "internalType": "uint8",
          "name": "v",
          "type": "uint8"
        },
        {
          "internalType": "bytes32",
          "name": "r",
          "type": "bytes32"
        },
        {
          "internalType": "bytes32",
          "name": "s",
          "type": "bytes32"
        }
      ],
      "name": "permit",
      "outputs": [],
      "stateMutability": "nonpayable",
      "type": "function"
    },
    {
      "inputs": [],
      "name": "symbol",
      "outputs": [
        {
          "internalType": "string",
          "name": "",
          "type": "string"
        }
      ],
      "stateMutability": "view",
      "type": "function"
    },
    {
      "inputs": [],
      "name": "totalSupply",
      "outputs": [
        {
          "internalType": "uint256",
          "name": "",
          "type": "uint256"
        }
      ],
      "stateMutability": "view",
      "type": "function"
    },
    {
      "inputs": [
        {
          "internalType": "address",
          "name": "to",
          "type": "address"
        },
        {
          "internalType": "uint256",
          "name": "value",
          "type": "uint256"
        }
      ],
      "name": "transfer",
      "outputs": [
        {
          "internalType": "bool",
          "name": "",
          "type": "bool"
        }
      ],
      "stateMutability": "nonpayable",
      "type": "function"
    },
    {
      "inputs": [
        {
          "internalType": "address",
          "name": "from",
          "type": "address"
        },
        {
          "internalType": "address",
          "name": "to",
          "type": "address"
        },
        {
          "internalType": "uint256",
          "name": "value",
          "type": "uint256"
        }
      ],
      "name": "transferFrom",
      "outputs": [
        {
          "internalType": "bool",
          "name": "",
          "type": "bool"
        }
      ],
      "stateMutability": "nonpayable",
      "type": "function"
    }
  ],
  "bytecode": "0x608060405234801561001057600080fd5b50600380546001600160a01b03191633179055604080518082018252600681526544455820563160d01b6020918201528151808301835260018152603160f81b9082015281517f8b73c3c69bb8fe3d512ecc4cf759cc79239f7b179b0ffacaa9a75d522b39400f818301527f763ef677f244741a13e3fb4cba28fbcd1fe43592d1e8a4e327e45635f621c57c818401527fc89efdaa54c0f20c7adf612882df0950f5a951637e0307cdcb4c672f298b8bc660608201524660808201523060a0808301919091528351808303909101815260c09091019092528151910120600455610a0b806100ff6000396000f3fe608060405234801561001057600080fd5b50600436106100f55760003560e01c80636350b2c211610097578063a9059cbb11610066578063a9059cbb14610246578063d505accf14610259578063dd62ed3e1461026c578063e76630791461029757600080fd5b80636350b2c2146101cc57806370a08231146101e15780637ecebe001461020157806395d89b411461022157600080fd5b806323b872dd116100d357806323b872dd1461016f57806330adf81f14610182578063313ce567146101a95780633644e515146101c357600080fd5b806306fdde03146100fa578063095ea7b31461013557806318160ddd14610158575b600080fd5b61011f6040518060400160405280600681526020016544455820563160d01b81525081565b60405161012c91906107cf565b60405180910390f35b610148610143366004610839565b6102c2565b604051901515815260200161012c565b61016160005481565b60405190815260200161012c565b61014861017d366004610863565b610319565b6101617f6e71edae12b1b97f4d1f60370fef10105fa2faae0126114a169c64845d6126c981565b6101b1601281565b60405160ff909116815260200161012c565b61016160045481565b6101df6101da36600461089f565b6103d0565b005b6101616101ef3660046108b8565b60016020526000908152604090205481565b61016161020f3660046108b8565b60056020526000908152604090205481565b61011f6040518060400160405280600681526020016542525820563160d01b81525081565b610148610254366004610839565b610423565b6101df6102673660046108da565b610430565b61016161027a36600461094d565b600260209081526000928352604080842090915290825290205481565b6003546102aa906001600160a01b031681565b6040516001600160a01b03909116815260200161012c565b60008082116103045760405162461bcd60e51b81526020600482015260096024820152684d696e696d756d203160b81b60448201526064015b60405180910390fd5b61030f338484610644565b5060015b92915050565b60008082116103565760405162461bcd60e51b81526020600482015260096024820152684d696e696d756d203160b81b60448201526064016102fb565b6001600160a01b0384166000908152600260209081526040808320338452909152902054600019146103bb576001600160a01b0384166000908152600260209081526040808320338452909152812080548492906103b5908490610996565b90915550505b6103c68484846106a6565b5060019392505050565b6003546001600160a01b031633146104165760405162461bcd60e51b81526020600482015260096024820152682737ba1027bbb732b960b91b60448201526064016102fb565b6104203382610747565b50565b600061030f3384846106a6565b428410156104755760405162461bcd60e51b8152602060048201526012602482015271155b9a5cddd85c158c8e881156141254915160721b60448201526064016102fb565b6004546001600160a01b038816600090815260056020526040812080549192917f6e71edae12b1b97f4d1f60370fef10105fa2faae0126114a169c64845d6126c9918b918b918b9190876104c8836109a9565b909155506040805160208101969096526001600160a01b0394851690860152929091166060840152608083015260a082015260c0810187905260e0016040516020818303038152906040528051906020012060405160200161054192919061190160f01b81526002810192909252602282015260420190565b60408051601f198184030181528282528051602091820120600080855291840180845281905260ff88169284019290925260608301869052608083018590529092509060019060a0016020604051602081039080840390855afa1580156105ac573d6000803e3d6000fd5b5050604051601f1901519150506001600160a01b038116158015906105e25750886001600160a01b0316816001600160a01b0316145b61062e5760405162461bcd60e51b815260206004820152601860248201527f44657856313a20494e56414c49445f5349474e4154555245000000000000000060448201526064016102fb565b610639898989610644565b505050505050505050565b6001600160a01b0383811660008181526002602090815260408083209487168084529482529182902085905590518481527f9bbed94d365edf12a87b581ea935cfdee7c048fd4e609e0ad6321ca2703abb1e91015b60405180910390a3505050565b6001600160a01b038316600090815260016020526040812080548392906106ce908490610996565b90915550506001600160a01b038216600090815260016020526040812080548392906106fb9084906109c2565b92505081905550816001600160a01b0316836001600160a01b03167f45d0465cda3936ccc7ee223b12be71e3f5da003b041626b6faf29ad2c62eb9ae8360405161069991815260200190565b8060008082825461075891906109c2565b90915550506001600160a01b038216600090815260016020526040812080548392906107859084906109c2565b90915550506040518181526001600160a01b038316906000907f45d0465cda3936ccc7ee223b12be71e3f5da003b041626b6faf29ad2c62eb9ae9060200160405180910390a35050565b600060208083528351808285015260005b818110156107fc578581018301518582016040015282016107e0565b506000604082860101526040601f19601f8301168501019250505092915050565b80356001600160a01b038116811461083457600080fd5b919050565b6000806040838503121561084c57600080fd5b6108558361081d565b946020939093013593505050565b60008060006060848603121561087857600080fd5b6108818461081d565b925061088f6020850161081d565b9150604084013590509250925092565b6000602082840312156108b157600080fd5b5035919050565b6000602082840312156108ca57600080fd5b6108d38261081d565b9392505050565b600080600080600080600060e0888a0312156108f557600080fd5b6108fe8861081d565b965061090c6020890161081d565b95506040880135945060608801359350608088013560ff8116811461093057600080fd5b9699959850939692959460a0840135945060c09093013592915050565b6000806040838503121561096057600080fd5b6109698361081d565b91506109776020840161081d565b90509250929050565b634e487b7160e01b600052601160045260246000fd5b8181038181111561031357610313610980565b6000600182016109bb576109bb610980565b5060010190565b808201808211156103135761031361098056fea2646970667358221220998efd14addd5b8e6f5e8dac80ed626f60b694945be7c0a725d7341e656689a364736f6c63430008120033",
  "linkReferences": {},
  "deployedLinkReferences": {}
}