{
  "_format": "hh-sol-artifact-1",
  "contractName": "DexV1Pair",
  "sourceName": "contracts/DexV1Pair.sol",
  "abi": [
    {
      "inputs": [],
      "stateMutability": "nonpayable",
      "type": "constructor"
    },
    {
      "anonymous": false,
      "inputs": [
        {
          "indexed": true,
          "internalType": "address",
          "name": "owner",
          "type": "address"
        },
        {
          "indexed": true,
          "internalType": "address",
          "name": "spender",
          "type": "address"
        },
        {
          "indexed": false,
          "internalType": "uint256",
          "name": "value",
          "type": "uint256"
        }
      ],
      "name": "Approval",
      "type": "event"
    },
    {
      "anonymous": false,
      "inputs": [
        {
          "indexed": true,
          "internalType": "address",
          "name": "owner",
          "type": "address"
        },
        {
          "indexed": true,
          "internalType": "address",
          "name": "spender",
          "type": "address"
        },
        {
          "indexed": false,
          "internalType": "uint256",
          "name": "value",
          "type": "uint256"
        }
      ],
      "name": "Approval1",
      "type": "event"
    },
    {
      "anonymous": false,
      "inputs": [
        {
          "indexed": true,
          "internalType": "address",
          "name": "sender",
          "type": "address"
        },
        {
          "indexed": false,
          "internalType": "uint256",
          "name": "amount0",
          "type": "uint256"
        },
        {
          "indexed": false,
          "internalType": "uint256",
          "name": "amount1",
          "type": "uint256"
        },
        {
          "indexed": true,
          "internalType": "address",
          "name": "to",
          "type": "address"
        }
      ],
      "name": "Burn",
      "type": "event"
    },
    {
      "anonymous": false,
      "inputs": [
        {
          "indexed": true,
          "internalType": "address",
          "name": "sender",
          "type": "address"
        },
        {
          "indexed": false,
          "internalType": "uint256",
          "name": "amount0",
          "type": "uint256"
        },
        {
          "indexed": false,
          "internalType": "uint256",
          "name": "amount1",
          "type": "uint256"
        }
      ],
      "name": "Mint",
      "type": "event"
    },
    {
      "anonymous": false,
      "inputs": [
        {
          "indexed": true,
          "internalType": "address",
          "name": "sender",
          "type": "address"
        },
        {
          "indexed": false,
          "internalType": "uint256",
          "name": "amount0In",
          "type": "uint256"
        },
        {
          "indexed": false,
          "internalType": "uint256",
          "name": "amount1In",
          "type": "uint256"
        },
        {
          "indexed": false,
          "internalType": "uint256",
          "name": "amount0Out",
          "type": "uint256"
        },
        {
          "indexed": false,
          "internalType": "uint256",
          "name": "amount1Out",
          "type": "uint256"
        },
        {
          "indexed": true,
          "internalType": "address",
          "name": "to",
          "type": "address"
        }
      ],
      "name": "Swap",
      "type": "event"
    },
    {
      "anonymous": false,
      "inputs": [
        {
          "indexed": false,
          "internalType": "uint112",
          "name": "reserve0",
          "type": "uint112"
        },
        {
          "indexed": false,
          "internalType": "uint112",
          "name": "reserve1",
          "type": "uint112"
        }
      ],
      "name": "Sync",
      "type": "event"
    },
    {
      "anonymous": false,
      "inputs": [
        {
          "indexed": true,
          "internalType": "address",
          "name": "from",
          "type": "address"
        },
        {
          "indexed": true,
          "internalType": "address",
          "name": "to",
          "type": "address"
        },
        {
          "indexed": false,
          "internalType": "uint256",
          "name": "value",
          "type": "uint256"
        }
      ],
      "name": "Transfer1",
      "type": "event"
    },
    {
      "inputs": [],
      "name": "DOMAIN_SEPARATOR",
      "outputs": [
        {
          "internalType": "bytes32",
          "name": "",
          "type": "bytes32"
        }
      ],
      "stateMutability": "view",
      "type": "function"
    },
    {
      "inputs": [],
      "name": "MINIMUM_LIQUIDITY",
      "outputs": [
        {
          "internalType": "uint256",
          "name": "",
          "type": "uint256"
        }
      ],
      "stateMutability": "view",
      "type": "function"
    },
    {
      "inputs": [],
      "name": "PERMIT_TYPEHASH",
      "outputs": [
        {
          "internalType": "bytes32",
          "name": "",
          "type": "bytes32"
        }
      ],
      "stateMutability": "view",
      "type": "function"
    },
    {
      "inputs": [
        {
          "internalType": "address",
          "name": "",
          "type": "address"
        },
        {
          "internalType": "address",
          "name": "",
          "type": "address"
        }
      ],
      "name": "allowance",
      "outputs": [
        {
          "internalType": "uint256",
          "name": "",
          "type": "uint256"
        }
      ],
      "stateMutability": "view",
      "type": "function"
    },
    {
      "inputs": [
        {
          "internalType": "address",
          "name": "spender",
          "type": "address"
        },
        {
          "internalType": "uint256",
          "name": "value",
          "type": "uint256"
        }
      ],
      "name": "approve",
      "outputs": [
        {
          "internalType": "bool",
          "name": "",
          "type": "bool"
        }
      ],
      "stateMutability": "nonpayable",
      "type": "function"
    },
    {
      "inputs": [
        {
          "internalType": "address",
          "name": "",
          "type": "address"
        }
      ],
      "name": "balanceOf",
      "outputs": [
        {
          "internalType": "uint256",
          "name": "",
          "type": "uint256"
        }
      ],
      "stateMutability": "view",
      "type": "function"
    },
    {
      "inputs": [
        {
          "internalType": "address",
          "name": "to",
          "type": "address"
        }
      ],
      "name": "burn",
      "outputs": [
        {
          "internalType": "uint256",
          "name": "amount0",
          "type": "uint256"
        },
        {
          "internalType": "uint256",
          "name": "amount1",
          "type": "uint256"
        }
      ],
      "stateMutability": "nonpayable",
      "type": "function"
    },
    {
      "inputs": [],
      "name": "decimals",
      "outputs": [
        {
          "internalType": "uint8",
          "name": "",
          "type": "uint8"
        }
      ],
      "stateMutability": "view",
      "type": "function"
    },
    {
      "inputs": [],
      "name": "factory",
      "outputs": [
        {
          "internalType": "address",
          "name": "",
          "type": "address"
        }
      ],
      "stateMutability": "view",
      "type": "function"
    },
    {
      "inputs": [],
      "name": "getReserves",
      "outputs": [
        {
          "internalType": "uint112",
          "name": "_reserve0",
          "type": "uint112"
        },
        {
          "internalType": "uint112",
          "name": "_reserve1",
          "type": "uint112"
        },
        {
          "internalType": "uint32",
          "name": "_blockTimestampLast",
          "type": "uint32"
        }
      ],
      "stateMutability": "view",
      "type": "function"
    },
    {
      "inputs": [
        {
          "internalType": "address",
          "name": "_token0",
          "type": "address"
        },
        {
          "internalType": "address",
          "name": "_token1",
          "type": "address"
        }
      ],
      "name": "initialize",
      "outputs": [],
      "stateMutability": "nonpayable",
      "type": "function"
    },
    {
      "inputs": [],
      "name": "kLast",
      "outputs": [
        {
          "internalType": "uint256",
          "name": "",
          "type": "uint256"
        }
      ],
      "stateMutability": "view",
      "type": "function"
    },
    {
      "inputs": [
        {
          "internalType": "address",
          "name": "to",
          "type": "address"
        }
      ],
      "name": "mint",
      "outputs": [
        {
          "internalType": "uint256",
          "name": "liquidity",
          "type": "uint256"
        }
      ],
      "stateMutability": "nonpayable",
      "type": "function"
    },
    {
      "inputs": [
        {
          "internalType": "uint256",
          "name": "value",
          "type": "uint256"
        }
      ],
      "name": "mints",
      "outputs": [],
      "stateMutability": "nonpayable",
      "type": "function"
    },
    {
      "inputs": [],
      "name": "name",
      "outputs": [
        {
          "internalType": "string",
          "name": "",
          "type": "string"
        }
      ],
      "stateMutability": "view",
      "type": "function"
    },
    {
      "inputs": [
        {
          "internalType": "address",
          "name": "",
          "type": "address"
        }
      ],
      "name": "nonces",
      "outputs": [
        {
          "internalType": "uint256",
          "name": "",
          "type": "uint256"
        }
      ],
      "stateMutability": "view",
      "type": "function"
    },
    {
      "inputs": [],
      "name": "owner_",
      "outputs": [
        {
          "internalType": "address",
          "name": "",
          "type": "address"
        }
      ],
      "stateMutability": "view",
      "type": "function"
    },
    {
      "inputs": [
        {
          "internalType": "address",
          "name": "owner",
          "type": "address"
        },
        {
          "internalType": "address",
          "name": "spender",
          "type": "address"
        },
        {
          "internalType": "uint256",
          "name": "value",
          "type": "uint256"
        },
        {
          "internalType": "uint256",
          "name": "deadline",
          "type": "uint256"
        },
        {
          "internalType": "uint8",
          "name": "v",
          "type": "uint8"
        },
        {
          "internalType": "bytes32",
          "name": "r",
          "type": "bytes32"
        },
        {
          "internalType": "bytes32",
          "name": "s",
          "type": "bytes32"
        }
      ],
      "name": "permit",
      "outputs": [],
      "stateMutability": "nonpayable",
      "type": "function"
    },
    {
      "inputs": [],
      "name": "price0CumulativeLast",
      "outputs": [
        {
          "internalType": "uint256",
          "name": "",
          "type": "uint256"
        }
      ],
      "stateMutability": "view",
      "type": "function"
    },
    {
      "inputs": [],
      "name": "price1CumulativeLast",
      "outputs": [
        {
          "internalType": "uint256",
          "name": "",
          "type": "uint256"
        }
      ],
      "stateMutability": "view",
      "type": "function"
    },
    {
      "inputs": [
        {
          "internalType": "address",
          "name": "to",
          "type": "address"
        }
      ],
      "name": "skim",
      "outputs": [],
      "stateMutability": "nonpayable",
      "type": "function"
    },
    {
      "inputs": [
        {
          "internalType": "uint256",
          "name": "amount0Out",
          "type": "uint256"
        },
        {
          "internalType": "uint256",
          "name": "amount1Out",
          "type": "uint256"
        },
        {
          "internalType": "address",
          "name": "to",
          "type": "address"
        },
        {
          "internalType": "bytes",
          "name": "data",
          "type": "bytes"
        }
      ],
      "name": "swap",
      "outputs": [],
      "stateMutability": "nonpayable",
      "type": "function"
    },
    {
      "inputs": [],
      "name": "symbol",
      "outputs": [
        {
          "internalType": "string",
          "name": "",
          "type": "string"
        }
      ],
      "stateMutability": "view",
      "type": "function"
    },
    {
      "inputs": [],
      "name": "sync",
      "outputs": [],
      "stateMutability": "nonpayable",
      "type": "function"
    },
    {
      "inputs": [],
      "name": "token0",
      "outputs": [
        {
          "internalType": "address",
          "name": "",
          "type": "address"
        }
      ],
      "stateMutability": "view",
      "type": "function"
    },
    {
      "inputs": [],
      "name": "token1",
      "outputs": [
        {
          "internalType": "address",
          "name": "",
          "type": "address"
        }
      ],
      "stateMutability": "view",
      "type": "function"
    },
    {
      "inputs": [],
      "name": "totalSupply",
      "outputs": [
        {
          "internalType": "uint256",
          "name": "",
          "type": "uint256"
        }
      ],
      "stateMutability": "view",
      "type": "function"
    },
    {
      "inputs": [
        {
          "internalType": "address",
          "name": "to",
          "type": "address"
        },
        {
          "internalType": "uint256",
          "name": "value",
          "type": "uint256"
        }
      ],
      "name": "transfer",
      "outputs": [
        {
          "internalType": "bool",
          "name": "",
          "type": "bool"
        }
      ],
      "stateMutability": "nonpayable",
      "type": "function"
    },
    {
      "inputs": [
        {
          "internalType": "address",
          "name": "from",
          "type": "address"
        },
        {
          "internalType": "address",
          "name": "to",
          "type": "address"
        },
        {
          "internalType": "uint256",
          "name": "value",
          "type": "uint256"
        }
      ],
      "name": "transferFrom",
      "outputs": [
        {
          "internalType": "bool",
          "name": "",
          "type": "bool"
        }
      ],
      "stateMutability": "nonpayable",
      "type": "function"
    }
  ],
  "bytecode": "0x60806040526001600d5534801561001557600080fd5b50600380546001600160a01b03191633179055604080518082018252600681526544455820563160d01b6020918201528151808301835260018152603160f81b9082015281517f8b73c3c69bb8fe3d512ecc4cf759cc79239f7b179b0ffacaa9a75d522b39400f918101919091527f763ef677f244741a13e3fb4cba28fbcd1fe43592d1e8a4e327e45635f621c57c918101919091527fc89efdaa54c0f20c7adf612882df0950f5a951637e0307cdcb4c672f298b8bc6606082015246608082018190523060a08301529060c00160408051601f19818403018152919052805160209091012060045550600680546001600160a01b03191633179055612166806101206000396000f3fe608060405234801561001057600080fd5b50600436106101cf5760003560e01c80636a62784211610104578063ba9a7a56116100a2578063d505accf11610071578063d505accf14610450578063dd62ed3e14610463578063e76630791461048e578063fff6cae9146104a157600080fd5b8063ba9a7a561461040e578063bc25cf7714610417578063c45a01551461042a578063d21220a71461043d57600080fd5b80637ecebe00116100de5780637ecebe001461038e57806389afcb44146103ae57806395d89b41146103d6578063a9059cbb146103fb57600080fd5b80636a6278421461035257806370a08231146103655780637464fc3d1461038557600080fd5b806330adf81f11610171578063485cc9551161014b578063485cc9551461031a5780635909c0d51461032d5780635a3d5493146103365780636350b2c21461033f57600080fd5b806330adf81f146102d0578063313ce567146102f75780633644e5151461031157600080fd5b8063095ea7b3116101ad578063095ea7b3146102585780630dfe16811461027b57806318160ddd146102a657806323b872dd146102bd57600080fd5b8063022c0d9f146101d457806306fdde03146101e95780630902f1ac14610224575b600080fd5b6101e76101e2366004611d2f565b6104a9565b005b61020e6040518060400160405280600681526020016544455820563160d01b81525081565b60405161021b9190611de9565b60405180910390f35b61022c61093e565b604080516001600160701b03948516815293909216602084015263ffffffff169082015260600161021b565b61026b610266366004611e1c565b610968565b604051901515815260200161021b565b60075461028e906001600160a01b031681565b6040516001600160a01b03909116815260200161021b565b6102af60005481565b60405190815260200161021b565b61026b6102cb366004611e48565b6109ba565b6102af7f6e71edae12b1b97f4d1f60370fef10105fa2faae0126114a169c64845d6126c981565b6102ff601281565b60405160ff909116815260200161021b565b6102af60045481565b6101e7610328366004611e89565b610a34565b6102af600a5481565b6102af600b5481565b6101e761034d366004611ec2565b610aaf565b6102af610360366004611edb565b610b02565b6102af610373366004611edb565b60016020526000908152604090205481565b6102af600c5481565b6102af61039c366004611edb565b60056020526000908152604090205481565b6103c16103bc366004611edb565b610dcb565b6040805192835260208301919091520161021b565b61020e6040518060400160405280600681526020016542525820563160d01b81525081565b61026b610409366004611e1c565b61112b565b6102af6103e881565b6101e7610425366004611edb565b611138565b60065461028e906001600160a01b031681565b60085461028e906001600160a01b031681565b6101e761045e366004611ef8565b61124b565b6102af610471366004611e89565b600260209081526000928352604080842090915290825290205481565b60035461028e906001600160a01b031681565b6101e761145b565b600d546001146104d45760405162461bcd60e51b81526004016104cb90611f6f565b60405180910390fd5b6000600d55841515806104e75750600084115b61053d5760405162461bcd60e51b815260206004820152602160248201527f44657856313a20494e53554646494349454e545f4f55545055545f414d4f554e6044820152601560fa1b60648201526084016104cb565b60008061054861093e565b5091509150816001600160701b03168710801561056d5750806001600160701b031686105b6105b95760405162461bcd60e51b815260206004820152601d60248201527f44657856313a20494e53554646494349454e545f4c495155494449545900000060448201526064016104cb565b60075460085460009182916001600160a01b039182169190811690891682148015906105f75750806001600160a01b0316896001600160a01b031614155b61063b5760405162461bcd60e51b8152602060048201526015602482015274556e697377617056323a20494e56414c49445f544f60581b60448201526064016104cb565b8a1561064c5761064c828a8d61157f565b891561065d5761065d818a8c61157f565b86156106ce576040516370a0823160e01b81523060048201526001600160a01b038316906370a0823190602401602060405180830381865afa1580156106a7573d6000803e3d6000fd5b505050506040513d601f19601f820116820180604052508101906106cb9190611f96565b93505b6040516370a0823160e01b81523060048201526001600160a01b038216906370a0823190602401602060405180830381865afa158015610712573d6000803e3d6000fd5b505050506040513d601f19601f820116820180604052508101906107369190611f96565b92505050600089856001600160701b03166107519190611fc5565b831161075e57600061077b565b6107718a6001600160701b038716611fc5565b61077b9084611fc5565b905060006107928a6001600160701b038716611fc5565b831161079f5760006107bc565b6107b28a6001600160701b038716611fc5565b6107bc9084611fc5565b905060008211806107cd5750600081115b6108195760405162461bcd60e51b815260206004820181905260248201527f44657856313a20494e53554646494349454e545f494e5055545f414d4f554e5460448201526064016104cb565b6000610826836003611fd8565b610832866103e8611fd8565b61083c9190611fc5565b9050600061084b836003611fd8565b610857866103e8611fd8565b6108619190611fc5565b90506108796001600160701b03808916908a16611fd8565b61088690620f4240611fd8565b6108908284611fd8565b10156108c95760405162461bcd60e51b815260206004820152600860248201526744657856313a204b60c01b60448201526064016104cb565b50506108d7848488886116c3565b60408051838152602081018390529081018c9052606081018b90526001600160a01b038a169033907fd78ad95fa46c994b6551d0da85fc275fe613ce37657fb8d5e3d130840159d8229060800160405180910390a350506001600d55505050505050505050565b6009546001600160701b0380821692600160701b830490911691600160e01b900463ffffffff1690565b60008082116109a55760405162461bcd60e51b81526020600482015260096024820152684d696e696d756d203160b81b60448201526064016104cb565b6109b03384846118ab565b5060015b92915050565b6001600160a01b038316600090815260026020908152604080832033845290915281205460001914610a1f576001600160a01b038416600090815260026020908152604080832033845290915281208054849290610a19908490611fc5565b90915550505b610a2a84848461190d565b5060019392505050565b6006546001600160a01b03163314610a815760405162461bcd60e51b815260206004820152601060248201526f2232bc2b189d102327a92124a22222a760811b60448201526064016104cb565b600780546001600160a01b039384166001600160a01b03199182161790915560088054929093169116179055565b6003546001600160a01b03163314610af55760405162461bcd60e51b81526020600482015260096024820152682737ba1027bbb732b960b91b60448201526064016104cb565b610aff33826119ae565b50565b6000600d54600114610b265760405162461bcd60e51b81526004016104cb90611f6f565b6000600d81905580610b3661093e565b506007546040516370a0823160e01b81523060048201529294509092506000916001600160a01b03909116906370a0823190602401602060405180830381865afa158015610b88573d6000803e3d6000fd5b505050506040513d601f19601f82011682018060405250810190610bac9190611f96565b6008546040516370a0823160e01b81523060048201529192506000916001600160a01b03909116906370a0823190602401602060405180830381865afa158015610bfa573d6000803e3d6000fd5b505050506040513d601f19601f82011682018060405250810190610c1e9190611f96565b90506000610c356001600160701b03861684611fc5565b90506000610c4c6001600160701b03861684611fc5565b90506000610c5a8787611a37565b60008054919250819003610c9b576103e8610c7d610c788587611fd8565b611b76565b610c879190611fc5565b9850610c9660006103e86119ae565b610ce2565b610cdf6001600160701b038916610cb28387611fd8565b610cbc9190612005565b6001600160701b038916610cd08487611fd8565b610cda9190612005565b611be6565b98505b60008911610d3e5760405162461bcd60e51b8152602060048201526024808201527f44657856313a20494e53554646494349454e545f4c49515549444954595f4d496044820152631395115160e21b60648201526084016104cb565b610d488a8a6119ae565b610d5486868a8a6116c3565b8115610d7d57600954610d79906001600160701b03600160701b820481169116611fd8565b600c555b604080518581526020810185905233917f4c209b5fc8ad50758f13e2e1088ba56a560dff690a1c6fef26394f4c03821c4f910160405180910390a250506001600d5550949695505050505050565b600080600d54600114610df05760405162461bcd60e51b81526004016104cb90611f6f565b6000600d81905580610e0061093e565b506007546008546040516370a0823160e01b81523060048201529395509193506001600160a01b039081169291169060009083906370a0823190602401602060405180830381865afa158015610e5a573d6000803e3d6000fd5b505050506040513d601f19601f82011682018060405250810190610e7e9190611f96565b6040516370a0823160e01b81523060048201529091506000906001600160a01b038416906370a0823190602401602060405180830381865afa158015610ec8573d6000803e3d6000fd5b505050506040513d601f19601f82011682018060405250810190610eec9190611f96565b30600090815260016020526040812054919250610f098888611a37565b60005490915080610f1a8685611fd8565b610f249190612005565b9a5080610f318585611fd8565b610f3b9190612005565b995060008b118015610f4d575060008a115b610fa55760405162461bcd60e51b8152602060048201526024808201527f44657856313a20494e53554646494349454e545f4c49515549444954595f42556044820152631493915160e21b60648201526084016104cb565b610faf3084611bfe565b610fba878d8d61157f565b610fc5868d8c61157f565b6040516370a0823160e01b81523060048201526001600160a01b038816906370a0823190602401602060405180830381865afa158015611009573d6000803e3d6000fd5b505050506040513d601f19601f8201168201806040525081019061102d9190611f96565b6040516370a0823160e01b81523060048201529095506001600160a01b038716906370a0823190602401602060405180830381865afa158015611074573d6000803e3d6000fd5b505050506040513d601f19601f820116820180604052508101906110989190611f96565b93506110a685858b8b6116c3565b81156110cf576009546110cb906001600160701b03600160701b820481169116611fd8565b600c555b604080518c8152602081018c90526001600160a01b038e169133917fdccd412f0b1252819cb1fd330b93224ca42612892bb3f4f789976e6d81936496910160405180910390a35050505050505050506001600d81905550915091565b60006109b033848461190d565b600d5460011461115a5760405162461bcd60e51b81526004016104cb90611f6f565b6000600d556007546008546009546040516370a0823160e01b81523060048201526001600160a01b0393841693909216916111f991849186916001600160701b03169083906370a08231906024015b602060405180830381865afa1580156111c6573d6000803e3d6000fd5b505050506040513d601f19601f820116820180604052508101906111ea9190611f96565b6111f49190611fc5565b61157f565b6009546040516370a0823160e01b81523060048201526112419183918691600160701b90046001600160701b0316906001600160a01b038416906370a08231906024016111a9565b50506001600d5550565b4284101561128c5760405162461bcd60e51b815260206004820152600e60248201526d11195e158c4e881156141254915160921b60448201526064016104cb565b6004546001600160a01b038816600090815260056020526040812080549192917f6e71edae12b1b97f4d1f60370fef10105fa2faae0126114a169c64845d6126c9918b918b918b9190876112df83612019565b909155506040805160208101969096526001600160a01b0394851690860152929091166060840152608083015260a082015260c0810187905260e0016040516020818303038152906040528051906020012060405160200161135892919061190160f01b81526002810192909252602282015260420190565b60408051601f198184030181528282528051602091820120600080855291840180845281905260ff88169284019290925260608301869052608083018590529092509060019060a0016020604051602081039080840390855afa1580156113c3573d6000803e3d6000fd5b5050604051601f1901519150506001600160a01b038116158015906113f95750886001600160a01b0316816001600160a01b0316145b6114455760405162461bcd60e51b815260206004820152601860248201527f44657856313a20494e56414c49445f5349474e4154555245000000000000000060448201526064016104cb565b611450898989611c93565b505050505050505050565b600d5460011461147d5760405162461bcd60e51b81526004016104cb90611f6f565b6000600d556007546040516370a0823160e01b8152306004820152611578916001600160a01b0316906370a0823190602401602060405180830381865afa1580156114cc573d6000803e3d6000fd5b505050506040513d601f19601f820116820180604052508101906114f09190611f96565b6008546040516370a0823160e01b81523060048201526001600160a01b03909116906370a0823190602401602060405180830381865afa158015611538573d6000803e3d6000fd5b505050506040513d601f19601f8201168201806040525081019061155c9190611f96565b6009546001600160701b0380821691600160701b9004166116c3565b6001600d55565b604080518082018252601981527f7472616e7366657228616464726573732c75696e74323536290000000000000060209182015281516001600160a01b0385811660248301526044808301869052845180840390910181526064909201845291810180516001600160e01b031663a9059cbb60e01b1790529151600092839287169161160b9190612032565b6000604051808303816000865af19150503d8060008114611648576040519150601f19603f3d011682016040523d82523d6000602084013e61164d565b606091505b5091509150818015611677575080511580611677575080806020019051810190611677919061204e565b6116bc5760405162461bcd60e51b815260206004820152601660248201527511195e158c4e881514905394d1915497d1905253115160521b60448201526064016104cb565b5050505050565b6001600160701b0384118015906116e157506001600160701b038311155b61171f5760405162461bcd60e51b815260206004820152600f60248201526e44657856313a204f564552464c4f5760881b60448201526064016104cb565b600061173064010000000042612070565b60095490915060009061175090600160e01b900463ffffffff1683612084565b905060008163ffffffff1611801561177057506001600160701b03841615155b801561178457506001600160701b03831615155b15611813578063ffffffff166117ac8561179d86611cec565b6001600160e01b031690611d05565b6001600160e01b03166117bf9190611fd8565b600a60008282546117d091906120a8565b909155505063ffffffff81166117e98461179d87611cec565b6001600160e01b03166117fc9190611fd8565b600b600082825461180d91906120a8565b90915550505b6009805463ffffffff8416600160e01b026001600160e01b036001600160701b03898116600160701b9081026001600160e01b03199095168c83161794909417918216831794859055604080519382169282169290921783529290930490911660208201527f1c411e9a96e071241c2f21f7726b17ae89e3cab4c78be50e062b03a9fffbbad1910160405180910390a1505050505050565b6001600160a01b0383811660008181526002602090815260408083209487168084529482529182902085905590518481527f9bbed94d365edf12a87b581ea935cfdee7c048fd4e609e0ad6321ca2703abb1e91015b60405180910390a3505050565b6001600160a01b03831660009081526001602052604081208054839290611935908490611fc5565b90915550506001600160a01b038216600090815260016020526040812080548392906119629084906120a8565b92505081905550816001600160a01b0316836001600160a01b03167f45d0465cda3936ccc7ee223b12be71e3f5da003b041626b6faf29ad2c62eb9ae8360405161190091815260200190565b806000808282546119bf91906120a8565b90915550506001600160a01b038216600090815260016020526040812080548392906119ec9084906120a8565b90915550506040518181526001600160a01b038316906000907f45d0465cda3936ccc7ee223b12be71e3f5da003b041626b6faf29ad2c62eb9ae906020015b60405180910390a35050565b600080600660009054906101000a90046001600160a01b03166001600160a01b031663017e7e586040518163ffffffff1660e01b8152600401602060405180830381865afa158015611a8d573d6000803e3d6000fd5b505050506040513d601f19601f82011682018060405250810190611ab191906120bb565b600c546001600160a01b038216158015945091925090611b62578015611b5d576000611aec610c786001600160701b03808816908916611fd8565b90506000611af983611b76565b905080821115611b5a576000611b0f8284611fc5565b600054611b1c9190611fd8565b9050600082611b2c856005611fd8565b611b3691906120a8565b90506000611b448284612005565b90508015611b5657611b5687826119ae565b5050505b50505b611b6e565b8015611b6e576000600c555b505092915050565b60006003821115611bd75750806000611b90600283612005565b611b9b9060016120a8565b90505b81811015611bd157905080600281611bb68186612005565b611bc091906120a8565b611bca9190612005565b9050611b9e565b50919050565b8115611be1575060015b919050565b6000818310611bf55781611bf7565b825b9392505050565b6001600160a01b038216600090815260016020526040902054611c22908290611fc5565b6001600160a01b03831660009081526001602052604081209190915580548291908190611c50908490611fc5565b90915550506040518181526000906001600160a01b038416907f45d0465cda3936ccc7ee223b12be71e3f5da003b041626b6faf29ad2c62eb9ae90602001611a2b565b6001600160a01b0383811660008181526002602090815260408083209487168084529482529182902085905590518481527f8c5be1e5ebec7d5bd14f71427d1e84f3dd0314c0f7b2291e5b200ac8c7c3b9259101611900565b60006109b4600160701b6001600160701b0384166120d8565b6000611bf76001600160701b0383168461210a565b6001600160a01b0381168114610aff57600080fd5b600080600080600060808688031215611d4757600080fd5b85359450602086013593506040860135611d6081611d1a565b9250606086013567ffffffffffffffff80821115611d7d57600080fd5b818801915088601f830112611d9157600080fd5b813581811115611da057600080fd5b896020828501011115611db257600080fd5b9699959850939650602001949392505050565b60005b83811015611de0578181015183820152602001611dc8565b50506000910152565b6020815260008251806020840152611e08816040850160208701611dc5565b601f01601f19169190910160400192915050565b60008060408385031215611e2f57600080fd5b8235611e3a81611d1a565b946020939093013593505050565b600080600060608486031215611e5d57600080fd5b8335611e6881611d1a565b92506020840135611e7881611d1a565b929592945050506040919091013590565b60008060408385031215611e9c57600080fd5b8235611ea781611d1a565b91506020830135611eb781611d1a565b809150509250929050565b600060208284031215611ed457600080fd5b5035919050565b600060208284031215611eed57600080fd5b8135611bf781611d1a565b600080600080600080600060e0888a031215611f1357600080fd5b8735611f1e81611d1a565b96506020880135611f2e81611d1a565b95506040880135945060608801359350608088013560ff81168114611f5257600080fd5b9699959850939692959460a0840135945060c09093013592915050565b6020808252600d908201526c11195e158c4e881313d0d2d151609a1b604082015260600190565b600060208284031215611fa857600080fd5b5051919050565b634e487b7160e01b600052601160045260246000fd5b818103818111156109b4576109b4611faf565b80820281158282048414176109b4576109b4611faf565b634e487b7160e01b600052601260045260246000fd5b60008261201457612014611fef565b500490565b60006001820161202b5761202b611faf565b5060010190565b60008251612044818460208701611dc5565b9190910192915050565b60006020828403121561206057600080fd5b81518015158114611bf757600080fd5b60008261207f5761207f611fef565b500690565b63ffffffff8281168282160390808211156120a1576120a1611faf565b5092915050565b808201808211156109b4576109b4611faf565b6000602082840312156120cd57600080fd5b8151611bf781611d1a565b6001600160e01b0382811682821681810283169291811582850482141761210157612101611faf565b50505092915050565b60006001600160e01b038381168061212457612124611fef565b9216919091049291505056fea2646970667358221220d5c2106527160ad20199eedbe2be13be5d6254824a49e46b7c071f21eedb271f64736f6c63430008120033",
  "linkReferences": {},
  "deployedLinkReferences": {}
}